{"abi":[{"inputs":[{"internalType":"address","name":"user","type":"address"}],"stateMutability":"nonpayable","type":"constructor"},{"inputs":[{"internalType":"address","name":"_recovery","type":"address"},{"internalType":"address","name":"_key","type":"address"}],"name":"addRecovery","outputs":[],"stateMutability":"nonpayable","type":"function"},{"inputs":[],"name":"getDetails","outputs":[{"internalType":"address","name":"_owner","type":"address"},{"internalType":"string","name":"_ipfs_hash","type":"string"},{"internalType":"address","name":"_recovery","type":"address"}],"stateMutability":"view","type":"function"},{"inputs":[{"internalType":"address[]","name":"_contacts","type":"address[]"}],"name":"setContacts","outputs":[],"stateMutability":"nonpayable","type":"function"},{"inputs":[{"internalType":"string","name":"_ipfs_hash","type":"string"}],"name":"setIPFSHash","outputs":[],"stateMutability":"nonpayable","type":"function"},{"inputs":[{"internalType":"address","name":"_recovery","type":"address"}],"name":"setRecovery","outputs":[],"stateMutability":"nonpayable","type":"function"},{"inputs":[{"internalType":"address","name":"_owner","type":"address"}],"name":"transferOwner","outputs":[],"stateMutability":"nonpayable","type":"function"}],"devdoc":{"kind":"dev","methods":{},"version":1},"evm":{"assembly":"    /* \"Identity.sol\":1369:2636  contract Identity {... */\n  mstore(0x40, 0x80)\n    /* \"Identity.sol\":1654:1766  constructor(address user) {... */\n  callvalue\n  dup1\n  iszero\n  tag_1\n  jumpi\n  0x00\n  dup1\n  revert\ntag_1:\n  pop\n  mload(0x40)\n  sub(codesize, bytecodeSize)\n  dup1\n  bytecodeSize\n  dup4\n  codecopy\n  dup2\n  dup2\n  add\n  0x40\n  mstore\n  dup2\n  add\n  swap1\n  tag_2\n  swap2\n  swap1\n  tag_3\n  jump\t// in\ntag_2:\n    /* \"Identity.sol\":1698:1702  user */\n  dup1\n    /* \"Identity.sol\":1690:1695  owner */\n  0x00\n  dup1\n    /* \"Identity.sol\":1690:1702  owner = user */\n  0x0100\n  exp\n  dup2\n  sload\n  dup2\n  0xffffffffffffffffffffffffffffffffffffffff\n  mul\n  not\n  and\n  swap1\n  dup4\n  0xffffffffffffffffffffffffffffffffffffffff\n  and\n  mul\n  or\n  swap1\n  sstore\n  pop\n    /* \"Identity.sol\":1752:1756  this */\n  address\n    /* \"Identity.sol\":1731:1758  new Recovery(address(this)) */\n  mload(0x40)\n  tag_6\n  swap1\n  tag_7\n  jump\t// in\ntag_6:\n  tag_8\n  swap2\n  swap1\n  tag_9\n  jump\t// in\ntag_8:\n  mload(0x40)\n  dup1\n  swap2\n  sub\n  swap1\n  0x00\n  create\n  dup1\n  iszero\n  dup1\n  iszero\n  tag_10\n  jumpi\n  returndatasize\n  0x00\n  dup1\n  returndatacopy\n  revert(0x00, returndatasize)\ntag_10:\n  pop\n    /* \"Identity.sol\":1712:1720  recovery */\n  0x02\n  0x00\n    /* \"Identity.sol\":1712:1759  recovery = address(new Recovery(address(this))) */\n  0x0100\n  exp\n  dup2\n  sload\n  dup2\n  0xffffffffffffffffffffffffffffffffffffffff\n  mul\n  not\n  and\n  swap1\n  dup4\n  0xffffffffffffffffffffffffffffffffffffffff\n  and\n  mul\n  or\n  swap1\n  sstore\n  pop\n    /* \"Identity.sol\":1654:1766  constructor(address user) {... */\n  pop\n    /* \"Identity.sol\":1369:2636  contract Identity {... */\n  jump(tag_11)\ntag_7:\n  dataSize(sub_1)\n  dup1\n  dataOffset(sub_1)\n  dup4\n  codecopy\n  add\n  swap1\n  jump\t// out\n    /* \"#utility.yul\":88:205   */\ntag_13:\n    /* \"#utility.yul\":197:198   */\n  0x00\n    /* \"#utility.yul\":194:195   */\n  dup1\n    /* \"#utility.yul\":187:199   */\n  revert\n    /* \"#utility.yul\":334:460   */\ntag_15:\n    /* \"#utility.yul\":371:378   */\n  0x00\n    /* \"#utility.yul\":411:453   */\n  0xffffffffffffffffffffffffffffffffffffffff\n    /* \"#utility.yul\":404:409   */\n  dup3\n    /* \"#utility.yul\":400:454   */\n  and\n    /* \"#utility.yul\":389:454   */\n  swap1\n  pop\n    /* \"#utility.yul\":334:460   */\n  swap2\n  swap1\n  pop\n  jump\t// out\n    /* \"#utility.yul\":466:562   */\ntag_16:\n    /* \"#utility.yul\":503:510   */\n  0x00\n    /* \"#utility.yul\":532:556   */\n  tag_26\n    /* \"#utility.yul\":550:555   */\n  dup3\n    /* \"#utility.yul\":532:556   */\n  tag_15\n  jump\t// in\ntag_26:\n    /* \"#utility.yul\":521:556   */\n  swap1\n  pop\n    /* \"#utility.yul\":466:562   */\n  swap2\n  swap1\n  pop\n  jump\t// out\n    /* \"#utility.yul\":568:690   */\ntag_17:\n    /* \"#utility.yul\":641:665   */\n  tag_28\n    /* \"#utility.yul\":659:664   */\n  dup2\n    /* \"#utility.yul\":641:665   */\n  tag_16\n  jump\t// in\ntag_28:\n    /* \"#utility.yul\":634:639   */\n  dup2\n    /* \"#utility.yul\":631:666   */\n  eq\n    /* \"#utility.yul\":621:684   */\n  tag_29\n  jumpi\n    /* \"#utility.yul\":680:681   */\n  0x00\n    /* \"#utility.yul\":677:678   */\n  dup1\n    /* \"#utility.yul\":670:682   */\n  revert\n    /* \"#utility.yul\":621:684   */\ntag_29:\n    /* \"#utility.yul\":568:690   */\n  pop\n  jump\t// out\n    /* \"#utility.yul\":696:839   */\ntag_18:\n    /* \"#utility.yul\":753:758   */\n  0x00\n    /* \"#utility.yul\":784:790   */\n  dup2\n    /* \"#utility.yul\":778:791   */\n  mload\n    /* \"#utility.yul\":769:791   */\n  swap1\n  pop\n    /* \"#utility.yul\":800:833   */\n  tag_31\n    /* \"#utility.yul\":827:832   */\n  dup2\n    /* \"#utility.yul\":800:833   */\n  tag_17\n  jump\t// in\ntag_31:\n    /* \"#utility.yul\":696:839   */\n  swap3\n  swap2\n  pop\n  pop\n  jump\t// out\n    /* \"#utility.yul\":845:1196   */\ntag_3:\n    /* \"#utility.yul\":915:921   */\n  0x00\n    /* \"#utility.yul\":964:966   */\n  0x20\n    /* \"#utility.yul\":952:961   */\n  dup3\n    /* \"#utility.yul\":943:950   */\n  dup5\n    /* \"#utility.yul\":939:962   */\n  sub\n    /* \"#utility.yul\":935:967   */\n  slt\n    /* \"#utility.yul\":932:1051   */\n  iszero\n  tag_33\n  jumpi\n    /* \"#utility.yul\":970:1049   */\n  tag_34\n  tag_13\n  jump\t// in\ntag_34:\n    /* \"#utility.yul\":932:1051   */\ntag_33:\n    /* \"#utility.yul\":1090:1091   */\n  0x00\n    /* \"#utility.yul\":1115:1179   */\n  tag_35\n    /* \"#utility.yul\":1171:1178   */\n  dup5\n    /* \"#utility.yul\":1162:1168   */\n  dup3\n    /* \"#utility.yul\":1151:1160   */\n  dup6\n    /* \"#utility.yul\":1147:1169   */\n  add\n    /* \"#utility.yul\":1115:1179   */\n  tag_18\n  jump\t// in\ntag_35:\n    /* \"#utility.yul\":1105:1179   */\n  swap2\n  pop\n    /* \"#utility.yul\":1061:1189   */\n  pop\n    /* \"#utility.yul\":845:1196   */\n  swap3\n  swap2\n  pop\n  pop\n  jump\t// out\n    /* \"#utility.yul\":1202:1320   */\ntag_19:\n    /* \"#utility.yul\":1289:1313   */\n  tag_37\n    /* \"#utility.yul\":1307:1312   */\n  dup2\n    /* \"#utility.yul\":1289:1313   */\n  tag_16\n  jump\t// in\ntag_37:\n    /* \"#utility.yul\":1284:1287   */\n  dup3\n    /* \"#utility.yul\":1277:1314   */\n  mstore\n    /* \"#utility.yul\":1202:1320   */\n  pop\n  pop\n  jump\t// out\n    /* \"#utility.yul\":1326:1548   */\ntag_9:\n    /* \"#utility.yul\":1419:1423   */\n  0x00\n    /* \"#utility.yul\":1457:1459   */\n  0x20\n    /* \"#utility.yul\":1446:1455   */\n  dup3\n    /* \"#utility.yul\":1442:1460   */\n  add\n    /* \"#utility.yul\":1434:1460   */\n  swap1\n  pop\n    /* \"#utility.yul\":1470:1541   */\n  tag_39\n    /* \"#utility.yul\":1538:1539   */\n  0x00\n    /* \"#utility.yul\":1527:1536   */\n  dup4\n    /* \"#utility.yul\":1523:1540   */\n  add\n    /* \"#utility.yul\":1514:1520   */\n  dup5\n    /* \"#utility.yul\":1470:1541   */\n  tag_19\n  jump\t// in\ntag_39:\n    /* \"#utility.yul\":1326:1548   */\n  swap3\n  swap2\n  pop\n  pop\n  jump\t// out\n    /* \"Identity.sol\":1369:2636  contract Identity {... */\ntag_11:\n  dataSize(sub_0)\n  dup1\n  dataOffset(sub_0)\n  0x00\n  codecopy\n  0x00\n  return\nstop\n\nsub_0: assembly {\n        /* \"Identity.sol\":1369:2636  contract Identity {... */\n      mstore(0x40, 0x80)\n      callvalue\n      dup1\n      iszero\n      tag_1\n      jumpi\n      0x00\n      dup1\n      revert\n    tag_1:\n      pop\n      jumpi(tag_2, lt(calldatasize, 0x04))\n      shr(0xe0, calldataload(0x00))\n      dup1\n      0x04b20725\n      eq\n      tag_3\n      jumpi\n      dup1\n      0x0aeaaf37\n      eq\n      tag_4\n      jumpi\n      dup1\n      0x4fb2e45d\n      eq\n      tag_5\n      jumpi\n      dup1\n      0xb8a76f54\n      eq\n      tag_6\n      jumpi\n      dup1\n      0xf0d85c89\n      eq\n      tag_7\n      jumpi\n      dup1\n      0xfbbf93a0\n      eq\n      tag_8\n      jumpi\n    tag_2:\n      0x00\n      dup1\n      revert\n        /* \"Identity.sol\":2149:2316  function addRecovery(address _recovery, address _key) onlyOwner public {... */\n    tag_3:\n      tag_9\n      0x04\n      dup1\n      calldatasize\n      sub\n      dup2\n      add\n      swap1\n      tag_10\n      swap2\n      swap1\n      tag_11\n      jump\t// in\n    tag_10:\n      tag_12\n      jump\t// in\n    tag_9:\n      stop\n        /* \"Identity.sol\":1978:2144  function setContacts(address[] memory _contacts) onlyOwner public {... */\n    tag_4:\n      tag_13\n      0x04\n      dup1\n      calldatasize\n      sub\n      dup2\n      add\n      swap1\n      tag_14\n      swap2\n      swap1\n      tag_15\n      jump\t// in\n    tag_14:\n      tag_16\n      jump\t// in\n    tag_13:\n      stop\n        /* \"Identity.sol\":2321:2418  function transferOwner(address _owner) onlyOwnerOrRecovery public {... */\n    tag_5:\n      tag_17\n      0x04\n      dup1\n      calldatasize\n      sub\n      dup2\n      add\n      swap1\n      tag_18\n      swap2\n      swap1\n      tag_19\n      jump\t// in\n    tag_18:\n      tag_20\n      jump\t// in\n    tag_17:\n      stop\n        /* \"Identity.sol\":1870:1973  function setIPFSHash(string memory _ipfs_hash) onlyOwner public {... */\n    tag_6:\n      tag_21\n      0x04\n      dup1\n      calldatasize\n      sub\n      dup2\n      add\n      swap1\n      tag_22\n      swap2\n      swap1\n      tag_23\n      jump\t// in\n    tag_22:\n      tag_24\n      jump\t// in\n    tag_21:\n      stop\n        /* \"Identity.sol\":1771:1865  function setRecovery(address _recovery) onlyOwner public {... */\n    tag_7:\n      tag_25\n      0x04\n      dup1\n      calldatasize\n      sub\n      dup2\n      add\n      swap1\n      tag_26\n      swap2\n      swap1\n      tag_19\n      jump\t// in\n    tag_26:\n      tag_27\n      jump\t// in\n    tag_25:\n      stop\n        /* \"Identity.sol\":2423:2633  function getDetails() public view returns ... */\n    tag_8:\n      tag_28\n      tag_29\n      jump\t// in\n    tag_28:\n      mload(0x40)\n      tag_30\n      swap4\n      swap3\n      swap2\n      swap1\n      tag_31\n      jump\t// in\n    tag_30:\n      mload(0x40)\n      dup1\n      swap2\n      sub\n      swap1\n      return\n        /* \"Identity.sol\":2149:2316  function addRecovery(address _recovery, address _key) onlyOwner public {... */\n    tag_12:\n        /* \"Identity.sol\":1505:1510  owner */\n      0x00\n      dup1\n      sload\n      swap1\n      0x0100\n      exp\n      swap1\n      div\n      0xffffffffffffffffffffffffffffffffffffffff\n      and\n        /* \"Identity.sol\":1491:1510  msg.sender == owner */\n      0xffffffffffffffffffffffffffffffffffffffff\n      and\n        /* \"Identity.sol\":1491:1501  msg.sender */\n      caller\n        /* \"Identity.sol\":1491:1510  msg.sender == owner */\n      0xffffffffffffffffffffffffffffffffffffffff\n      and\n      eq\n        /* \"Identity.sol\":1487:1525  if (msg.sender == owner)... */\n      iszero\n      tag_33\n      jumpi\n        /* \"Identity.sol\":2230:2249  Recovery recovery_c */\n      0x00\n        /* \"Identity.sol\":2261:2270  _recovery */\n      dup3\n        /* \"Identity.sol\":2230:2271  Recovery recovery_c = Recovery(_recovery) */\n      swap1\n      pop\n        /* \"Identity.sol\":2281:2291  recovery_c */\n      dup1\n        /* \"Identity.sol\":2281:2303  recovery_c.addRecovery */\n      0xffffffffffffffffffffffffffffffffffffffff\n      and\n      0x6cd9f3be\n        /* \"Identity.sol\":2304:2308  _key */\n      dup4\n        /* \"Identity.sol\":2281:2309  recovery_c.addRecovery(_key) */\n      mload(0x40)\n      dup3\n      0xffffffff\n      and\n      0xe0\n      shl\n      dup2\n      mstore\n      0x04\n      add\n      tag_35\n      swap2\n      swap1\n      tag_36\n      jump\t// in\n    tag_35:\n      0x00\n      mload(0x40)\n      dup1\n      dup4\n      sub\n      dup2\n      0x00\n      dup8\n      dup1\n      extcodesize\n      iszero\n      dup1\n      iszero\n      tag_37\n      jumpi\n      0x00\n      dup1\n      revert\n    tag_37:\n      pop\n      gas\n      call\n      iszero\n      dup1\n      iszero\n      tag_39\n      jumpi\n      returndatasize\n      0x00\n      dup1\n      returndatacopy\n      revert(0x00, returndatasize)\n    tag_39:\n      pop\n      pop\n      pop\n      pop\n        /* \"Identity.sol\":2220:2316  {... */\n      pop\n        /* \"Identity.sol\":1487:1525  if (msg.sender == owner)... */\n    tag_33:\n        /* \"Identity.sol\":2149:2316  function addRecovery(address _recovery, address _key) onlyOwner public {... */\n      pop\n      pop\n      jump\t// out\n        /* \"Identity.sol\":1978:2144  function setContacts(address[] memory _contacts) onlyOwner public {... */\n    tag_16:\n        /* \"Identity.sol\":1505:1510  owner */\n      0x00\n      dup1\n      sload\n      swap1\n      0x0100\n      exp\n      swap1\n      div\n      0xffffffffffffffffffffffffffffffffffffffff\n      and\n        /* \"Identity.sol\":1491:1510  msg.sender == owner */\n      0xffffffffffffffffffffffffffffffffffffffff\n      and\n        /* \"Identity.sol\":1491:1501  msg.sender */\n      caller\n        /* \"Identity.sol\":1491:1510  msg.sender == owner */\n      0xffffffffffffffffffffffffffffffffffffffff\n      and\n      eq\n        /* \"Identity.sol\":1487:1525  if (msg.sender == owner)... */\n      iszero\n      tag_41\n      jumpi\n        /* \"Identity.sol\":2054:2073  Recovery recovery_c */\n      0x00\n        /* \"Identity.sol\":2085:2093  recovery */\n      0x02\n      0x00\n      swap1\n      sload\n      swap1\n      0x0100\n      exp\n      swap1\n      div\n      0xffffffffffffffffffffffffffffffffffffffff\n      and\n        /* \"Identity.sol\":2054:2094  Recovery recovery_c = Recovery(recovery) */\n      swap1\n      pop\n        /* \"Identity.sol\":2104:2114  recovery_c */\n      dup1\n        /* \"Identity.sol\":2104:2126  recovery_c.setContacts */\n      0xffffffffffffffffffffffffffffffffffffffff\n      and\n      0x0aeaaf37\n        /* \"Identity.sol\":2127:2136  _contacts */\n      dup4\n        /* \"Identity.sol\":2104:2137  recovery_c.setContacts(_contacts) */\n      mload(0x40)\n      dup3\n      0xffffffff\n      and\n      0xe0\n      shl\n      dup2\n      mstore\n      0x04\n      add\n      tag_43\n      swap2\n      swap1\n      tag_44\n      jump\t// in\n    tag_43:\n      0x00\n      mload(0x40)\n      dup1\n      dup4\n      sub\n      dup2\n      0x00\n      dup8\n      dup1\n      extcodesize\n      iszero\n      dup1\n      iszero\n      tag_45\n      jumpi\n      0x00\n      dup1\n      revert\n    tag_45:\n      pop\n      gas\n      call\n      iszero\n      dup1\n      iszero\n      tag_47\n      jumpi\n      returndatasize\n      0x00\n      dup1\n      returndatacopy\n      revert(0x00, returndatasize)\n    tag_47:\n      pop\n      pop\n      pop\n      pop\n        /* \"Identity.sol\":2044:2144  {... */\n      pop\n        /* \"Identity.sol\":1487:1525  if (msg.sender == owner)... */\n    tag_41:\n        /* \"Identity.sol\":1978:2144  function setContacts(address[] memory _contacts) onlyOwner public {... */\n      pop\n      jump\t// out\n        /* \"Identity.sol\":2321:2418  function transferOwner(address _owner) onlyOwnerOrRecovery public {... */\n    tag_20:\n        /* \"Identity.sol\":1595:1600  owner */\n      0x00\n      dup1\n      sload\n      swap1\n      0x0100\n      exp\n      swap1\n      div\n      0xffffffffffffffffffffffffffffffffffffffff\n      and\n        /* \"Identity.sol\":1581:1600  msg.sender == owner */\n      0xffffffffffffffffffffffffffffffffffffffff\n      and\n        /* \"Identity.sol\":1581:1591  msg.sender */\n      caller\n        /* \"Identity.sol\":1581:1600  msg.sender == owner */\n      0xffffffffffffffffffffffffffffffffffffffff\n      and\n      eq\n        /* \"Identity.sol\":1581:1626  msg.sender == owner || msg.sender == recovery */\n      dup1\n      tag_49\n      jumpi\n      pop\n        /* \"Identity.sol\":1618:1626  recovery */\n      0x02\n      0x00\n      swap1\n      sload\n      swap1\n      0x0100\n      exp\n      swap1\n      div\n      0xffffffffffffffffffffffffffffffffffffffff\n      and\n        /* \"Identity.sol\":1604:1626  msg.sender == recovery */\n      0xffffffffffffffffffffffffffffffffffffffff\n      and\n        /* \"Identity.sol\":1604:1614  msg.sender */\n      caller\n        /* \"Identity.sol\":1604:1626  msg.sender == recovery */\n      0xffffffffffffffffffffffffffffffffffffffff\n      and\n      eq\n        /* \"Identity.sol\":1581:1626  msg.sender == owner || msg.sender == recovery */\n    tag_49:\n        /* \"Identity.sol\":1577:1641  if (msg.sender == owner || msg.sender == recovery)... */\n      iszero\n      tag_50\n      jumpi\n        /* \"Identity.sol\":2405:2411  _owner */\n      dup1\n        /* \"Identity.sol\":2397:2402  owner */\n      0x00\n      dup1\n        /* \"Identity.sol\":2397:2411  owner = _owner */\n      0x0100\n      exp\n      dup2\n      sload\n      dup2\n      0xffffffffffffffffffffffffffffffffffffffff\n      mul\n      not\n      and\n      swap1\n      dup4\n      0xffffffffffffffffffffffffffffffffffffffff\n      and\n      mul\n      or\n      swap1\n      sstore\n      pop\n        /* \"Identity.sol\":1577:1641  if (msg.sender == owner || msg.sender == recovery)... */\n    tag_50:\n        /* \"Identity.sol\":2321:2418  function transferOwner(address _owner) onlyOwnerOrRecovery public {... */\n      pop\n      jump\t// out\n        /* \"Identity.sol\":1870:1973  function setIPFSHash(string memory _ipfs_hash) onlyOwner public {... */\n    tag_24:\n        /* \"Identity.sol\":1505:1510  owner */\n      0x00\n      dup1\n      sload\n      swap1\n      0x0100\n      exp\n      swap1\n      div\n      0xffffffffffffffffffffffffffffffffffffffff\n      and\n        /* \"Identity.sol\":1491:1510  msg.sender == owner */\n      0xffffffffffffffffffffffffffffffffffffffff\n      and\n        /* \"Identity.sol\":1491:1501  msg.sender */\n      caller\n        /* \"Identity.sol\":1491:1510  msg.sender == owner */\n      0xffffffffffffffffffffffffffffffffffffffff\n      and\n      eq\n        /* \"Identity.sol\":1487:1525  if (msg.sender == owner)... */\n      iszero\n      tag_53\n      jumpi\n        /* \"Identity.sol\":1956:1966  _ipfs_hash */\n      dup1\n        /* \"Identity.sol\":1944:1953  ipfs_hash */\n      0x01\n        /* \"Identity.sol\":1944:1966  ipfs_hash = _ipfs_hash */\n      swap1\n      dup1\n      mload\n      swap1\n      0x20\n      add\n      swap1\n      tag_55\n      swap3\n      swap2\n      swap1\n      tag_56\n      jump\t// in\n    tag_55:\n      pop\n        /* \"Identity.sol\":1487:1525  if (msg.sender == owner)... */\n    tag_53:\n        /* \"Identity.sol\":1870:1973  function setIPFSHash(string memory _ipfs_hash) onlyOwner public {... */\n      pop\n      jump\t// out\n        /* \"Identity.sol\":1771:1865  function setRecovery(address _recovery) onlyOwner public {... */\n    tag_27:\n        /* \"Identity.sol\":1505:1510  owner */\n      0x00\n      dup1\n      sload\n      swap1\n      0x0100\n      exp\n      swap1\n      div\n      0xffffffffffffffffffffffffffffffffffffffff\n      and\n        /* \"Identity.sol\":1491:1510  msg.sender == owner */\n      0xffffffffffffffffffffffffffffffffffffffff\n      and\n        /* \"Identity.sol\":1491:1501  msg.sender */\n      caller\n        /* \"Identity.sol\":1491:1510  msg.sender == owner */\n      0xffffffffffffffffffffffffffffffffffffffff\n      and\n      eq\n        /* \"Identity.sol\":1487:1525  if (msg.sender == owner)... */\n      iszero\n      tag_58\n      jumpi\n        /* \"Identity.sol\":1849:1858  _recovery */\n      dup1\n        /* \"Identity.sol\":1838:1846  recovery */\n      0x02\n      0x00\n        /* \"Identity.sol\":1838:1858  recovery = _recovery */\n      0x0100\n      exp\n      dup2\n      sload\n      dup2\n      0xffffffffffffffffffffffffffffffffffffffff\n      mul\n      not\n      and\n      swap1\n      dup4\n      0xffffffffffffffffffffffffffffffffffffffff\n      and\n      mul\n      or\n      swap1\n      sstore\n      pop\n        /* \"Identity.sol\":1487:1525  if (msg.sender == owner)... */\n    tag_58:\n        /* \"Identity.sol\":1771:1865  function setRecovery(address _recovery) onlyOwner public {... */\n      pop\n      jump\t// out\n        /* \"Identity.sol\":2423:2633  function getDetails() public view returns ... */\n    tag_29:\n        /* \"Identity.sol\":2479:2493  address _owner */\n      0x00\n        /* \"Identity.sol\":2495:2519  string memory _ipfs_hash */\n      0x60\n        /* \"Identity.sol\":2521:2538  address _recovery */\n      0x00\n        /* \"Identity.sol\":2559:2564  owner */\n      dup1\n      0x00\n      swap1\n      sload\n      swap1\n      0x0100\n      exp\n      swap1\n      div\n      0xffffffffffffffffffffffffffffffffffffffff\n      and\n        /* \"Identity.sol\":2550:2564  _owner = owner */\n      swap3\n      pop\n        /* \"Identity.sol\":2587:2596  ipfs_hash */\n      0x01\n        /* \"Identity.sol\":2574:2596  _ipfs_hash = ipfs_hash */\n      dup1\n      sload\n      tag_61\n      swap1\n      tag_62\n      jump\t// in\n    tag_61:\n      dup1\n      0x1f\n      add\n      0x20\n      dup1\n      swap2\n      div\n      mul\n      0x20\n      add\n      mload(0x40)\n      swap1\n      dup2\n      add\n      0x40\n      mstore\n      dup1\n      swap3\n      swap2\n      swap1\n      dup2\n      dup2\n      mstore\n      0x20\n      add\n      dup3\n      dup1\n      sload\n      tag_63\n      swap1\n      tag_62\n      jump\t// in\n    tag_63:\n      dup1\n      iszero\n      tag_64\n      jumpi\n      dup1\n      0x1f\n      lt\n      tag_65\n      jumpi\n      0x0100\n      dup1\n      dup4\n      sload\n      div\n      mul\n      dup4\n      mstore\n      swap2\n      0x20\n      add\n      swap2\n      jump(tag_64)\n    tag_65:\n      dup3\n      add\n      swap2\n      swap1\n      0x00\n      mstore\n      keccak256(0x00, 0x20)\n      swap1\n    tag_66:\n      dup2\n      sload\n      dup2\n      mstore\n      swap1\n      0x01\n      add\n      swap1\n      0x20\n      add\n      dup1\n      dup4\n      gt\n      tag_66\n      jumpi\n      dup3\n      swap1\n      sub\n      0x1f\n      and\n      dup3\n      add\n      swap2\n    tag_64:\n      pop\n      pop\n      pop\n      pop\n      pop\n      swap2\n      pop\n        /* \"Identity.sol\":2618:2626  recovery */\n      0x02\n      0x00\n      swap1\n      sload\n      swap1\n      0x0100\n      exp\n      swap1\n      div\n      0xffffffffffffffffffffffffffffffffffffffff\n      and\n        /* \"Identity.sol\":2606:2626  _recovery = recovery */\n      swap1\n      pop\n        /* \"Identity.sol\":2423:2633  function getDetails() public view returns ... */\n      swap1\n      swap2\n      swap3\n      jump\t// out\n    tag_56:\n      dup3\n      dup1\n      sload\n      tag_67\n      swap1\n      tag_62\n      jump\t// in\n    tag_67:\n      swap1\n      0x00\n      mstore\n      keccak256(0x00, 0x20)\n      swap1\n      0x1f\n      add\n      0x20\n      swap1\n      div\n      dup2\n      add\n      swap3\n      dup3\n      tag_69\n      jumpi\n      0x00\n      dup6\n      sstore\n      jump(tag_68)\n    tag_69:\n      dup3\n      0x1f\n      lt\n      tag_70\n      jumpi\n      dup1\n      mload\n      not(0xff)\n      and\n      dup4\n      dup1\n      add\n      or\n      dup6\n      sstore\n      jump(tag_68)\n    tag_70:\n      dup3\n      dup1\n      add\n      0x01\n      add\n      dup6\n      sstore\n      dup3\n      iszero\n      tag_68\n      jumpi\n      swap2\n      dup3\n      add\n    tag_71:\n      dup3\n      dup2\n      gt\n      iszero\n      tag_72\n      jumpi\n      dup3\n      mload\n      dup3\n      sstore\n      swap2\n      0x20\n      add\n      swap2\n      swap1\n      0x01\n      add\n      swap1\n      jump(tag_71)\n    tag_72:\n    tag_68:\n      pop\n      swap1\n      pop\n      tag_73\n      swap2\n      swap1\n      tag_74\n      jump\t// in\n    tag_73:\n      pop\n      swap1\n      jump\t// out\n    tag_74:\n    tag_75:\n      dup1\n      dup3\n      gt\n      iszero\n      tag_76\n      jumpi\n      0x00\n      dup2\n      0x00\n      swap1\n      sstore\n      pop\n      0x01\n      add\n      jump(tag_75)\n    tag_76:\n      pop\n      swap1\n      jump\t// out\n        /* \"#utility.yul\":7:82   */\n    tag_77:\n        /* \"#utility.yul\":40:46   */\n      0x00\n        /* \"#utility.yul\":73:75   */\n      0x40\n        /* \"#utility.yul\":67:76   */\n      mload\n        /* \"#utility.yul\":57:76   */\n      swap1\n      pop\n        /* \"#utility.yul\":7:82   */\n      swap1\n      jump\t// out\n        /* \"#utility.yul\":88:205   */\n    tag_78:\n        /* \"#utility.yul\":197:198   */\n      0x00\n        /* \"#utility.yul\":194:195   */\n      dup1\n        /* \"#utility.yul\":187:199   */\n      revert\n        /* \"#utility.yul\":211:328   */\n    tag_79:\n        /* \"#utility.yul\":320:321   */\n      0x00\n        /* \"#utility.yul\":317:318   */\n      dup1\n        /* \"#utility.yul\":310:322   */\n      revert\n        /* \"#utility.yul\":334:460   */\n    tag_80:\n        /* \"#utility.yul\":371:378   */\n      0x00\n        /* \"#utility.yul\":411:453   */\n      0xffffffffffffffffffffffffffffffffffffffff\n        /* \"#utility.yul\":404:409   */\n      dup3\n        /* \"#utility.yul\":400:454   */\n      and\n        /* \"#utility.yul\":389:454   */\n      swap1\n      pop\n        /* \"#utility.yul\":334:460   */\n      swap2\n      swap1\n      pop\n      jump\t// out\n        /* \"#utility.yul\":466:562   */\n    tag_81:\n        /* \"#utility.yul\":503:510   */\n      0x00\n        /* \"#utility.yul\":532:556   */\n      tag_117\n        /* \"#utility.yul\":550:555   */\n      dup3\n        /* \"#utility.yul\":532:556   */\n      tag_80\n      jump\t// in\n    tag_117:\n        /* \"#utility.yul\":521:556   */\n      swap1\n      pop\n        /* \"#utility.yul\":466:562   */\n      swap2\n      swap1\n      pop\n      jump\t// out\n        /* \"#utility.yul\":568:690   */\n    tag_82:\n        /* \"#utility.yul\":641:665   */\n      tag_119\n        /* \"#utility.yul\":659:664   */\n      dup2\n        /* \"#utility.yul\":641:665   */\n      tag_81\n      jump\t// in\n    tag_119:\n        /* \"#utility.yul\":634:639   */\n      dup2\n        /* \"#utility.yul\":631:666   */\n      eq\n        /* \"#utility.yul\":621:684   */\n      tag_120\n      jumpi\n        /* \"#utility.yul\":680:681   */\n      0x00\n        /* \"#utility.yul\":677:678   */\n      dup1\n        /* \"#utility.yul\":670:682   */\n      revert\n        /* \"#utility.yul\":621:684   */\n    tag_120:\n        /* \"#utility.yul\":568:690   */\n      pop\n      jump\t// out\n        /* \"#utility.yul\":696:835   */\n    tag_83:\n        /* \"#utility.yul\":742:747   */\n      0x00\n        /* \"#utility.yul\":780:786   */\n      dup2\n        /* \"#utility.yul\":767:787   */\n      calldataload\n        /* \"#utility.yul\":758:787   */\n      swap1\n      pop\n        /* \"#utility.yul\":796:829   */\n      tag_122\n        /* \"#utility.yul\":823:828   */\n      dup2\n        /* \"#utility.yul\":796:829   */\n      tag_82\n      jump\t// in\n    tag_122:\n        /* \"#utility.yul\":696:835   */\n      swap3\n      swap2\n      pop\n      pop\n      jump\t// out\n        /* \"#utility.yul\":841:1315   */\n    tag_11:\n        /* \"#utility.yul\":909:915   */\n      0x00\n        /* \"#utility.yul\":917:923   */\n      dup1\n        /* \"#utility.yul\":966:968   */\n      0x40\n        /* \"#utility.yul\":954:963   */\n      dup4\n        /* \"#utility.yul\":945:952   */\n      dup6\n        /* \"#utility.yul\":941:964   */\n      sub\n        /* \"#utility.yul\":937:969   */\n      slt\n        /* \"#utility.yul\":934:1053   */\n      iszero\n      tag_124\n      jumpi\n        /* \"#utility.yul\":972:1051   */\n      tag_125\n      tag_78\n      jump\t// in\n    tag_125:\n        /* \"#utility.yul\":934:1053   */\n    tag_124:\n        /* \"#utility.yul\":1092:1093   */\n      0x00\n        /* \"#utility.yul\":1117:1170   */\n      tag_126\n        /* \"#utility.yul\":1162:1169   */\n      dup6\n        /* \"#utility.yul\":1153:1159   */\n      dup3\n        /* \"#utility.yul\":1142:1151   */\n      dup7\n        /* \"#utility.yul\":1138:1160   */\n      add\n        /* \"#utility.yul\":1117:1170   */\n      tag_83\n      jump\t// in\n    tag_126:\n        /* \"#utility.yul\":1107:1170   */\n      swap3\n      pop\n        /* \"#utility.yul\":1063:1180   */\n      pop\n        /* \"#utility.yul\":1219:1221   */\n      0x20\n        /* \"#utility.yul\":1245:1298   */\n      tag_127\n        /* \"#utility.yul\":1290:1297   */\n      dup6\n        /* \"#utility.yul\":1281:1287   */\n      dup3\n        /* \"#utility.yul\":1270:1279   */\n      dup7\n        /* \"#utility.yul\":1266:1288   */\n      add\n        /* \"#utility.yul\":1245:1298   */\n      tag_83\n      jump\t// in\n    tag_127:\n        /* \"#utility.yul\":1235:1298   */\n      swap2\n      pop\n        /* \"#utility.yul\":1190:1308   */\n      pop\n        /* \"#utility.yul\":841:1315   */\n      swap3\n      pop\n      swap3\n      swap1\n      pop\n      jump\t// out\n        /* \"#utility.yul\":1321:1438   */\n    tag_84:\n        /* \"#utility.yul\":1430:1431   */\n      0x00\n        /* \"#utility.yul\":1427:1428   */\n      dup1\n        /* \"#utility.yul\":1420:1432   */\n      revert\n        /* \"#utility.yul\":1444:1546   */\n    tag_85:\n        /* \"#utility.yul\":1485:1491   */\n      0x00\n        /* \"#utility.yul\":1536:1538   */\n      0x1f\n        /* \"#utility.yul\":1532:1539   */\n      not\n        /* \"#utility.yul\":1527:1529   */\n      0x1f\n        /* \"#utility.yul\":1520:1525   */\n      dup4\n        /* \"#utility.yul\":1516:1530   */\n      add\n        /* \"#utility.yul\":1512:1540   */\n      and\n        /* \"#utility.yul\":1502:1540   */\n      swap1\n      pop\n        /* \"#utility.yul\":1444:1546   */\n      swap2\n      swap1\n      pop\n      jump\t// out\n        /* \"#utility.yul\":1552:1732   */\n    tag_86:\n        /* \"#utility.yul\":1600:1677   */\n      0x4e487b7100000000000000000000000000000000000000000000000000000000\n        /* \"#utility.yul\":1597:1598   */\n      0x00\n        /* \"#utility.yul\":1590:1678   */\n      mstore\n        /* \"#utility.yul\":1697:1701   */\n      0x41\n        /* \"#utility.yul\":1694:1695   */\n      0x04\n        /* \"#utility.yul\":1687:1702   */\n      mstore\n        /* \"#utility.yul\":1721:1725   */\n      0x24\n        /* \"#utility.yul\":1718:1719   */\n      0x00\n        /* \"#utility.yul\":1711:1726   */\n      revert\n        /* \"#utility.yul\":1738:2019   */\n    tag_87:\n        /* \"#utility.yul\":1821:1848   */\n      tag_132\n        /* \"#utility.yul\":1843:1847   */\n      dup3\n        /* \"#utility.yul\":1821:1848   */\n      tag_85\n      jump\t// in\n    tag_132:\n        /* \"#utility.yul\":1813:1819   */\n      dup2\n        /* \"#utility.yul\":1809:1849   */\n      add\n        /* \"#utility.yul\":1951:1957   */\n      dup2\n        /* \"#utility.yul\":1939:1949   */\n      dup2\n        /* \"#utility.yul\":1936:1958   */\n      lt\n        /* \"#utility.yul\":1915:1933   */\n      0xffffffffffffffff\n        /* \"#utility.yul\":1903:1913   */\n      dup3\n        /* \"#utility.yul\":1900:1934   */\n      gt\n        /* \"#utility.yul\":1897:1959   */\n      or\n        /* \"#utility.yul\":1894:1982   */\n      iszero\n      tag_133\n      jumpi\n        /* \"#utility.yul\":1962:1980   */\n      tag_134\n      tag_86\n      jump\t// in\n    tag_134:\n        /* \"#utility.yul\":1894:1982   */\n    tag_133:\n        /* \"#utility.yul\":2002:2012   */\n      dup1\n        /* \"#utility.yul\":1998:2000   */\n      0x40\n        /* \"#utility.yul\":1991:2013   */\n      mstore\n        /* \"#utility.yul\":1781:2019   */\n      pop\n        /* \"#utility.yul\":1738:2019   */\n      pop\n      pop\n      jump\t// out\n        /* \"#utility.yul\":2025:2154   */\n    tag_88:\n        /* \"#utility.yul\":2059:2065   */\n      0x00\n        /* \"#utility.yul\":2086:2106   */\n      tag_136\n      tag_77\n      jump\t// in\n    tag_136:\n        /* \"#utility.yul\":2076:2106   */\n      swap1\n      pop\n        /* \"#utility.yul\":2115:2148   */\n      tag_137\n        /* \"#utility.yul\":2143:2147   */\n      dup3\n        /* \"#utility.yul\":2135:2141   */\n      dup3\n        /* \"#utility.yul\":2115:2148   */\n      tag_87\n      jump\t// in\n    tag_137:\n        /* \"#utility.yul\":2025:2154   */\n      swap2\n      swap1\n      pop\n      jump\t// out\n        /* \"#utility.yul\":2160:2471   */\n    tag_89:\n        /* \"#utility.yul\":2237:2241   */\n      0x00\n        /* \"#utility.yul\":2327:2345   */\n      0xffffffffffffffff\n        /* \"#utility.yul\":2319:2325   */\n      dup3\n        /* \"#utility.yul\":2316:2346   */\n      gt\n        /* \"#utility.yul\":2313:2369   */\n      iszero\n      tag_139\n      jumpi\n        /* \"#utility.yul\":2349:2367   */\n      tag_140\n      tag_86\n      jump\t// in\n    tag_140:\n        /* \"#utility.yul\":2313:2369   */\n    tag_139:\n        /* \"#utility.yul\":2399:2403   */\n      0x20\n        /* \"#utility.yul\":2391:2397   */\n      dup3\n        /* \"#utility.yul\":2387:2404   */\n      mul\n        /* \"#utility.yul\":2379:2404   */\n      swap1\n      pop\n        /* \"#utility.yul\":2459:2463   */\n      0x20\n        /* \"#utility.yul\":2453:2457   */\n      dup2\n        /* \"#utility.yul\":2449:2464   */\n      add\n        /* \"#utility.yul\":2441:2464   */\n      swap1\n      pop\n        /* \"#utility.yul\":2160:2471   */\n      swap2\n      swap1\n      pop\n      jump\t// out\n        /* \"#utility.yul\":2477:2594   */\n    tag_90:\n        /* \"#utility.yul\":2586:2587   */\n      0x00\n        /* \"#utility.yul\":2583:2584   */\n      dup1\n        /* \"#utility.yul\":2576:2588   */\n      revert\n        /* \"#utility.yul\":2617:3327   */\n    tag_91:\n        /* \"#utility.yul\":2713:2718   */\n      0x00\n        /* \"#utility.yul\":2738:2819   */\n      tag_143\n        /* \"#utility.yul\":2754:2818   */\n      tag_144\n        /* \"#utility.yul\":2811:2817   */\n      dup5\n        /* \"#utility.yul\":2754:2818   */\n      tag_89\n      jump\t// in\n    tag_144:\n        /* \"#utility.yul\":2738:2819   */\n      tag_88\n      jump\t// in\n    tag_143:\n        /* \"#utility.yul\":2729:2819   */\n      swap1\n      pop\n        /* \"#utility.yul\":2839:2844   */\n      dup1\n        /* \"#utility.yul\":2868:2874   */\n      dup4\n        /* \"#utility.yul\":2861:2866   */\n      dup3\n        /* \"#utility.yul\":2854:2875   */\n      mstore\n        /* \"#utility.yul\":2902:2906   */\n      0x20\n        /* \"#utility.yul\":2895:2900   */\n      dup3\n        /* \"#utility.yul\":2891:2907   */\n      add\n        /* \"#utility.yul\":2884:2907   */\n      swap1\n      pop\n        /* \"#utility.yul\":2955:2959   */\n      0x20\n        /* \"#utility.yul\":2947:2953   */\n      dup5\n        /* \"#utility.yul\":2943:2960   */\n      mul\n        /* \"#utility.yul\":2935:2941   */\n      dup4\n        /* \"#utility.yul\":2931:2961   */\n      add\n        /* \"#utility.yul\":2984:2987   */\n      dup6\n        /* \"#utility.yul\":2976:2982   */\n      dup2\n        /* \"#utility.yul\":2973:2988   */\n      gt\n        /* \"#utility.yul\":2970:3092   */\n      iszero\n      tag_145\n      jumpi\n        /* \"#utility.yul\":3003:3082   */\n      tag_146\n      tag_90\n      jump\t// in\n    tag_146:\n        /* \"#utility.yul\":2970:3092   */\n    tag_145:\n        /* \"#utility.yul\":3118:3124   */\n      dup4\n        /* \"#utility.yul\":3101:3321   */\n    tag_147:\n        /* \"#utility.yul\":3135:3141   */\n      dup2\n        /* \"#utility.yul\":3130:3133   */\n      dup2\n        /* \"#utility.yul\":3127:3142   */\n      lt\n        /* \"#utility.yul\":3101:3321   */\n      iszero\n      tag_149\n      jumpi\n        /* \"#utility.yul\":3210:3213   */\n      dup1\n        /* \"#utility.yul\":3239:3276   */\n      tag_150\n        /* \"#utility.yul\":3272:3275   */\n      dup9\n        /* \"#utility.yul\":3260:3270   */\n      dup3\n        /* \"#utility.yul\":3239:3276   */\n      tag_83\n      jump\t// in\n    tag_150:\n        /* \"#utility.yul\":3234:3237   */\n      dup5\n        /* \"#utility.yul\":3227:3277   */\n      mstore\n        /* \"#utility.yul\":3306:3310   */\n      0x20\n        /* \"#utility.yul\":3301:3304   */\n      dup5\n        /* \"#utility.yul\":3297:3311   */\n      add\n        /* \"#utility.yul\":3290:3311   */\n      swap4\n      pop\n        /* \"#utility.yul\":3177:3321   */\n      pop\n        /* \"#utility.yul\":3161:3165   */\n      0x20\n        /* \"#utility.yul\":3156:3159   */\n      dup2\n        /* \"#utility.yul\":3152:3166   */\n      add\n        /* \"#utility.yul\":3145:3166   */\n      swap1\n      pop\n        /* \"#utility.yul\":3101:3321   */\n      jump(tag_147)\n    tag_149:\n        /* \"#utility.yul\":3105:3126   */\n      pop\n        /* \"#utility.yul\":2719:3327   */\n      pop\n      pop\n        /* \"#utility.yul\":2617:3327   */\n      swap4\n      swap3\n      pop\n      pop\n      pop\n      jump\t// out\n        /* \"#utility.yul\":3350:3720   */\n    tag_92:\n        /* \"#utility.yul\":3421:3426   */\n      0x00\n        /* \"#utility.yul\":3470:3473   */\n      dup3\n        /* \"#utility.yul\":3463:3467   */\n      0x1f\n        /* \"#utility.yul\":3455:3461   */\n      dup4\n        /* \"#utility.yul\":3451:3468   */\n      add\n        /* \"#utility.yul\":3447:3474   */\n      slt\n        /* \"#utility.yul\":3437:3559   */\n      tag_152\n      jumpi\n        /* \"#utility.yul\":3478:3557   */\n      tag_153\n      tag_84\n      jump\t// in\n    tag_153:\n        /* \"#utility.yul\":3437:3559   */\n    tag_152:\n        /* \"#utility.yul\":3595:3601   */\n      dup2\n        /* \"#utility.yul\":3582:3602   */\n      calldataload\n        /* \"#utility.yul\":3620:3714   */\n      tag_154\n        /* \"#utility.yul\":3710:3713   */\n      dup5\n        /* \"#utility.yul\":3702:3708   */\n      dup3\n        /* \"#utility.yul\":3695:3699   */\n      0x20\n        /* \"#utility.yul\":3687:3693   */\n      dup7\n        /* \"#utility.yul\":3683:3700   */\n      add\n        /* \"#utility.yul\":3620:3714   */\n      tag_91\n      jump\t// in\n    tag_154:\n        /* \"#utility.yul\":3611:3714   */\n      swap2\n      pop\n        /* \"#utility.yul\":3427:3720   */\n      pop\n        /* \"#utility.yul\":3350:3720   */\n      swap3\n      swap2\n      pop\n      pop\n      jump\t// out\n        /* \"#utility.yul\":3726:4265   */\n    tag_15:\n        /* \"#utility.yul\":3810:3816   */\n      0x00\n        /* \"#utility.yul\":3859:3861   */\n      0x20\n        /* \"#utility.yul\":3847:3856   */\n      dup3\n        /* \"#utility.yul\":3838:3845   */\n      dup5\n        /* \"#utility.yul\":3834:3857   */\n      sub\n        /* \"#utility.yul\":3830:3862   */\n      slt\n        /* \"#utility.yul\":3827:3946   */\n      iszero\n      tag_156\n      jumpi\n        /* \"#utility.yul\":3865:3944   */\n      tag_157\n      tag_78\n      jump\t// in\n    tag_157:\n        /* \"#utility.yul\":3827:3946   */\n    tag_156:\n        /* \"#utility.yul\":4013:4014   */\n      0x00\n        /* \"#utility.yul\":4002:4011   */\n      dup3\n        /* \"#utility.yul\":3998:4015   */\n      add\n        /* \"#utility.yul\":3985:4016   */\n      calldataload\n        /* \"#utility.yul\":4043:4061   */\n      0xffffffffffffffff\n        /* \"#utility.yul\":4035:4041   */\n      dup2\n        /* \"#utility.yul\":4032:4062   */\n      gt\n        /* \"#utility.yul\":4029:4146   */\n      iszero\n      tag_158\n      jumpi\n        /* \"#utility.yul\":4065:4144   */\n      tag_159\n      tag_79\n      jump\t// in\n    tag_159:\n        /* \"#utility.yul\":4029:4146   */\n    tag_158:\n        /* \"#utility.yul\":4170:4248   */\n      tag_160\n        /* \"#utility.yul\":4240:4247   */\n      dup5\n        /* \"#utility.yul\":4231:4237   */\n      dup3\n        /* \"#utility.yul\":4220:4229   */\n      dup6\n        /* \"#utility.yul\":4216:4238   */\n      add\n        /* \"#utility.yul\":4170:4248   */\n      tag_92\n      jump\t// in\n    tag_160:\n        /* \"#utility.yul\":4160:4248   */\n      swap2\n      pop\n        /* \"#utility.yul\":3956:4258   */\n      pop\n        /* \"#utility.yul\":3726:4265   */\n      swap3\n      swap2\n      pop\n      pop\n      jump\t// out\n        /* \"#utility.yul\":4271:4600   */\n    tag_19:\n        /* \"#utility.yul\":4330:4336   */\n      0x00\n        /* \"#utility.yul\":4379:4381   */\n      0x20\n        /* \"#utility.yul\":4367:4376   */\n      dup3\n        /* \"#utility.yul\":4358:4365   */\n      dup5\n        /* \"#utility.yul\":4354:4377   */\n      sub\n        /* \"#utility.yul\":4350:4382   */\n      slt\n        /* \"#utility.yul\":4347:4466   */\n      iszero\n      tag_162\n      jumpi\n        /* \"#utility.yul\":4385:4464   */\n      tag_163\n      tag_78\n      jump\t// in\n    tag_163:\n        /* \"#utility.yul\":4347:4466   */\n    tag_162:\n        /* \"#utility.yul\":4505:4506   */\n      0x00\n        /* \"#utility.yul\":4530:4583   */\n      tag_164\n        /* \"#utility.yul\":4575:4582   */\n      dup5\n        /* \"#utility.yul\":4566:4572   */\n      dup3\n        /* \"#utility.yul\":4555:4564   */\n      dup6\n        /* \"#utility.yul\":4551:4573   */\n      add\n        /* \"#utility.yul\":4530:4583   */\n      tag_83\n      jump\t// in\n    tag_164:\n        /* \"#utility.yul\":4520:4583   */\n      swap2\n      pop\n        /* \"#utility.yul\":4476:4593   */\n      pop\n        /* \"#utility.yul\":4271:4600   */\n      swap3\n      swap2\n      pop\n      pop\n      jump\t// out\n        /* \"#utility.yul\":4606:4723   */\n    tag_93:\n        /* \"#utility.yul\":4715:4716   */\n      0x00\n        /* \"#utility.yul\":4712:4713   */\n      dup1\n        /* \"#utility.yul\":4705:4717   */\n      revert\n        /* \"#utility.yul\":4729:5037   */\n    tag_94:\n        /* \"#utility.yul\":4791:4795   */\n      0x00\n        /* \"#utility.yul\":4881:4899   */\n      0xffffffffffffffff\n        /* \"#utility.yul\":4873:4879   */\n      dup3\n        /* \"#utility.yul\":4870:4900   */\n      gt\n        /* \"#utility.yul\":4867:4923   */\n      iszero\n      tag_167\n      jumpi\n        /* \"#utility.yul\":4903:4921   */\n      tag_168\n      tag_86\n      jump\t// in\n    tag_168:\n        /* \"#utility.yul\":4867:4923   */\n    tag_167:\n        /* \"#utility.yul\":4941:4970   */\n      tag_169\n        /* \"#utility.yul\":4963:4969   */\n      dup3\n        /* \"#utility.yul\":4941:4970   */\n      tag_85\n      jump\t// in\n    tag_169:\n        /* \"#utility.yul\":4933:4970   */\n      swap1\n      pop\n        /* \"#utility.yul\":5025:5029   */\n      0x20\n        /* \"#utility.yul\":5019:5023   */\n      dup2\n        /* \"#utility.yul\":5015:5030   */\n      add\n        /* \"#utility.yul\":5007:5030   */\n      swap1\n      pop\n        /* \"#utility.yul\":4729:5037   */\n      swap2\n      swap1\n      pop\n      jump\t// out\n        /* \"#utility.yul\":5043:5197   */\n    tag_95:\n        /* \"#utility.yul\":5127:5133   */\n      dup3\n        /* \"#utility.yul\":5122:5125   */\n      dup2\n        /* \"#utility.yul\":5117:5120   */\n      dup4\n        /* \"#utility.yul\":5104:5134   */\n      calldatacopy\n        /* \"#utility.yul\":5189:5190   */\n      0x00\n        /* \"#utility.yul\":5180:5186   */\n      dup4\n        /* \"#utility.yul\":5175:5178   */\n      dup4\n        /* \"#utility.yul\":5171:5187   */\n      add\n        /* \"#utility.yul\":5164:5191   */\n      mstore\n        /* \"#utility.yul\":5043:5197   */\n      pop\n      pop\n      pop\n      jump\t// out\n        /* \"#utility.yul\":5203:5615   */\n    tag_96:\n        /* \"#utility.yul\":5281:5286   */\n      0x00\n        /* \"#utility.yul\":5306:5372   */\n      tag_172\n        /* \"#utility.yul\":5322:5371   */\n      tag_173\n        /* \"#utility.yul\":5364:5370   */\n      dup5\n        /* \"#utility.yul\":5322:5371   */\n      tag_94\n      jump\t// in\n    tag_173:\n        /* \"#utility.yul\":5306:5372   */\n      tag_88\n      jump\t// in\n    tag_172:\n        /* \"#utility.yul\":5297:5372   */\n      swap1\n      pop\n        /* \"#utility.yul\":5395:5401   */\n      dup3\n        /* \"#utility.yul\":5388:5393   */\n      dup2\n        /* \"#utility.yul\":5381:5402   */\n      mstore\n        /* \"#utility.yul\":5433:5437   */\n      0x20\n        /* \"#utility.yul\":5426:5431   */\n      dup2\n        /* \"#utility.yul\":5422:5438   */\n      add\n        /* \"#utility.yul\":5471:5474   */\n      dup5\n        /* \"#utility.yul\":5462:5468   */\n      dup5\n        /* \"#utility.yul\":5457:5460   */\n      dup5\n        /* \"#utility.yul\":5453:5469   */\n      add\n        /* \"#utility.yul\":5450:5475   */\n      gt\n        /* \"#utility.yul\":5447:5559   */\n      iszero\n      tag_174\n      jumpi\n        /* \"#utility.yul\":5478:5557   */\n      tag_175\n      tag_93\n      jump\t// in\n    tag_175:\n        /* \"#utility.yul\":5447:5559   */\n    tag_174:\n        /* \"#utility.yul\":5568:5609   */\n      tag_176\n        /* \"#utility.yul\":5602:5608   */\n      dup5\n        /* \"#utility.yul\":5597:5600   */\n      dup3\n        /* \"#utility.yul\":5592:5595   */\n      dup6\n        /* \"#utility.yul\":5568:5609   */\n      tag_95\n      jump\t// in\n    tag_176:\n        /* \"#utility.yul\":5287:5615   */\n      pop\n        /* \"#utility.yul\":5203:5615   */\n      swap4\n      swap3\n      pop\n      pop\n      pop\n      jump\t// out\n        /* \"#utility.yul\":5635:5975   */\n    tag_97:\n        /* \"#utility.yul\":5691:5696   */\n      0x00\n        /* \"#utility.yul\":5740:5743   */\n      dup3\n        /* \"#utility.yul\":5733:5737   */\n      0x1f\n        /* \"#utility.yul\":5725:5731   */\n      dup4\n        /* \"#utility.yul\":5721:5738   */\n      add\n        /* \"#utility.yul\":5717:5744   */\n      slt\n        /* \"#utility.yul\":5707:5829   */\n      tag_178\n      jumpi\n        /* \"#utility.yul\":5748:5827   */\n      tag_179\n      tag_84\n      jump\t// in\n    tag_179:\n        /* \"#utility.yul\":5707:5829   */\n    tag_178:\n        /* \"#utility.yul\":5865:5871   */\n      dup2\n        /* \"#utility.yul\":5852:5872   */\n      calldataload\n        /* \"#utility.yul\":5890:5969   */\n      tag_180\n        /* \"#utility.yul\":5965:5968   */\n      dup5\n        /* \"#utility.yul\":5957:5963   */\n      dup3\n        /* \"#utility.yul\":5950:5954   */\n      0x20\n        /* \"#utility.yul\":5942:5948   */\n      dup7\n        /* \"#utility.yul\":5938:5955   */\n      add\n        /* \"#utility.yul\":5890:5969   */\n      tag_96\n      jump\t// in\n    tag_180:\n        /* \"#utility.yul\":5881:5969   */\n      swap2\n      pop\n        /* \"#utility.yul\":5697:5975   */\n      pop\n        /* \"#utility.yul\":5635:5975   */\n      swap3\n      swap2\n      pop\n      pop\n      jump\t// out\n        /* \"#utility.yul\":5981:6490   */\n    tag_23:\n        /* \"#utility.yul\":6050:6056   */\n      0x00\n        /* \"#utility.yul\":6099:6101   */\n      0x20\n        /* \"#utility.yul\":6087:6096   */\n      dup3\n        /* \"#utility.yul\":6078:6085   */\n      dup5\n        /* \"#utility.yul\":6074:6097   */\n      sub\n        /* \"#utility.yul\":6070:6102   */\n      slt\n        /* \"#utility.yul\":6067:6186   */\n      iszero\n      tag_182\n      jumpi\n        /* \"#utility.yul\":6105:6184   */\n      tag_183\n      tag_78\n      jump\t// in\n    tag_183:\n        /* \"#utility.yul\":6067:6186   */\n    tag_182:\n        /* \"#utility.yul\":6253:6254   */\n      0x00\n        /* \"#utility.yul\":6242:6251   */\n      dup3\n        /* \"#utility.yul\":6238:6255   */\n      add\n        /* \"#utility.yul\":6225:6256   */\n      calldataload\n        /* \"#utility.yul\":6283:6301   */\n      0xffffffffffffffff\n        /* \"#utility.yul\":6275:6281   */\n      dup2\n        /* \"#utility.yul\":6272:6302   */\n      gt\n        /* \"#utility.yul\":6269:6386   */\n      iszero\n      tag_184\n      jumpi\n        /* \"#utility.yul\":6305:6384   */\n      tag_185\n      tag_79\n      jump\t// in\n    tag_185:\n        /* \"#utility.yul\":6269:6386   */\n    tag_184:\n        /* \"#utility.yul\":6410:6473   */\n      tag_186\n        /* \"#utility.yul\":6465:6472   */\n      dup5\n        /* \"#utility.yul\":6456:6462   */\n      dup3\n        /* \"#utility.yul\":6445:6454   */\n      dup6\n        /* \"#utility.yul\":6441:6463   */\n      add\n        /* \"#utility.yul\":6410:6473   */\n      tag_97\n      jump\t// in\n    tag_186:\n        /* \"#utility.yul\":6400:6473   */\n      swap2\n      pop\n        /* \"#utility.yul\":6196:6483   */\n      pop\n        /* \"#utility.yul\":5981:6490   */\n      swap3\n      swap2\n      pop\n      pop\n      jump\t// out\n        /* \"#utility.yul\":6496:6614   */\n    tag_98:\n        /* \"#utility.yul\":6583:6607   */\n      tag_188\n        /* \"#utility.yul\":6601:6606   */\n      dup2\n        /* \"#utility.yul\":6583:6607   */\n      tag_81\n      jump\t// in\n    tag_188:\n        /* \"#utility.yul\":6578:6581   */\n      dup3\n        /* \"#utility.yul\":6571:6608   */\n      mstore\n        /* \"#utility.yul\":6496:6614   */\n      pop\n      pop\n      jump\t// out\n        /* \"#utility.yul\":6620:6719   */\n    tag_99:\n        /* \"#utility.yul\":6672:6678   */\n      0x00\n        /* \"#utility.yul\":6706:6711   */\n      dup2\n        /* \"#utility.yul\":6700:6712   */\n      mload\n        /* \"#utility.yul\":6690:6712   */\n      swap1\n      pop\n        /* \"#utility.yul\":6620:6719   */\n      swap2\n      swap1\n      pop\n      jump\t// out\n        /* \"#utility.yul\":6725:6894   */\n    tag_100:\n        /* \"#utility.yul\":6809:6820   */\n      0x00\n        /* \"#utility.yul\":6843:6849   */\n      dup3\n        /* \"#utility.yul\":6838:6841   */\n      dup3\n        /* \"#utility.yul\":6831:6850   */\n      mstore\n        /* \"#utility.yul\":6883:6887   */\n      0x20\n        /* \"#utility.yul\":6878:6881   */\n      dup3\n        /* \"#utility.yul\":6874:6888   */\n      add\n        /* \"#utility.yul\":6859:6888   */\n      swap1\n      pop\n        /* \"#utility.yul\":6725:6894   */\n      swap3\n      swap2\n      pop\n      pop\n      jump\t// out\n        /* \"#utility.yul\":6900:7207   */\n    tag_101:\n        /* \"#utility.yul\":6968:6969   */\n      0x00\n        /* \"#utility.yul\":6978:7091   */\n    tag_192:\n        /* \"#utility.yul\":6992:6998   */\n      dup4\n        /* \"#utility.yul\":6989:6990   */\n      dup2\n        /* \"#utility.yul\":6986:6999   */\n      lt\n        /* \"#utility.yul\":6978:7091   */\n      iszero\n      tag_194\n      jumpi\n        /* \"#utility.yul\":7077:7078   */\n      dup1\n        /* \"#utility.yul\":7072:7075   */\n      dup3\n        /* \"#utility.yul\":7068:7079   */\n      add\n        /* \"#utility.yul\":7062:7080   */\n      mload\n        /* \"#utility.yul\":7058:7059   */\n      dup2\n        /* \"#utility.yul\":7053:7056   */\n      dup5\n        /* \"#utility.yul\":7049:7060   */\n      add\n        /* \"#utility.yul\":7042:7081   */\n      mstore\n        /* \"#utility.yul\":7014:7016   */\n      0x20\n        /* \"#utility.yul\":7011:7012   */\n      dup2\n        /* \"#utility.yul\":7007:7017   */\n      add\n        /* \"#utility.yul\":7002:7017   */\n      swap1\n      pop\n        /* \"#utility.yul\":6978:7091   */\n      jump(tag_192)\n    tag_194:\n        /* \"#utility.yul\":7109:7115   */\n      dup4\n        /* \"#utility.yul\":7106:7107   */\n      dup2\n        /* \"#utility.yul\":7103:7116   */\n      gt\n        /* \"#utility.yul\":7100:7201   */\n      iszero\n      tag_195\n      jumpi\n        /* \"#utility.yul\":7189:7190   */\n      0x00\n        /* \"#utility.yul\":7180:7186   */\n      dup5\n        /* \"#utility.yul\":7175:7178   */\n      dup5\n        /* \"#utility.yul\":7171:7187   */\n      add\n        /* \"#utility.yul\":7164:7191   */\n      mstore\n        /* \"#utility.yul\":7100:7201   */\n    tag_195:\n        /* \"#utility.yul\":6949:7207   */\n      pop\n        /* \"#utility.yul\":6900:7207   */\n      pop\n      pop\n      pop\n      jump\t// out\n        /* \"#utility.yul\":7213:7577   */\n    tag_102:\n        /* \"#utility.yul\":7301:7304   */\n      0x00\n        /* \"#utility.yul\":7329:7368   */\n      tag_197\n        /* \"#utility.yul\":7362:7367   */\n      dup3\n        /* \"#utility.yul\":7329:7368   */\n      tag_99\n      jump\t// in\n    tag_197:\n        /* \"#utility.yul\":7384:7455   */\n      tag_198\n        /* \"#utility.yul\":7448:7454   */\n      dup2\n        /* \"#utility.yul\":7443:7446   */\n      dup6\n        /* \"#utility.yul\":7384:7455   */\n      tag_100\n      jump\t// in\n    tag_198:\n        /* \"#utility.yul\":7377:7455   */\n      swap4\n      pop\n        /* \"#utility.yul\":7464:7516   */\n      tag_199\n        /* \"#utility.yul\":7509:7515   */\n      dup2\n        /* \"#utility.yul\":7504:7507   */\n      dup6\n        /* \"#utility.yul\":7497:7501   */\n      0x20\n        /* \"#utility.yul\":7490:7495   */\n      dup7\n        /* \"#utility.yul\":7486:7502   */\n      add\n        /* \"#utility.yul\":7464:7516   */\n      tag_101\n      jump\t// in\n    tag_199:\n        /* \"#utility.yul\":7541:7570   */\n      tag_200\n        /* \"#utility.yul\":7563:7569   */\n      dup2\n        /* \"#utility.yul\":7541:7570   */\n      tag_85\n      jump\t// in\n    tag_200:\n        /* \"#utility.yul\":7536:7539   */\n      dup5\n        /* \"#utility.yul\":7532:7571   */\n      add\n        /* \"#utility.yul\":7525:7571   */\n      swap2\n      pop\n        /* \"#utility.yul\":7305:7577   */\n      pop\n        /* \"#utility.yul\":7213:7577   */\n      swap3\n      swap2\n      pop\n      pop\n      jump\t// out\n        /* \"#utility.yul\":7583:8116   */\n    tag_31:\n        /* \"#utility.yul\":7752:7756   */\n      0x00\n        /* \"#utility.yul\":7790:7792   */\n      0x60\n        /* \"#utility.yul\":7779:7788   */\n      dup3\n        /* \"#utility.yul\":7775:7793   */\n      add\n        /* \"#utility.yul\":7767:7793   */\n      swap1\n      pop\n        /* \"#utility.yul\":7803:7874   */\n      tag_202\n        /* \"#utility.yul\":7871:7872   */\n      0x00\n        /* \"#utility.yul\":7860:7869   */\n      dup4\n        /* \"#utility.yul\":7856:7873   */\n      add\n        /* \"#utility.yul\":7847:7853   */\n      dup7\n        /* \"#utility.yul\":7803:7874   */\n      tag_98\n      jump\t// in\n    tag_202:\n        /* \"#utility.yul\":7921:7930   */\n      dup2\n        /* \"#utility.yul\":7915:7919   */\n      dup2\n        /* \"#utility.yul\":7911:7931   */\n      sub\n        /* \"#utility.yul\":7906:7908   */\n      0x20\n        /* \"#utility.yul\":7895:7904   */\n      dup4\n        /* \"#utility.yul\":7891:7909   */\n      add\n        /* \"#utility.yul\":7884:7932   */\n      mstore\n        /* \"#utility.yul\":7949:8027   */\n      tag_203\n        /* \"#utility.yul\":8022:8026   */\n      dup2\n        /* \"#utility.yul\":8013:8019   */\n      dup6\n        /* \"#utility.yul\":7949:8027   */\n      tag_102\n      jump\t// in\n    tag_203:\n        /* \"#utility.yul\":7941:8027   */\n      swap1\n      pop\n        /* \"#utility.yul\":8037:8109   */\n      tag_204\n        /* \"#utility.yul\":8105:8107   */\n      0x40\n        /* \"#utility.yul\":8094:8103   */\n      dup4\n        /* \"#utility.yul\":8090:8108   */\n      add\n        /* \"#utility.yul\":8081:8087   */\n      dup5\n        /* \"#utility.yul\":8037:8109   */\n      tag_98\n      jump\t// in\n    tag_204:\n        /* \"#utility.yul\":7583:8116   */\n      swap5\n      swap4\n      pop\n      pop\n      pop\n      pop\n      jump\t// out\n        /* \"#utility.yul\":8122:8344   */\n    tag_36:\n        /* \"#utility.yul\":8215:8219   */\n      0x00\n        /* \"#utility.yul\":8253:8255   */\n      0x20\n        /* \"#utility.yul\":8242:8251   */\n      dup3\n        /* \"#utility.yul\":8238:8256   */\n      add\n        /* \"#utility.yul\":8230:8256   */\n      swap1\n      pop\n        /* \"#utility.yul\":8266:8337   */\n      tag_206\n        /* \"#utility.yul\":8334:8335   */\n      0x00\n        /* \"#utility.yul\":8323:8332   */\n      dup4\n        /* \"#utility.yul\":8319:8336   */\n      add\n        /* \"#utility.yul\":8310:8316   */\n      dup5\n        /* \"#utility.yul\":8266:8337   */\n      tag_98\n      jump\t// in\n    tag_206:\n        /* \"#utility.yul\":8122:8344   */\n      swap3\n      swap2\n      pop\n      pop\n      jump\t// out\n        /* \"#utility.yul\":8350:8464   */\n    tag_103:\n        /* \"#utility.yul\":8417:8423   */\n      0x00\n        /* \"#utility.yul\":8451:8456   */\n      dup2\n        /* \"#utility.yul\":8445:8457   */\n      mload\n        /* \"#utility.yul\":8435:8457   */\n      swap1\n      pop\n        /* \"#utility.yul\":8350:8464   */\n      swap2\n      swap1\n      pop\n      jump\t// out\n        /* \"#utility.yul\":8470:8654   */\n    tag_104:\n        /* \"#utility.yul\":8569:8580   */\n      0x00\n        /* \"#utility.yul\":8603:8609   */\n      dup3\n        /* \"#utility.yul\":8598:8601   */\n      dup3\n        /* \"#utility.yul\":8591:8610   */\n      mstore\n        /* \"#utility.yul\":8643:8647   */\n      0x20\n        /* \"#utility.yul\":8638:8641   */\n      dup3\n        /* \"#utility.yul\":8634:8648   */\n      add\n        /* \"#utility.yul\":8619:8648   */\n      swap1\n      pop\n        /* \"#utility.yul\":8470:8654   */\n      swap3\n      swap2\n      pop\n      pop\n      jump\t// out\n        /* \"#utility.yul\":8660:8792   */\n    tag_105:\n        /* \"#utility.yul\":8727:8731   */\n      0x00\n        /* \"#utility.yul\":8750:8753   */\n      dup2\n        /* \"#utility.yul\":8742:8753   */\n      swap1\n      pop\n        /* \"#utility.yul\":8780:8784   */\n      0x20\n        /* \"#utility.yul\":8775:8778   */\n      dup3\n        /* \"#utility.yul\":8771:8785   */\n      add\n        /* \"#utility.yul\":8763:8785   */\n      swap1\n      pop\n        /* \"#utility.yul\":8660:8792   */\n      swap2\n      swap1\n      pop\n      jump\t// out\n        /* \"#utility.yul\":8798:8906   */\n    tag_106:\n        /* \"#utility.yul\":8875:8899   */\n      tag_211\n        /* \"#utility.yul\":8893:8898   */\n      dup2\n        /* \"#utility.yul\":8875:8899   */\n      tag_81\n      jump\t// in\n    tag_211:\n        /* \"#utility.yul\":8870:8873   */\n      dup3\n        /* \"#utility.yul\":8863:8900   */\n      mstore\n        /* \"#utility.yul\":8798:8906   */\n      pop\n      pop\n      jump\t// out\n        /* \"#utility.yul\":8912:9091   */\n    tag_107:\n        /* \"#utility.yul\":8981:8991   */\n      0x00\n        /* \"#utility.yul\":9002:9048   */\n      tag_213\n        /* \"#utility.yul\":9044:9047   */\n      dup4\n        /* \"#utility.yul\":9036:9042   */\n      dup4\n        /* \"#utility.yul\":9002:9048   */\n      tag_106\n      jump\t// in\n    tag_213:\n        /* \"#utility.yul\":9080:9084   */\n      0x20\n        /* \"#utility.yul\":9075:9078   */\n      dup4\n        /* \"#utility.yul\":9071:9085   */\n      add\n        /* \"#utility.yul\":9057:9085   */\n      swap1\n      pop\n        /* \"#utility.yul\":8912:9091   */\n      swap3\n      swap2\n      pop\n      pop\n      jump\t// out\n        /* \"#utility.yul\":9097:9210   */\n    tag_108:\n        /* \"#utility.yul\":9167:9171   */\n      0x00\n        /* \"#utility.yul\":9199:9203   */\n      0x20\n        /* \"#utility.yul\":9194:9197   */\n      dup3\n        /* \"#utility.yul\":9190:9204   */\n      add\n        /* \"#utility.yul\":9182:9204   */\n      swap1\n      pop\n        /* \"#utility.yul\":9097:9210   */\n      swap2\n      swap1\n      pop\n      jump\t// out\n        /* \"#utility.yul\":9246:9978   */\n    tag_109:\n        /* \"#utility.yul\":9365:9368   */\n      0x00\n        /* \"#utility.yul\":9394:9448   */\n      tag_216\n        /* \"#utility.yul\":9442:9447   */\n      dup3\n        /* \"#utility.yul\":9394:9448   */\n      tag_103\n      jump\t// in\n    tag_216:\n        /* \"#utility.yul\":9464:9550   */\n      tag_217\n        /* \"#utility.yul\":9543:9549   */\n      dup2\n        /* \"#utility.yul\":9538:9541   */\n      dup6\n        /* \"#utility.yul\":9464:9550   */\n      tag_104\n      jump\t// in\n    tag_217:\n        /* \"#utility.yul\":9457:9550   */\n      swap4\n      pop\n        /* \"#utility.yul\":9574:9630   */\n      tag_218\n        /* \"#utility.yul\":9624:9629   */\n      dup4\n        /* \"#utility.yul\":9574:9630   */\n      tag_105\n      jump\t// in\n    tag_218:\n        /* \"#utility.yul\":9653:9660   */\n      dup1\n        /* \"#utility.yul\":9684:9685   */\n      0x00\n        /* \"#utility.yul\":9669:9953   */\n    tag_219:\n        /* \"#utility.yul\":9694:9700   */\n      dup4\n        /* \"#utility.yul\":9691:9692   */\n      dup2\n        /* \"#utility.yul\":9688:9701   */\n      lt\n        /* \"#utility.yul\":9669:9953   */\n      iszero\n      tag_221\n      jumpi\n        /* \"#utility.yul\":9770:9776   */\n      dup2\n        /* \"#utility.yul\":9764:9777   */\n      mload\n        /* \"#utility.yul\":9797:9860   */\n      tag_222\n        /* \"#utility.yul\":9856:9859   */\n      dup9\n        /* \"#utility.yul\":9841:9854   */\n      dup3\n        /* \"#utility.yul\":9797:9860   */\n      tag_107\n      jump\t// in\n    tag_222:\n        /* \"#utility.yul\":9790:9860   */\n      swap8\n      pop\n        /* \"#utility.yul\":9883:9943   */\n      tag_223\n        /* \"#utility.yul\":9936:9942   */\n      dup4\n        /* \"#utility.yul\":9883:9943   */\n      tag_108\n      jump\t// in\n    tag_223:\n        /* \"#utility.yul\":9873:9943   */\n      swap3\n      pop\n        /* \"#utility.yul\":9729:9953   */\n      pop\n        /* \"#utility.yul\":9716:9717   */\n      0x01\n        /* \"#utility.yul\":9713:9714   */\n      dup2\n        /* \"#utility.yul\":9709:9718   */\n      add\n        /* \"#utility.yul\":9704:9718   */\n      swap1\n      pop\n        /* \"#utility.yul\":9669:9953   */\n      jump(tag_219)\n    tag_221:\n        /* \"#utility.yul\":9673:9687   */\n      pop\n        /* \"#utility.yul\":9969:9972   */\n      dup6\n        /* \"#utility.yul\":9962:9972   */\n      swap4\n      pop\n        /* \"#utility.yul\":9370:9978   */\n      pop\n      pop\n      pop\n        /* \"#utility.yul\":9246:9978   */\n      swap3\n      swap2\n      pop\n      pop\n      jump\t// out\n        /* \"#utility.yul\":9984:10357   */\n    tag_44:\n        /* \"#utility.yul\":10127:10131   */\n      0x00\n        /* \"#utility.yul\":10165:10167   */\n      0x20\n        /* \"#utility.yul\":10154:10163   */\n      dup3\n        /* \"#utility.yul\":10150:10168   */\n      add\n        /* \"#utility.yul\":10142:10168   */\n      swap1\n      pop\n        /* \"#utility.yul\":10214:10223   */\n      dup2\n        /* \"#utility.yul\":10208:10212   */\n      dup2\n        /* \"#utility.yul\":10204:10224   */\n      sub\n        /* \"#utility.yul\":10200:10201   */\n      0x00\n        /* \"#utility.yul\":10189:10198   */\n      dup4\n        /* \"#utility.yul\":10185:10202   */\n      add\n        /* \"#utility.yul\":10178:10225   */\n      mstore\n        /* \"#utility.yul\":10242:10350   */\n      tag_225\n        /* \"#utility.yul\":10345:10349   */\n      dup2\n        /* \"#utility.yul\":10336:10342   */\n      dup5\n        /* \"#utility.yul\":10242:10350   */\n      tag_109\n      jump\t// in\n    tag_225:\n        /* \"#utility.yul\":10234:10350   */\n      swap1\n      pop\n        /* \"#utility.yul\":9984:10357   */\n      swap3\n      swap2\n      pop\n      pop\n      jump\t// out\n        /* \"#utility.yul\":10363:10543   */\n    tag_110:\n        /* \"#utility.yul\":10411:10488   */\n      0x4e487b7100000000000000000000000000000000000000000000000000000000\n        /* \"#utility.yul\":10408:10409   */\n      0x00\n        /* \"#utility.yul\":10401:10489   */\n      mstore\n        /* \"#utility.yul\":10508:10512   */\n      0x22\n        /* \"#utility.yul\":10505:10506   */\n      0x04\n        /* \"#utility.yul\":10498:10513   */\n      mstore\n        /* \"#utility.yul\":10532:10536   */\n      0x24\n        /* \"#utility.yul\":10529:10530   */\n      0x00\n        /* \"#utility.yul\":10522:10537   */\n      revert\n        /* \"#utility.yul\":10549:10869   */\n    tag_62:\n        /* \"#utility.yul\":10593:10599   */\n      0x00\n        /* \"#utility.yul\":10630:10631   */\n      0x02\n        /* \"#utility.yul\":10624:10628   */\n      dup3\n        /* \"#utility.yul\":10620:10632   */\n      div\n        /* \"#utility.yul\":10610:10632   */\n      swap1\n      pop\n        /* \"#utility.yul\":10677:10678   */\n      0x01\n        /* \"#utility.yul\":10671:10675   */\n      dup3\n        /* \"#utility.yul\":10667:10679   */\n      and\n        /* \"#utility.yul\":10698:10716   */\n      dup1\n        /* \"#utility.yul\":10688:10769   */\n      tag_228\n      jumpi\n        /* \"#utility.yul\":10754:10758   */\n      0x7f\n        /* \"#utility.yul\":10746:10752   */\n      dup3\n        /* \"#utility.yul\":10742:10759   */\n      and\n        /* \"#utility.yul\":10732:10759   */\n      swap2\n      pop\n        /* \"#utility.yul\":10688:10769   */\n    tag_228:\n        /* \"#utility.yul\":10816:10818   */\n      0x20\n        /* \"#utility.yul\":10808:10814   */\n      dup3\n        /* \"#utility.yul\":10805:10819   */\n      lt\n        /* \"#utility.yul\":10785:10803   */\n      dup2\n        /* \"#utility.yul\":10782:10820   */\n      eq\n        /* \"#utility.yul\":10779:10863   */\n      iszero\n      tag_229\n      jumpi\n        /* \"#utility.yul\":10835:10853   */\n      tag_230\n      tag_110\n      jump\t// in\n    tag_230:\n        /* \"#utility.yul\":10779:10863   */\n    tag_229:\n        /* \"#utility.yul\":10600:10869   */\n      pop\n        /* \"#utility.yul\":10549:10869   */\n      swap2\n      swap1\n      pop\n      jump\t// out\n\n    auxdata: 0xa26469706673582212208a24b394a031b15ef5bf6c86b5ad7f62f76dd2560790841519d550cdc166301c64736f6c634300080b0033\n}\n\nsub_1: assembly {\n        /* \"Identity.sol\":57:1367  contract Recovery {... */\n      mstore(0x40, 0x80)\n        /* \"Identity.sol\":436:492  constructor(address _uuid) {... */\n      callvalue\n      dup1\n      iszero\n      tag_1\n      jumpi\n      0x00\n      dup1\n      revert\n    tag_1:\n      pop\n      mload(0x40)\n      sub(codesize, bytecodeSize)\n      dup1\n      bytecodeSize\n      dup4\n      codecopy\n      dup2\n      dup2\n      add\n      0x40\n      mstore\n      dup2\n      add\n      swap1\n      tag_2\n      swap2\n      swap1\n      tag_3\n      jump\t// in\n    tag_2:\n        /* \"Identity.sol\":480:485  _uuid */\n      dup1\n        /* \"Identity.sol\":473:477  uuid */\n      0x00\n      dup1\n        /* \"Identity.sol\":473:485  uuid = _uuid */\n      0x0100\n      exp\n      dup2\n      sload\n      dup2\n      0xffffffffffffffffffffffffffffffffffffffff\n      mul\n      not\n      and\n      swap1\n      dup4\n      0xffffffffffffffffffffffffffffffffffffffff\n      and\n      mul\n      or\n      swap1\n      sstore\n      pop\n        /* \"Identity.sol\":436:492  constructor(address _uuid) {... */\n      pop\n        /* \"Identity.sol\":57:1367  contract Recovery {... */\n      jump(tag_6)\n        /* \"#utility.yul\":88:205   */\n    tag_8:\n        /* \"#utility.yul\":197:198   */\n      0x00\n        /* \"#utility.yul\":194:195   */\n      dup1\n        /* \"#utility.yul\":187:199   */\n      revert\n        /* \"#utility.yul\":334:460   */\n    tag_10:\n        /* \"#utility.yul\":371:378   */\n      0x00\n        /* \"#utility.yul\":411:453   */\n      0xffffffffffffffffffffffffffffffffffffffff\n        /* \"#utility.yul\":404:409   */\n      dup3\n        /* \"#utility.yul\":400:454   */\n      and\n        /* \"#utility.yul\":389:454   */\n      swap1\n      pop\n        /* \"#utility.yul\":334:460   */\n      swap2\n      swap1\n      pop\n      jump\t// out\n        /* \"#utility.yul\":466:562   */\n    tag_11:\n        /* \"#utility.yul\":503:510   */\n      0x00\n        /* \"#utility.yul\":532:556   */\n      tag_20\n        /* \"#utility.yul\":550:555   */\n      dup3\n        /* \"#utility.yul\":532:556   */\n      tag_10\n      jump\t// in\n    tag_20:\n        /* \"#utility.yul\":521:556   */\n      swap1\n      pop\n        /* \"#utility.yul\":466:562   */\n      swap2\n      swap1\n      pop\n      jump\t// out\n        /* \"#utility.yul\":568:690   */\n    tag_12:\n        /* \"#utility.yul\":641:665   */\n      tag_22\n        /* \"#utility.yul\":659:664   */\n      dup2\n        /* \"#utility.yul\":641:665   */\n      tag_11\n      jump\t// in\n    tag_22:\n        /* \"#utility.yul\":634:639   */\n      dup2\n        /* \"#utility.yul\":631:666   */\n      eq\n        /* \"#utility.yul\":621:684   */\n      tag_23\n      jumpi\n        /* \"#utility.yul\":680:681   */\n      0x00\n        /* \"#utility.yul\":677:678   */\n      dup1\n        /* \"#utility.yul\":670:682   */\n      revert\n        /* \"#utility.yul\":621:684   */\n    tag_23:\n        /* \"#utility.yul\":568:690   */\n      pop\n      jump\t// out\n        /* \"#utility.yul\":696:839   */\n    tag_13:\n        /* \"#utility.yul\":753:758   */\n      0x00\n        /* \"#utility.yul\":784:790   */\n      dup2\n        /* \"#utility.yul\":778:791   */\n      mload\n        /* \"#utility.yul\":769:791   */\n      swap1\n      pop\n        /* \"#utility.yul\":800:833   */\n      tag_25\n        /* \"#utility.yul\":827:832   */\n      dup2\n        /* \"#utility.yul\":800:833   */\n      tag_12\n      jump\t// in\n    tag_25:\n        /* \"#utility.yul\":696:839   */\n      swap3\n      swap2\n      pop\n      pop\n      jump\t// out\n        /* \"#utility.yul\":845:1196   */\n    tag_3:\n        /* \"#utility.yul\":915:921   */\n      0x00\n        /* \"#utility.yul\":964:966   */\n      0x20\n        /* \"#utility.yul\":952:961   */\n      dup3\n        /* \"#utility.yul\":943:950   */\n      dup5\n        /* \"#utility.yul\":939:962   */\n      sub\n        /* \"#utility.yul\":935:967   */\n      slt\n        /* \"#utility.yul\":932:1051   */\n      iszero\n      tag_27\n      jumpi\n        /* \"#utility.yul\":970:1049   */\n      tag_28\n      tag_8\n      jump\t// in\n    tag_28:\n        /* \"#utility.yul\":932:1051   */\n    tag_27:\n        /* \"#utility.yul\":1090:1091   */\n      0x00\n        /* \"#utility.yul\":1115:1179   */\n      tag_29\n        /* \"#utility.yul\":1171:1178   */\n      dup5\n        /* \"#utility.yul\":1162:1168   */\n      dup3\n        /* \"#utility.yul\":1151:1160   */\n      dup6\n        /* \"#utility.yul\":1147:1169   */\n      add\n        /* \"#utility.yul\":1115:1179   */\n      tag_13\n      jump\t// in\n    tag_29:\n        /* \"#utility.yul\":1105:1179   */\n      swap2\n      pop\n        /* \"#utility.yul\":1061:1189   */\n      pop\n        /* \"#utility.yul\":845:1196   */\n      swap3\n      swap2\n      pop\n      pop\n      jump\t// out\n        /* \"Identity.sol\":57:1367  contract Recovery {... */\n    tag_6:\n      dataSize(sub_0)\n      dup1\n      dataOffset(sub_0)\n      0x00\n      codecopy\n      0x00\n      return\n    stop\n\n    sub_0: assembly {\n            /* \"Identity.sol\":57:1367  contract Recovery {... */\n          mstore(0x40, 0x80)\n          callvalue\n          dup1\n          iszero\n          tag_1\n          jumpi\n          0x00\n          dup1\n          revert\n        tag_1:\n          pop\n          jumpi(tag_2, lt(calldatasize, 0x04))\n          shr(0xe0, calldataload(0x00))\n          dup1\n          0x0aeaaf37\n          eq\n          tag_3\n          jumpi\n          dup1\n          0x4ca660a8\n          eq\n          tag_4\n          jumpi\n          dup1\n          0x6cd9f3be\n          eq\n          tag_5\n          jumpi\n          dup1\n          0xdb920b77\n          eq\n          tag_6\n          jumpi\n        tag_2:\n          0x00\n          dup1\n          revert\n            /* \"Identity.sol\":497:599  function setContacts(address[] memory _contacts) onlyUuid public {... */\n        tag_3:\n          tag_7\n          0x04\n          dup1\n          calldatasize\n          sub\n          dup2\n          add\n          swap1\n          tag_8\n          swap2\n          swap1\n          tag_9\n          jump\t// in\n        tag_8:\n          tag_10\n          jump\t// in\n        tag_7:\n          stop\n            /* \"Identity.sol\":1176:1365  function getRecoveries(address _key) public view... */\n        tag_4:\n          tag_11\n          0x04\n          dup1\n          calldatasize\n          sub\n          dup2\n          add\n          swap1\n          tag_12\n          swap2\n          swap1\n          tag_13\n          jump\t// in\n        tag_12:\n          tag_14\n          jump\t// in\n        tag_11:\n          mload(0x40)\n          tag_15\n          swap3\n          swap2\n          swap1\n          tag_16\n          jump\t// in\n        tag_15:\n          mload(0x40)\n          dup1\n          swap2\n          sub\n          swap1\n          return\n            /* \"Identity.sol\":717:1171  function addRecovery(address _key) onlyContact public{... */\n        tag_5:\n          tag_17\n          0x04\n          dup1\n          calldatasize\n          sub\n          dup2\n          add\n          swap1\n          tag_18\n          swap2\n          swap1\n          tag_13\n          jump\t// in\n        tag_18:\n          tag_19\n          jump\t// in\n        tag_17:\n          stop\n            /* \"Identity.sol\":604:712  function getContacts() public view returns (address[] memory _contacts){... */\n        tag_6:\n          tag_20\n          tag_21\n          jump\t// in\n        tag_20:\n          mload(0x40)\n          tag_22\n          swap2\n          swap1\n          tag_23\n          jump\t// in\n        tag_22:\n          mload(0x40)\n          dup1\n          swap2\n          sub\n          swap1\n          return\n            /* \"Identity.sol\":497:599  function setContacts(address[] memory _contacts) onlyUuid public {... */\n        tag_10:\n            /* \"Identity.sol\":259:263  uuid */\n          0x00\n          dup1\n          sload\n          swap1\n          0x0100\n          exp\n          swap1\n          div\n          0xffffffffffffffffffffffffffffffffffffffff\n          and\n            /* \"Identity.sol\":245:263  msg.sender == uuid */\n          0xffffffffffffffffffffffffffffffffffffffff\n          and\n            /* \"Identity.sol\":245:255  msg.sender */\n          caller\n            /* \"Identity.sol\":245:263  msg.sender == uuid */\n          0xffffffffffffffffffffffffffffffffffffffff\n          and\n          eq\n            /* \"Identity.sol\":241:278  if (msg.sender == uuid)... */\n          iszero\n          tag_25\n          jumpi\n            /* \"Identity.sol\":583:592  _contacts */\n          dup1\n            /* \"Identity.sol\":572:580  contacts */\n          0x01\n            /* \"Identity.sol\":572:592  contacts = _contacts */\n          swap1\n          dup1\n          mload\n          swap1\n          0x20\n          add\n          swap1\n          tag_27\n          swap3\n          swap2\n          swap1\n          tag_28\n          jump\t// in\n        tag_27:\n          pop\n            /* \"Identity.sol\":241:278  if (msg.sender == uuid)... */\n        tag_25:\n            /* \"Identity.sol\":497:599  function setContacts(address[] memory _contacts) onlyUuid public {... */\n          pop\n          jump\t// out\n            /* \"Identity.sol\":1176:1365  function getRecoveries(address _key) public view... */\n        tag_14:\n            /* \"Identity.sol\":1246:1259  uint num_done */\n          0x00\n            /* \"Identity.sol\":1261:1275  uint num_total */\n          dup1\n            /* \"Identity.sol\":1298:1311  proposed_keys */\n          0x03\n            /* \"Identity.sol\":1298:1317  proposed_keys[_key] */\n          0x00\n            /* \"Identity.sol\":1312:1316  _key */\n          dup5\n            /* \"Identity.sol\":1298:1317  proposed_keys[_key] */\n          0xffffffffffffffffffffffffffffffffffffffff\n          and\n          0xffffffffffffffffffffffffffffffffffffffff\n          and\n          dup2\n          mstore\n          0x20\n          add\n          swap1\n          dup2\n          mstore\n          0x20\n          add\n          0x00\n          keccak256\n          sload\n            /* \"Identity.sol\":1287:1317  num_done = proposed_keys[_key] */\n          swap2\n          pop\n            /* \"Identity.sol\":1357:1358  2 */\n          0x02\n            /* \"Identity.sol\":1339:1347  contacts */\n          0x01\n            /* \"Identity.sol\":1339:1354  contacts.length */\n          dup1\n          sload\n          swap1\n          pop\n            /* \"Identity.sol\":1339:1358  contacts.length / 2 */\n          tag_30\n          swap2\n          swap1\n          tag_31\n          jump\t// in\n        tag_30:\n            /* \"Identity.sol\":1327:1358  num_total = contacts.length / 2 */\n          swap1\n          pop\n            /* \"Identity.sol\":1176:1365  function getRecoveries(address _key) public view... */\n          swap2\n          pop\n          swap2\n          jump\t// out\n            /* \"Identity.sol\":717:1171  function addRecovery(address _key) onlyContact public{... */\n        tag_19:\n            /* \"Identity.sol\":326:332  uint i */\n          0x00\n            /* \"Identity.sol\":322:423  for(uint i = 0; i < contacts.length; i++)... */\n        tag_33:\n            /* \"Identity.sol\":342:350  contacts */\n          0x01\n            /* \"Identity.sol\":342:357  contacts.length */\n          dup1\n          sload\n          swap1\n          pop\n            /* \"Identity.sol\":338:339  i */\n          dup2\n            /* \"Identity.sol\":338:357  i < contacts.length */\n          lt\n            /* \"Identity.sol\":322:423  for(uint i = 0; i < contacts.length; i++)... */\n          iszero\n          tag_34\n          jumpi\n            /* \"Identity.sol\":394:404  msg.sender */\n          caller\n            /* \"Identity.sol\":379:404  contacts[i] == msg.sender */\n          0xffffffffffffffffffffffffffffffffffffffff\n          and\n            /* \"Identity.sol\":379:387  contacts */\n          0x01\n            /* \"Identity.sol\":388:389  i */\n          dup3\n            /* \"Identity.sol\":379:390  contacts[i] */\n          dup2\n          sload\n          dup2\n          lt\n          tag_36\n          jumpi\n          tag_37\n          tag_38\n          jump\t// in\n        tag_37:\n        tag_36:\n          swap1\n          0x00\n          mstore\n          keccak256(0x00, 0x20)\n          add\n          0x00\n          swap1\n          sload\n          swap1\n          0x0100\n          exp\n          swap1\n          div\n          0xffffffffffffffffffffffffffffffffffffffff\n          and\n            /* \"Identity.sol\":379:404  contacts[i] == msg.sender */\n          0xffffffffffffffffffffffffffffffffffffffff\n          and\n          eq\n            /* \"Identity.sol\":376:423  if(contacts[i] == msg.sender)... */\n          iszero\n          tag_40\n          jumpi\n            /* \"Identity.sol\":809:813  _key */\n          dup2\n            /* \"Identity.sol\":783:813  recoveries[msg.sender] != _key */\n          0xffffffffffffffffffffffffffffffffffffffff\n          and\n            /* \"Identity.sol\":783:793  recoveries */\n          0x02\n            /* \"Identity.sol\":783:805  recoveries[msg.sender] */\n          0x00\n            /* \"Identity.sol\":794:804  msg.sender */\n          caller\n            /* \"Identity.sol\":783:805  recoveries[msg.sender] */\n          0xffffffffffffffffffffffffffffffffffffffff\n          and\n          0xffffffffffffffffffffffffffffffffffffffff\n          and\n          dup2\n          mstore\n          0x20\n          add\n          swap1\n          dup2\n          mstore\n          0x20\n          add\n          0x00\n          keccak256\n          0x00\n          swap1\n          sload\n          swap1\n          0x0100\n          exp\n          swap1\n          div\n          0xffffffffffffffffffffffffffffffffffffffff\n          and\n            /* \"Identity.sol\":783:813  recoveries[msg.sender] != _key */\n          0xffffffffffffffffffffffffffffffffffffffff\n          and\n          eq\n          iszero\n            /* \"Identity.sol\":783:872  recoveries[msg.sender] != _key ... */\n          dup1\n          iszero\n          tag_42\n          jumpi\n          pop\n            /* \"Identity.sol\":871:872  0 */\n          0x00\n            /* \"Identity.sol\":830:843  proposed_keys */\n          0x03\n            /* \"Identity.sol\":830:867  proposed_keys[recoveries[msg.sender]] */\n          0x00\n            /* \"Identity.sol\":844:854  recoveries */\n          0x02\n            /* \"Identity.sol\":844:866  recoveries[msg.sender] */\n          0x00\n            /* \"Identity.sol\":855:865  msg.sender */\n          caller\n            /* \"Identity.sol\":844:866  recoveries[msg.sender] */\n          0xffffffffffffffffffffffffffffffffffffffff\n          and\n          0xffffffffffffffffffffffffffffffffffffffff\n          and\n          dup2\n          mstore\n          0x20\n          add\n          swap1\n          dup2\n          mstore\n          0x20\n          add\n          0x00\n          keccak256\n          0x00\n          swap1\n          sload\n          swap1\n          0x0100\n          exp\n          swap1\n          div\n          0xffffffffffffffffffffffffffffffffffffffff\n          and\n            /* \"Identity.sol\":830:867  proposed_keys[recoveries[msg.sender]] */\n          0xffffffffffffffffffffffffffffffffffffffff\n          and\n          0xffffffffffffffffffffffffffffffffffffffff\n          and\n          dup2\n          mstore\n          0x20\n          add\n          swap1\n          dup2\n          mstore\n          0x20\n          add\n          0x00\n          keccak256\n          sload\n            /* \"Identity.sol\":830:872  proposed_keys[recoveries[msg.sender]] == 0 */\n          eq\n            /* \"Identity.sol\":783:872  recoveries[msg.sender] != _key ... */\n        tag_42:\n            /* \"Identity.sol\":780:965  if(recoveries[msg.sender] != _key ... */\n          iszero\n          tag_43\n          jumpi\n            /* \"Identity.sol\":912:916  _key */\n          dup2\n            /* \"Identity.sol\":887:897  recoveries */\n          0x02\n            /* \"Identity.sol\":887:909  recoveries[msg.sender] */\n          0x00\n            /* \"Identity.sol\":898:908  msg.sender */\n          caller\n            /* \"Identity.sol\":887:909  recoveries[msg.sender] */\n          0xffffffffffffffffffffffffffffffffffffffff\n          and\n          0xffffffffffffffffffffffffffffffffffffffff\n          and\n          dup2\n          mstore\n          0x20\n          add\n          swap1\n          dup2\n          mstore\n          0x20\n          add\n          0x00\n          keccak256\n          0x00\n            /* \"Identity.sol\":887:916  recoveries[msg.sender] = _key */\n          0x0100\n          exp\n          dup2\n          sload\n          dup2\n          0xffffffffffffffffffffffffffffffffffffffff\n          mul\n          not\n          and\n          swap1\n          dup4\n          0xffffffffffffffffffffffffffffffffffffffff\n          and\n          mul\n          or\n          swap1\n          sstore\n          pop\n            /* \"Identity.sol\":953:954  1 */\n          0x01\n            /* \"Identity.sol\":930:943  proposed_keys */\n          0x03\n            /* \"Identity.sol\":930:949  proposed_keys[_key] */\n          0x00\n            /* \"Identity.sol\":944:948  _key */\n          dup5\n            /* \"Identity.sol\":930:949  proposed_keys[_key] */\n          0xffffffffffffffffffffffffffffffffffffffff\n          and\n          0xffffffffffffffffffffffffffffffffffffffff\n          and\n          dup2\n          mstore\n          0x20\n          add\n          swap1\n          dup2\n          mstore\n          0x20\n          add\n          0x00\n          keccak256\n          0x00\n            /* \"Identity.sol\":930:954  proposed_keys[_key] += 1 */\n          dup3\n          dup3\n          sload\n          tag_44\n          swap2\n          swap1\n          tag_45\n          jump\t// in\n        tag_44:\n          swap3\n          pop\n          pop\n          dup2\n          swap1\n          sstore\n          pop\n            /* \"Identity.sol\":780:965  if(recoveries[msg.sender] != _key ... */\n        tag_43:\n            /* \"Identity.sol\":1020:1021  2 */\n          0x02\n            /* \"Identity.sol\":1002:1010  contacts */\n          0x01\n            /* \"Identity.sol\":1002:1017  contacts.length */\n          dup1\n          sload\n          swap1\n          pop\n            /* \"Identity.sol\":1002:1021  contacts.length / 2 */\n          tag_46\n          swap2\n          swap1\n          tag_31\n          jump\t// in\n        tag_46:\n            /* \"Identity.sol\":978:991  proposed_keys */\n          0x03\n            /* \"Identity.sol\":978:997  proposed_keys[_key] */\n          0x00\n            /* \"Identity.sol\":992:996  _key */\n          dup5\n            /* \"Identity.sol\":978:997  proposed_keys[_key] */\n          0xffffffffffffffffffffffffffffffffffffffff\n          and\n          0xffffffffffffffffffffffffffffffffffffffff\n          and\n          dup2\n          mstore\n          0x20\n          add\n          swap1\n          dup2\n          mstore\n          0x20\n          add\n          0x00\n          keccak256\n          sload\n            /* \"Identity.sol\":978:1022  proposed_keys[_key] >= (contacts.length / 2) */\n          lt\n            /* \"Identity.sol\":974:1165  if (proposed_keys[_key] >= (contacts.length / 2)){... */\n          tag_47\n          jumpi\n            /* \"Identity.sol\":1037:1056  Identity identity_c */\n          0x00\n            /* \"Identity.sol\":1068:1072  uuid */\n          dup1\n          0x00\n          swap1\n          sload\n          swap1\n          0x0100\n          exp\n          swap1\n          div\n          0xffffffffffffffffffffffffffffffffffffffff\n          and\n            /* \"Identity.sol\":1037:1073  Identity identity_c = Identity(uuid) */\n          swap1\n          pop\n            /* \"Identity.sol\":1109:1110  0 */\n          0x00\n            /* \"Identity.sol\":1087:1100  proposed_keys */\n          0x03\n            /* \"Identity.sol\":1087:1106  proposed_keys[_key] */\n          0x00\n            /* \"Identity.sol\":1101:1105  _key */\n          dup6\n            /* \"Identity.sol\":1087:1106  proposed_keys[_key] */\n          0xffffffffffffffffffffffffffffffffffffffff\n          and\n          0xffffffffffffffffffffffffffffffffffffffff\n          and\n          dup2\n          mstore\n          0x20\n          add\n          swap1\n          dup2\n          mstore\n          0x20\n          add\n          0x00\n          keccak256\n            /* \"Identity.sol\":1087:1110  proposed_keys[_key] = 0 */\n          dup2\n          swap1\n          sstore\n          pop\n            /* \"Identity.sol\":1124:1134  identity_c */\n          dup1\n            /* \"Identity.sol\":1124:1148  identity_c.transferOwner */\n          0xffffffffffffffffffffffffffffffffffffffff\n          and\n          0x4fb2e45d\n            /* \"Identity.sol\":1149:1153  _key */\n          dup5\n            /* \"Identity.sol\":1124:1154  identity_c.transferOwner(_key) */\n          mload(0x40)\n          dup3\n          0xffffffff\n          and\n          0xe0\n          shl\n          dup2\n          mstore\n          0x04\n          add\n          tag_48\n          swap2\n          swap1\n          tag_49\n          jump\t// in\n        tag_48:\n          0x00\n          mload(0x40)\n          dup1\n          dup4\n          sub\n          dup2\n          0x00\n          dup8\n          dup1\n          extcodesize\n          iszero\n          dup1\n          iszero\n          tag_50\n          jumpi\n          0x00\n          dup1\n          revert\n        tag_50:\n          pop\n          gas\n          call\n          iszero\n          dup1\n          iszero\n          tag_52\n          jumpi\n          returndatasize\n          0x00\n          dup1\n          returndatacopy\n          revert(0x00, returndatasize)\n        tag_52:\n          pop\n          pop\n          pop\n          pop\n            /* \"Identity.sol\":1023:1165  {... */\n          pop\n            /* \"Identity.sol\":974:1165  if (proposed_keys[_key] >= (contacts.length / 2)){... */\n        tag_47:\n            /* \"Identity.sol\":376:423  if(contacts[i] == msg.sender)... */\n        tag_40:\n            /* \"Identity.sol\":359:362  i++ */\n          dup1\n          dup1\n          tag_53\n          swap1\n          tag_54\n          jump\t// in\n        tag_53:\n          swap2\n          pop\n          pop\n            /* \"Identity.sol\":322:423  for(uint i = 0; i < contacts.length; i++)... */\n          jump(tag_33)\n        tag_34:\n          pop\n            /* \"Identity.sol\":717:1171  function addRecovery(address _key) onlyContact public{... */\n          pop\n          jump\t// out\n            /* \"Identity.sol\":604:712  function getContacts() public view returns (address[] memory _contacts){... */\n        tag_21:\n            /* \"Identity.sol\":648:674  address[] memory _contacts */\n          0x60\n            /* \"Identity.sol\":697:705  contacts */\n          0x01\n            /* \"Identity.sol\":685:705  _contacts = contacts */\n          dup1\n          sload\n          dup1\n          0x20\n          mul\n          0x20\n          add\n          mload(0x40)\n          swap1\n          dup2\n          add\n          0x40\n          mstore\n          dup1\n          swap3\n          swap2\n          swap1\n          dup2\n          dup2\n          mstore\n          0x20\n          add\n          dup3\n          dup1\n          sload\n          dup1\n          iszero\n          tag_56\n          jumpi\n          0x20\n          mul\n          dup3\n          add\n          swap2\n          swap1\n          0x00\n          mstore\n          keccak256(0x00, 0x20)\n          swap1\n        tag_57:\n          dup2\n          0x00\n          swap1\n          sload\n          swap1\n          0x0100\n          exp\n          swap1\n          div\n          0xffffffffffffffffffffffffffffffffffffffff\n          and\n          0xffffffffffffffffffffffffffffffffffffffff\n          and\n          dup2\n          mstore\n          0x20\n          add\n          swap1\n          0x01\n          add\n          swap1\n          dup1\n          dup4\n          gt\n          tag_57\n          jumpi\n        tag_56:\n          pop\n          pop\n          pop\n          pop\n          pop\n          swap1\n          pop\n            /* \"Identity.sol\":604:712  function getContacts() public view returns (address[] memory _contacts){... */\n          swap1\n          jump\t// out\n        tag_28:\n          dup3\n          dup1\n          sload\n          dup3\n          dup3\n          sstore\n          swap1\n          0x00\n          mstore\n          keccak256(0x00, 0x20)\n          swap1\n          dup2\n          add\n          swap3\n          dup3\n          iszero\n          tag_58\n          jumpi\n          swap2\n          0x20\n          mul\n          dup3\n          add\n        tag_59:\n          dup3\n          dup2\n          gt\n          iszero\n          tag_60\n          jumpi\n          dup3\n          mload\n          dup3\n          exp(0x0100, 0x00)\n          dup2\n          sload\n          dup2\n          0xffffffffffffffffffffffffffffffffffffffff\n          mul\n          not\n          and\n          swap1\n          dup4\n          0xffffffffffffffffffffffffffffffffffffffff\n          and\n          mul\n          or\n          swap1\n          sstore\n          pop\n          swap2\n          0x20\n          add\n          swap2\n          swap1\n          0x01\n          add\n          swap1\n          jump(tag_59)\n        tag_60:\n        tag_58:\n          pop\n          swap1\n          pop\n          tag_61\n          swap2\n          swap1\n          tag_62\n          jump\t// in\n        tag_61:\n          pop\n          swap1\n          jump\t// out\n        tag_62:\n        tag_63:\n          dup1\n          dup3\n          gt\n          iszero\n          tag_64\n          jumpi\n          0x00\n          dup2\n          0x00\n          swap1\n          sstore\n          pop\n          0x01\n          add\n          jump(tag_63)\n        tag_64:\n          pop\n          swap1\n          jump\t// out\n            /* \"#utility.yul\":7:82   */\n        tag_65:\n            /* \"#utility.yul\":40:46   */\n          0x00\n            /* \"#utility.yul\":73:75   */\n          0x40\n            /* \"#utility.yul\":67:76   */\n          mload\n            /* \"#utility.yul\":57:76   */\n          swap1\n          pop\n            /* \"#utility.yul\":7:82   */\n          swap1\n          jump\t// out\n            /* \"#utility.yul\":88:205   */\n        tag_66:\n            /* \"#utility.yul\":197:198   */\n          0x00\n            /* \"#utility.yul\":194:195   */\n          dup1\n            /* \"#utility.yul\":187:199   */\n          revert\n            /* \"#utility.yul\":211:328   */\n        tag_67:\n            /* \"#utility.yul\":320:321   */\n          0x00\n            /* \"#utility.yul\":317:318   */\n          dup1\n            /* \"#utility.yul\":310:322   */\n          revert\n            /* \"#utility.yul\":334:451   */\n        tag_68:\n            /* \"#utility.yul\":443:444   */\n          0x00\n            /* \"#utility.yul\":440:441   */\n          dup1\n            /* \"#utility.yul\":433:445   */\n          revert\n            /* \"#utility.yul\":457:559   */\n        tag_69:\n            /* \"#utility.yul\":498:504   */\n          0x00\n            /* \"#utility.yul\":549:551   */\n          0x1f\n            /* \"#utility.yul\":545:552   */\n          not\n            /* \"#utility.yul\":540:542   */\n          0x1f\n            /* \"#utility.yul\":533:538   */\n          dup4\n            /* \"#utility.yul\":529:543   */\n          add\n            /* \"#utility.yul\":525:553   */\n          and\n            /* \"#utility.yul\":515:553   */\n          swap1\n          pop\n            /* \"#utility.yul\":457:559   */\n          swap2\n          swap1\n          pop\n          jump\t// out\n            /* \"#utility.yul\":565:745   */\n        tag_70:\n            /* \"#utility.yul\":613:690   */\n          0x4e487b7100000000000000000000000000000000000000000000000000000000\n            /* \"#utility.yul\":610:611   */\n          0x00\n            /* \"#utility.yul\":603:691   */\n          mstore\n            /* \"#utility.yul\":710:714   */\n          0x41\n            /* \"#utility.yul\":707:708   */\n          0x04\n            /* \"#utility.yul\":700:715   */\n          mstore\n            /* \"#utility.yul\":734:738   */\n          0x24\n            /* \"#utility.yul\":731:732   */\n          0x00\n            /* \"#utility.yul\":724:739   */\n          revert\n            /* \"#utility.yul\":751:1032   */\n        tag_71:\n            /* \"#utility.yul\":834:861   */\n          tag_101\n            /* \"#utility.yul\":856:860   */\n          dup3\n            /* \"#utility.yul\":834:861   */\n          tag_69\n          jump\t// in\n        tag_101:\n            /* \"#utility.yul\":826:832   */\n          dup2\n            /* \"#utility.yul\":822:862   */\n          add\n            /* \"#utility.yul\":964:970   */\n          dup2\n            /* \"#utility.yul\":952:962   */\n          dup2\n            /* \"#utility.yul\":949:971   */\n          lt\n            /* \"#utility.yul\":928:946   */\n          0xffffffffffffffff\n            /* \"#utility.yul\":916:926   */\n          dup3\n            /* \"#utility.yul\":913:947   */\n          gt\n            /* \"#utility.yul\":910:972   */\n          or\n            /* \"#utility.yul\":907:995   */\n          iszero\n          tag_102\n          jumpi\n            /* \"#utility.yul\":975:993   */\n          tag_103\n          tag_70\n          jump\t// in\n        tag_103:\n            /* \"#utility.yul\":907:995   */\n        tag_102:\n            /* \"#utility.yul\":1015:1025   */\n          dup1\n            /* \"#utility.yul\":1011:1013   */\n          0x40\n            /* \"#utility.yul\":1004:1026   */\n          mstore\n            /* \"#utility.yul\":794:1032   */\n          pop\n            /* \"#utility.yul\":751:1032   */\n          pop\n          pop\n          jump\t// out\n            /* \"#utility.yul\":1038:1167   */\n        tag_72:\n            /* \"#utility.yul\":1072:1078   */\n          0x00\n            /* \"#utility.yul\":1099:1119   */\n          tag_105\n          tag_65\n          jump\t// in\n        tag_105:\n            /* \"#utility.yul\":1089:1119   */\n          swap1\n          pop\n            /* \"#utility.yul\":1128:1161   */\n          tag_106\n            /* \"#utility.yul\":1156:1160   */\n          dup3\n            /* \"#utility.yul\":1148:1154   */\n          dup3\n            /* \"#utility.yul\":1128:1161   */\n          tag_71\n          jump\t// in\n        tag_106:\n            /* \"#utility.yul\":1038:1167   */\n          swap2\n          swap1\n          pop\n          jump\t// out\n            /* \"#utility.yul\":1173:1484   */\n        tag_73:\n            /* \"#utility.yul\":1250:1254   */\n          0x00\n            /* \"#utility.yul\":1340:1358   */\n          0xffffffffffffffff\n            /* \"#utility.yul\":1332:1338   */\n          dup3\n            /* \"#utility.yul\":1329:1359   */\n          gt\n            /* \"#utility.yul\":1326:1382   */\n          iszero\n          tag_108\n          jumpi\n            /* \"#utility.yul\":1362:1380   */\n          tag_109\n          tag_70\n          jump\t// in\n        tag_109:\n            /* \"#utility.yul\":1326:1382   */\n        tag_108:\n            /* \"#utility.yul\":1412:1416   */\n          0x20\n            /* \"#utility.yul\":1404:1410   */\n          dup3\n            /* \"#utility.yul\":1400:1417   */\n          mul\n            /* \"#utility.yul\":1392:1417   */\n          swap1\n          pop\n            /* \"#utility.yul\":1472:1476   */\n          0x20\n            /* \"#utility.yul\":1466:1470   */\n          dup2\n            /* \"#utility.yul\":1462:1477   */\n          add\n            /* \"#utility.yul\":1454:1477   */\n          swap1\n          pop\n            /* \"#utility.yul\":1173:1484   */\n          swap2\n          swap1\n          pop\n          jump\t// out\n            /* \"#utility.yul\":1490:1607   */\n        tag_74:\n            /* \"#utility.yul\":1599:1600   */\n          0x00\n            /* \"#utility.yul\":1596:1597   */\n          dup1\n            /* \"#utility.yul\":1589:1601   */\n          revert\n            /* \"#utility.yul\":1613:1739   */\n        tag_75:\n            /* \"#utility.yul\":1650:1657   */\n          0x00\n            /* \"#utility.yul\":1690:1732   */\n          0xffffffffffffffffffffffffffffffffffffffff\n            /* \"#utility.yul\":1683:1688   */\n          dup3\n            /* \"#utility.yul\":1679:1733   */\n          and\n            /* \"#utility.yul\":1668:1733   */\n          swap1\n          pop\n            /* \"#utility.yul\":1613:1739   */\n          swap2\n          swap1\n          pop\n          jump\t// out\n            /* \"#utility.yul\":1745:1841   */\n        tag_76:\n            /* \"#utility.yul\":1782:1789   */\n          0x00\n            /* \"#utility.yul\":1811:1835   */\n          tag_113\n            /* \"#utility.yul\":1829:1834   */\n          dup3\n            /* \"#utility.yul\":1811:1835   */\n          tag_75\n          jump\t// in\n        tag_113:\n            /* \"#utility.yul\":1800:1835   */\n          swap1\n          pop\n            /* \"#utility.yul\":1745:1841   */\n          swap2\n          swap1\n          pop\n          jump\t// out\n            /* \"#utility.yul\":1847:1969   */\n        tag_77:\n            /* \"#utility.yul\":1920:1944   */\n          tag_115\n            /* \"#utility.yul\":1938:1943   */\n          dup2\n            /* \"#utility.yul\":1920:1944   */\n          tag_76\n          jump\t// in\n        tag_115:\n            /* \"#utility.yul\":1913:1918   */\n          dup2\n            /* \"#utility.yul\":1910:1945   */\n          eq\n            /* \"#utility.yul\":1900:1963   */\n          tag_116\n          jumpi\n            /* \"#utility.yul\":1959:1960   */\n          0x00\n            /* \"#utility.yul\":1956:1957   */\n          dup1\n            /* \"#utility.yul\":1949:1961   */\n          revert\n            /* \"#utility.yul\":1900:1963   */\n        tag_116:\n            /* \"#utility.yul\":1847:1969   */\n          pop\n          jump\t// out\n            /* \"#utility.yul\":1975:2114   */\n        tag_78:\n            /* \"#utility.yul\":2021:2026   */\n          0x00\n            /* \"#utility.yul\":2059:2065   */\n          dup2\n            /* \"#utility.yul\":2046:2066   */\n          calldataload\n            /* \"#utility.yul\":2037:2066   */\n          swap1\n          pop\n            /* \"#utility.yul\":2075:2108   */\n          tag_118\n            /* \"#utility.yul\":2102:2107   */\n          dup2\n            /* \"#utility.yul\":2075:2108   */\n          tag_77\n          jump\t// in\n        tag_118:\n            /* \"#utility.yul\":1975:2114   */\n          swap3\n          swap2\n          pop\n          pop\n          jump\t// out\n            /* \"#utility.yul\":2137:2847   */\n        tag_79:\n            /* \"#utility.yul\":2233:2238   */\n          0x00\n            /* \"#utility.yul\":2258:2339   */\n          tag_120\n            /* \"#utility.yul\":2274:2338   */\n          tag_121\n            /* \"#utility.yul\":2331:2337   */\n          dup5\n            /* \"#utility.yul\":2274:2338   */\n          tag_73\n          jump\t// in\n        tag_121:\n            /* \"#utility.yul\":2258:2339   */\n          tag_72\n          jump\t// in\n        tag_120:\n            /* \"#utility.yul\":2249:2339   */\n          swap1\n          pop\n            /* \"#utility.yul\":2359:2364   */\n          dup1\n            /* \"#utility.yul\":2388:2394   */\n          dup4\n            /* \"#utility.yul\":2381:2386   */\n          dup3\n            /* \"#utility.yul\":2374:2395   */\n          mstore\n            /* \"#utility.yul\":2422:2426   */\n          0x20\n            /* \"#utility.yul\":2415:2420   */\n          dup3\n            /* \"#utility.yul\":2411:2427   */\n          add\n            /* \"#utility.yul\":2404:2427   */\n          swap1\n          pop\n            /* \"#utility.yul\":2475:2479   */\n          0x20\n            /* \"#utility.yul\":2467:2473   */\n          dup5\n            /* \"#utility.yul\":2463:2480   */\n          mul\n            /* \"#utility.yul\":2455:2461   */\n          dup4\n            /* \"#utility.yul\":2451:2481   */\n          add\n            /* \"#utility.yul\":2504:2507   */\n          dup6\n            /* \"#utility.yul\":2496:2502   */\n          dup2\n            /* \"#utility.yul\":2493:2508   */\n          gt\n            /* \"#utility.yul\":2490:2612   */\n          iszero\n          tag_122\n          jumpi\n            /* \"#utility.yul\":2523:2602   */\n          tag_123\n          tag_74\n          jump\t// in\n        tag_123:\n            /* \"#utility.yul\":2490:2612   */\n        tag_122:\n            /* \"#utility.yul\":2638:2644   */\n          dup4\n            /* \"#utility.yul\":2621:2841   */\n        tag_124:\n            /* \"#utility.yul\":2655:2661   */\n          dup2\n            /* \"#utility.yul\":2650:2653   */\n          dup2\n            /* \"#utility.yul\":2647:2662   */\n          lt\n            /* \"#utility.yul\":2621:2841   */\n          iszero\n          tag_126\n          jumpi\n            /* \"#utility.yul\":2730:2733   */\n          dup1\n            /* \"#utility.yul\":2759:2796   */\n          tag_127\n            /* \"#utility.yul\":2792:2795   */\n          dup9\n            /* \"#utility.yul\":2780:2790   */\n          dup3\n            /* \"#utility.yul\":2759:2796   */\n          tag_78\n          jump\t// in\n        tag_127:\n            /* \"#utility.yul\":2754:2757   */\n          dup5\n            /* \"#utility.yul\":2747:2797   */\n          mstore\n            /* \"#utility.yul\":2826:2830   */\n          0x20\n            /* \"#utility.yul\":2821:2824   */\n          dup5\n            /* \"#utility.yul\":2817:2831   */\n          add\n            /* \"#utility.yul\":2810:2831   */\n          swap4\n          pop\n            /* \"#utility.yul\":2697:2841   */\n          pop\n            /* \"#utility.yul\":2681:2685   */\n          0x20\n            /* \"#utility.yul\":2676:2679   */\n          dup2\n            /* \"#utility.yul\":2672:2686   */\n          add\n            /* \"#utility.yul\":2665:2686   */\n          swap1\n          pop\n            /* \"#utility.yul\":2621:2841   */\n          jump(tag_124)\n        tag_126:\n            /* \"#utility.yul\":2625:2646   */\n          pop\n            /* \"#utility.yul\":2239:2847   */\n          pop\n          pop\n            /* \"#utility.yul\":2137:2847   */\n          swap4\n          swap3\n          pop\n          pop\n          pop\n          jump\t// out\n            /* \"#utility.yul\":2870:3240   */\n        tag_80:\n            /* \"#utility.yul\":2941:2946   */\n          0x00\n            /* \"#utility.yul\":2990:2993   */\n          dup3\n            /* \"#utility.yul\":2983:2987   */\n          0x1f\n            /* \"#utility.yul\":2975:2981   */\n          dup4\n            /* \"#utility.yul\":2971:2988   */\n          add\n            /* \"#utility.yul\":2967:2994   */\n          slt\n            /* \"#utility.yul\":2957:3079   */\n          tag_129\n          jumpi\n            /* \"#utility.yul\":2998:3077   */\n          tag_130\n          tag_68\n          jump\t// in\n        tag_130:\n            /* \"#utility.yul\":2957:3079   */\n        tag_129:\n            /* \"#utility.yul\":3115:3121   */\n          dup2\n            /* \"#utility.yul\":3102:3122   */\n          calldataload\n            /* \"#utility.yul\":3140:3234   */\n          tag_131\n            /* \"#utility.yul\":3230:3233   */\n          dup5\n            /* \"#utility.yul\":3222:3228   */\n          dup3\n            /* \"#utility.yul\":3215:3219   */\n          0x20\n            /* \"#utility.yul\":3207:3213   */\n          dup7\n            /* \"#utility.yul\":3203:3220   */\n          add\n            /* \"#utility.yul\":3140:3234   */\n          tag_79\n          jump\t// in\n        tag_131:\n            /* \"#utility.yul\":3131:3234   */\n          swap2\n          pop\n            /* \"#utility.yul\":2947:3240   */\n          pop\n            /* \"#utility.yul\":2870:3240   */\n          swap3\n          swap2\n          pop\n          pop\n          jump\t// out\n            /* \"#utility.yul\":3246:3785   */\n        tag_9:\n            /* \"#utility.yul\":3330:3336   */\n          0x00\n            /* \"#utility.yul\":3379:3381   */\n          0x20\n            /* \"#utility.yul\":3367:3376   */\n          dup3\n            /* \"#utility.yul\":3358:3365   */\n          dup5\n            /* \"#utility.yul\":3354:3377   */\n          sub\n            /* \"#utility.yul\":3350:3382   */\n          slt\n            /* \"#utility.yul\":3347:3466   */\n          iszero\n          tag_133\n          jumpi\n            /* \"#utility.yul\":3385:3464   */\n          tag_134\n          tag_66\n          jump\t// in\n        tag_134:\n            /* \"#utility.yul\":3347:3466   */\n        tag_133:\n            /* \"#utility.yul\":3533:3534   */\n          0x00\n            /* \"#utility.yul\":3522:3531   */\n          dup3\n            /* \"#utility.yul\":3518:3535   */\n          add\n            /* \"#utility.yul\":3505:3536   */\n          calldataload\n            /* \"#utility.yul\":3563:3581   */\n          0xffffffffffffffff\n            /* \"#utility.yul\":3555:3561   */\n          dup2\n            /* \"#utility.yul\":3552:3582   */\n          gt\n            /* \"#utility.yul\":3549:3666   */\n          iszero\n          tag_135\n          jumpi\n            /* \"#utility.yul\":3585:3664   */\n          tag_136\n          tag_67\n          jump\t// in\n        tag_136:\n            /* \"#utility.yul\":3549:3666   */\n        tag_135:\n            /* \"#utility.yul\":3690:3768   */\n          tag_137\n            /* \"#utility.yul\":3760:3767   */\n          dup5\n            /* \"#utility.yul\":3751:3757   */\n          dup3\n            /* \"#utility.yul\":3740:3749   */\n          dup6\n            /* \"#utility.yul\":3736:3758   */\n          add\n            /* \"#utility.yul\":3690:3768   */\n          tag_80\n          jump\t// in\n        tag_137:\n            /* \"#utility.yul\":3680:3768   */\n          swap2\n          pop\n            /* \"#utility.yul\":3476:3778   */\n          pop\n            /* \"#utility.yul\":3246:3785   */\n          swap3\n          swap2\n          pop\n          pop\n          jump\t// out\n            /* \"#utility.yul\":3791:4120   */\n        tag_13:\n            /* \"#utility.yul\":3850:3856   */\n          0x00\n            /* \"#utility.yul\":3899:3901   */\n          0x20\n            /* \"#utility.yul\":3887:3896   */\n          dup3\n            /* \"#utility.yul\":3878:3885   */\n          dup5\n            /* \"#utility.yul\":3874:3897   */\n          sub\n            /* \"#utility.yul\":3870:3902   */\n          slt\n            /* \"#utility.yul\":3867:3986   */\n          iszero\n          tag_139\n          jumpi\n            /* \"#utility.yul\":3905:3984   */\n          tag_140\n          tag_66\n          jump\t// in\n        tag_140:\n            /* \"#utility.yul\":3867:3986   */\n        tag_139:\n            /* \"#utility.yul\":4025:4026   */\n          0x00\n            /* \"#utility.yul\":4050:4103   */\n          tag_141\n            /* \"#utility.yul\":4095:4102   */\n          dup5\n            /* \"#utility.yul\":4086:4092   */\n          dup3\n            /* \"#utility.yul\":4075:4084   */\n          dup6\n            /* \"#utility.yul\":4071:4093   */\n          add\n            /* \"#utility.yul\":4050:4103   */\n          tag_78\n          jump\t// in\n        tag_141:\n            /* \"#utility.yul\":4040:4103   */\n          swap2\n          pop\n            /* \"#utility.yul\":3996:4113   */\n          pop\n            /* \"#utility.yul\":3791:4120   */\n          swap3\n          swap2\n          pop\n          pop\n          jump\t// out\n            /* \"#utility.yul\":4126:4203   */\n        tag_81:\n            /* \"#utility.yul\":4163:4170   */\n          0x00\n            /* \"#utility.yul\":4192:4197   */\n          dup2\n            /* \"#utility.yul\":4181:4197   */\n          swap1\n          pop\n            /* \"#utility.yul\":4126:4203   */\n          swap2\n          swap1\n          pop\n          jump\t// out\n            /* \"#utility.yul\":4209:4327   */\n        tag_82:\n            /* \"#utility.yul\":4296:4320   */\n          tag_144\n            /* \"#utility.yul\":4314:4319   */\n          dup2\n            /* \"#utility.yul\":4296:4320   */\n          tag_81\n          jump\t// in\n        tag_144:\n            /* \"#utility.yul\":4291:4294   */\n          dup3\n            /* \"#utility.yul\":4284:4321   */\n          mstore\n            /* \"#utility.yul\":4209:4327   */\n          pop\n          pop\n          jump\t// out\n            /* \"#utility.yul\":4333:4665   */\n        tag_16:\n            /* \"#utility.yul\":4454:4458   */\n          0x00\n            /* \"#utility.yul\":4492:4494   */\n          0x40\n            /* \"#utility.yul\":4481:4490   */\n          dup3\n            /* \"#utility.yul\":4477:4495   */\n          add\n            /* \"#utility.yul\":4469:4495   */\n          swap1\n          pop\n            /* \"#utility.yul\":4505:4576   */\n          tag_146\n            /* \"#utility.yul\":4573:4574   */\n          0x00\n            /* \"#utility.yul\":4562:4571   */\n          dup4\n            /* \"#utility.yul\":4558:4575   */\n          add\n            /* \"#utility.yul\":4549:4555   */\n          dup6\n            /* \"#utility.yul\":4505:4576   */\n          tag_82\n          jump\t// in\n        tag_146:\n            /* \"#utility.yul\":4586:4658   */\n          tag_147\n            /* \"#utility.yul\":4654:4656   */\n          0x20\n            /* \"#utility.yul\":4643:4652   */\n          dup4\n            /* \"#utility.yul\":4639:4657   */\n          add\n            /* \"#utility.yul\":4630:4636   */\n          dup5\n            /* \"#utility.yul\":4586:4658   */\n          tag_82\n          jump\t// in\n        tag_147:\n            /* \"#utility.yul\":4333:4665   */\n          swap4\n          swap3\n          pop\n          pop\n          pop\n          jump\t// out\n            /* \"#utility.yul\":4671:4785   */\n        tag_83:\n            /* \"#utility.yul\":4738:4744   */\n          0x00\n            /* \"#utility.yul\":4772:4777   */\n          dup2\n            /* \"#utility.yul\":4766:4778   */\n          mload\n            /* \"#utility.yul\":4756:4778   */\n          swap1\n          pop\n            /* \"#utility.yul\":4671:4785   */\n          swap2\n          swap1\n          pop\n          jump\t// out\n            /* \"#utility.yul\":4791:4975   */\n        tag_84:\n            /* \"#utility.yul\":4890:4901   */\n          0x00\n            /* \"#utility.yul\":4924:4930   */\n          dup3\n            /* \"#utility.yul\":4919:4922   */\n          dup3\n            /* \"#utility.yul\":4912:4931   */\n          mstore\n            /* \"#utility.yul\":4964:4968   */\n          0x20\n            /* \"#utility.yul\":4959:4962   */\n          dup3\n            /* \"#utility.yul\":4955:4969   */\n          add\n            /* \"#utility.yul\":4940:4969   */\n          swap1\n          pop\n            /* \"#utility.yul\":4791:4975   */\n          swap3\n          swap2\n          pop\n          pop\n          jump\t// out\n            /* \"#utility.yul\":4981:5113   */\n        tag_85:\n            /* \"#utility.yul\":5048:5052   */\n          0x00\n            /* \"#utility.yul\":5071:5074   */\n          dup2\n            /* \"#utility.yul\":5063:5074   */\n          swap1\n          pop\n            /* \"#utility.yul\":5101:5105   */\n          0x20\n            /* \"#utility.yul\":5096:5099   */\n          dup3\n            /* \"#utility.yul\":5092:5106   */\n          add\n            /* \"#utility.yul\":5084:5106   */\n          swap1\n          pop\n            /* \"#utility.yul\":4981:5113   */\n          swap2\n          swap1\n          pop\n          jump\t// out\n            /* \"#utility.yul\":5119:5227   */\n        tag_86:\n            /* \"#utility.yul\":5196:5220   */\n          tag_152\n            /* \"#utility.yul\":5214:5219   */\n          dup2\n            /* \"#utility.yul\":5196:5220   */\n          tag_76\n          jump\t// in\n        tag_152:\n            /* \"#utility.yul\":5191:5194   */\n          dup3\n            /* \"#utility.yul\":5184:5221   */\n          mstore\n            /* \"#utility.yul\":5119:5227   */\n          pop\n          pop\n          jump\t// out\n            /* \"#utility.yul\":5233:5412   */\n        tag_87:\n            /* \"#utility.yul\":5302:5312   */\n          0x00\n            /* \"#utility.yul\":5323:5369   */\n          tag_154\n            /* \"#utility.yul\":5365:5368   */\n          dup4\n            /* \"#utility.yul\":5357:5363   */\n          dup4\n            /* \"#utility.yul\":5323:5369   */\n          tag_86\n          jump\t// in\n        tag_154:\n            /* \"#utility.yul\":5401:5405   */\n          0x20\n            /* \"#utility.yul\":5396:5399   */\n          dup4\n            /* \"#utility.yul\":5392:5406   */\n          add\n            /* \"#utility.yul\":5378:5406   */\n          swap1\n          pop\n            /* \"#utility.yul\":5233:5412   */\n          swap3\n          swap2\n          pop\n          pop\n          jump\t// out\n            /* \"#utility.yul\":5418:5531   */\n        tag_88:\n            /* \"#utility.yul\":5488:5492   */\n          0x00\n            /* \"#utility.yul\":5520:5524   */\n          0x20\n            /* \"#utility.yul\":5515:5518   */\n          dup3\n            /* \"#utility.yul\":5511:5525   */\n          add\n            /* \"#utility.yul\":5503:5525   */\n          swap1\n          pop\n            /* \"#utility.yul\":5418:5531   */\n          swap2\n          swap1\n          pop\n          jump\t// out\n            /* \"#utility.yul\":5567:6299   */\n        tag_89:\n            /* \"#utility.yul\":5686:5689   */\n          0x00\n            /* \"#utility.yul\":5715:5769   */\n          tag_157\n            /* \"#utility.yul\":5763:5768   */\n          dup3\n            /* \"#utility.yul\":5715:5769   */\n          tag_83\n          jump\t// in\n        tag_157:\n            /* \"#utility.yul\":5785:5871   */\n          tag_158\n            /* \"#utility.yul\":5864:5870   */\n          dup2\n            /* \"#utility.yul\":5859:5862   */\n          dup6\n            /* \"#utility.yul\":5785:5871   */\n          tag_84\n          jump\t// in\n        tag_158:\n            /* \"#utility.yul\":5778:5871   */\n          swap4\n          pop\n            /* \"#utility.yul\":5895:5951   */\n          tag_159\n            /* \"#utility.yul\":5945:5950   */\n          dup4\n            /* \"#utility.yul\":5895:5951   */\n          tag_85\n          jump\t// in\n        tag_159:\n            /* \"#utility.yul\":5974:5981   */\n          dup1\n            /* \"#utility.yul\":6005:6006   */\n          0x00\n            /* \"#utility.yul\":5990:6274   */\n        tag_160:\n            /* \"#utility.yul\":6015:6021   */\n          dup4\n            /* \"#utility.yul\":6012:6013   */\n          dup2\n            /* \"#utility.yul\":6009:6022   */\n          lt\n            /* \"#utility.yul\":5990:6274   */\n          iszero\n          tag_162\n          jumpi\n            /* \"#utility.yul\":6091:6097   */\n          dup2\n            /* \"#utility.yul\":6085:6098   */\n          mload\n            /* \"#utility.yul\":6118:6181   */\n          tag_163\n            /* \"#utility.yul\":6177:6180   */\n          dup9\n            /* \"#utility.yul\":6162:6175   */\n          dup3\n            /* \"#utility.yul\":6118:6181   */\n          tag_87\n          jump\t// in\n        tag_163:\n            /* \"#utility.yul\":6111:6181   */\n          swap8\n          pop\n            /* \"#utility.yul\":6204:6264   */\n          tag_164\n            /* \"#utility.yul\":6257:6263   */\n          dup4\n            /* \"#utility.yul\":6204:6264   */\n          tag_88\n          jump\t// in\n        tag_164:\n            /* \"#utility.yul\":6194:6264   */\n          swap3\n          pop\n            /* \"#utility.yul\":6050:6274   */\n          pop\n            /* \"#utility.yul\":6037:6038   */\n          0x01\n            /* \"#utility.yul\":6034:6035   */\n          dup2\n            /* \"#utility.yul\":6030:6039   */\n          add\n            /* \"#utility.yul\":6025:6039   */\n          swap1\n          pop\n            /* \"#utility.yul\":5990:6274   */\n          jump(tag_160)\n        tag_162:\n            /* \"#utility.yul\":5994:6008   */\n          pop\n            /* \"#utility.yul\":6290:6293   */\n          dup6\n            /* \"#utility.yul\":6283:6293   */\n          swap4\n          pop\n            /* \"#utility.yul\":5691:6299   */\n          pop\n          pop\n          pop\n            /* \"#utility.yul\":5567:6299   */\n          swap3\n          swap2\n          pop\n          pop\n          jump\t// out\n            /* \"#utility.yul\":6305:6678   */\n        tag_23:\n            /* \"#utility.yul\":6448:6452   */\n          0x00\n            /* \"#utility.yul\":6486:6488   */\n          0x20\n            /* \"#utility.yul\":6475:6484   */\n          dup3\n            /* \"#utility.yul\":6471:6489   */\n          add\n            /* \"#utility.yul\":6463:6489   */\n          swap1\n          pop\n            /* \"#utility.yul\":6535:6544   */\n          dup2\n            /* \"#utility.yul\":6529:6533   */\n          dup2\n            /* \"#utility.yul\":6525:6545   */\n          sub\n            /* \"#utility.yul\":6521:6522   */\n          0x00\n            /* \"#utility.yul\":6510:6519   */\n          dup4\n            /* \"#utility.yul\":6506:6523   */\n          add\n            /* \"#utility.yul\":6499:6546   */\n          mstore\n            /* \"#utility.yul\":6563:6671   */\n          tag_166\n            /* \"#utility.yul\":6666:6670   */\n          dup2\n            /* \"#utility.yul\":6657:6663   */\n          dup5\n            /* \"#utility.yul\":6563:6671   */\n          tag_89\n          jump\t// in\n        tag_166:\n            /* \"#utility.yul\":6555:6671   */\n          swap1\n          pop\n            /* \"#utility.yul\":6305:6678   */\n          swap3\n          swap2\n          pop\n          pop\n          jump\t// out\n            /* \"#utility.yul\":6684:6864   */\n        tag_90:\n            /* \"#utility.yul\":6732:6809   */\n          0x4e487b7100000000000000000000000000000000000000000000000000000000\n            /* \"#utility.yul\":6729:6730   */\n          0x00\n            /* \"#utility.yul\":6722:6810   */\n          mstore\n            /* \"#utility.yul\":6829:6833   */\n          0x12\n            /* \"#utility.yul\":6826:6827   */\n          0x04\n            /* \"#utility.yul\":6819:6834   */\n          mstore\n            /* \"#utility.yul\":6853:6857   */\n          0x24\n            /* \"#utility.yul\":6850:6851   */\n          0x00\n            /* \"#utility.yul\":6843:6858   */\n          revert\n            /* \"#utility.yul\":6870:7050   */\n        tag_91:\n            /* \"#utility.yul\":6918:6995   */\n          0x4e487b7100000000000000000000000000000000000000000000000000000000\n            /* \"#utility.yul\":6915:6916   */\n          0x00\n            /* \"#utility.yul\":6908:6996   */\n          mstore\n            /* \"#utility.yul\":7015:7019   */\n          0x11\n            /* \"#utility.yul\":7012:7013   */\n          0x04\n            /* \"#utility.yul\":7005:7020   */\n          mstore\n            /* \"#utility.yul\":7039:7043   */\n          0x24\n            /* \"#utility.yul\":7036:7037   */\n          0x00\n            /* \"#utility.yul\":7029:7044   */\n          revert\n            /* \"#utility.yul\":7056:7241   */\n        tag_31:\n            /* \"#utility.yul\":7096:7097   */\n          0x00\n            /* \"#utility.yul\":7113:7133   */\n          tag_170\n            /* \"#utility.yul\":7131:7132   */\n          dup3\n            /* \"#utility.yul\":7113:7133   */\n          tag_81\n          jump\t// in\n        tag_170:\n            /* \"#utility.yul\":7108:7133   */\n          swap2\n          pop\n            /* \"#utility.yul\":7147:7167   */\n          tag_171\n            /* \"#utility.yul\":7165:7166   */\n          dup4\n            /* \"#utility.yul\":7147:7167   */\n          tag_81\n          jump\t// in\n        tag_171:\n            /* \"#utility.yul\":7142:7167   */\n          swap3\n          pop\n            /* \"#utility.yul\":7186:7187   */\n          dup3\n            /* \"#utility.yul\":7176:7211   */\n          tag_172\n          jumpi\n            /* \"#utility.yul\":7191:7209   */\n          tag_173\n          tag_90\n          jump\t// in\n        tag_173:\n            /* \"#utility.yul\":7176:7211   */\n        tag_172:\n            /* \"#utility.yul\":7233:7234   */\n          dup3\n            /* \"#utility.yul\":7230:7231   */\n          dup3\n            /* \"#utility.yul\":7226:7235   */\n          div\n            /* \"#utility.yul\":7221:7235   */\n          swap1\n          pop\n            /* \"#utility.yul\":7056:7241   */\n          swap3\n          swap2\n          pop\n          pop\n          jump\t// out\n            /* \"#utility.yul\":7247:7427   */\n        tag_38:\n            /* \"#utility.yul\":7295:7372   */\n          0x4e487b7100000000000000000000000000000000000000000000000000000000\n            /* \"#utility.yul\":7292:7293   */\n          0x00\n            /* \"#utility.yul\":7285:7373   */\n          mstore\n            /* \"#utility.yul\":7392:7396   */\n          0x32\n            /* \"#utility.yul\":7389:7390   */\n          0x04\n            /* \"#utility.yul\":7382:7397   */\n          mstore\n            /* \"#utility.yul\":7416:7420   */\n          0x24\n            /* \"#utility.yul\":7413:7414   */\n          0x00\n            /* \"#utility.yul\":7406:7421   */\n          revert\n            /* \"#utility.yul\":7433:7738   */\n        tag_45:\n            /* \"#utility.yul\":7473:7476   */\n          0x00\n            /* \"#utility.yul\":7492:7512   */\n          tag_176\n            /* \"#utility.yul\":7510:7511   */\n          dup3\n            /* \"#utility.yul\":7492:7512   */\n          tag_81\n          jump\t// in\n        tag_176:\n            /* \"#utility.yul\":7487:7512   */\n          swap2\n          pop\n            /* \"#utility.yul\":7526:7546   */\n          tag_177\n            /* \"#utility.yul\":7544:7545   */\n          dup4\n            /* \"#utility.yul\":7526:7546   */\n          tag_81\n          jump\t// in\n        tag_177:\n            /* \"#utility.yul\":7521:7546   */\n          swap3\n          pop\n            /* \"#utility.yul\":7680:7681   */\n          dup3\n            /* \"#utility.yul\":7612:7678   */\n          0xffffffffffffffffffffffffffffffffffffffffffffffffffffffffffffffff\n            /* \"#utility.yul\":7608:7682   */\n          sub\n            /* \"#utility.yul\":7605:7606   */\n          dup3\n            /* \"#utility.yul\":7602:7683   */\n          gt\n            /* \"#utility.yul\":7599:7706   */\n          iszero\n          tag_178\n          jumpi\n            /* \"#utility.yul\":7686:7704   */\n          tag_179\n          tag_91\n          jump\t// in\n        tag_179:\n            /* \"#utility.yul\":7599:7706   */\n        tag_178:\n            /* \"#utility.yul\":7730:7731   */\n          dup3\n            /* \"#utility.yul\":7727:7728   */\n          dup3\n            /* \"#utility.yul\":7723:7732   */\n          add\n            /* \"#utility.yul\":7716:7732   */\n          swap1\n          pop\n            /* \"#utility.yul\":7433:7738   */\n          swap3\n          swap2\n          pop\n          pop\n          jump\t// out\n            /* \"#utility.yul\":7744:7862   */\n        tag_92:\n            /* \"#utility.yul\":7831:7855   */\n          tag_181\n            /* \"#utility.yul\":7849:7854   */\n          dup2\n            /* \"#utility.yul\":7831:7855   */\n          tag_76\n          jump\t// in\n        tag_181:\n            /* \"#utility.yul\":7826:7829   */\n          dup3\n            /* \"#utility.yul\":7819:7856   */\n          mstore\n            /* \"#utility.yul\":7744:7862   */\n          pop\n          pop\n          jump\t// out\n            /* \"#utility.yul\":7868:8090   */\n        tag_49:\n            /* \"#utility.yul\":7961:7965   */\n          0x00\n            /* \"#utility.yul\":7999:8001   */\n          0x20\n            /* \"#utility.yul\":7988:7997   */\n          dup3\n            /* \"#utility.yul\":7984:8002   */\n          add\n            /* \"#utility.yul\":7976:8002   */\n          swap1\n          pop\n            /* \"#utility.yul\":8012:8083   */\n          tag_183\n            /* \"#utility.yul\":8080:8081   */\n          0x00\n            /* \"#utility.yul\":8069:8078   */\n          dup4\n            /* \"#utility.yul\":8065:8082   */\n          add\n            /* \"#utility.yul\":8056:8062   */\n          dup5\n            /* \"#utility.yul\":8012:8083   */\n          tag_92\n          jump\t// in\n        tag_183:\n            /* \"#utility.yul\":7868:8090   */\n          swap3\n          swap2\n          pop\n          pop\n          jump\t// out\n            /* \"#utility.yul\":8096:8329   */\n        tag_54:\n            /* \"#utility.yul\":8135:8138   */\n          0x00\n            /* \"#utility.yul\":8158:8182   */\n          tag_185\n            /* \"#utility.yul\":8176:8181   */\n          dup3\n            /* \"#utility.yul\":8158:8182   */\n          tag_81\n          jump\t// in\n        tag_185:\n            /* \"#utility.yul\":8149:8182   */\n          swap2\n          pop\n            /* \"#utility.yul\":8204:8270   */\n          0xffffffffffffffffffffffffffffffffffffffffffffffffffffffffffffffff\n            /* \"#utility.yul\":8197:8202   */\n          dup3\n            /* \"#utility.yul\":8194:8271   */\n          eq\n            /* \"#utility.yul\":8191:8294   */\n          iszero\n          tag_186\n          jumpi\n            /* \"#utility.yul\":8274:8292   */\n          tag_187\n          tag_91\n          jump\t// in\n        tag_187:\n            /* \"#utility.yul\":8191:8294   */\n        tag_186:\n            /* \"#utility.yul\":8321:8322   */\n          0x01\n            /* \"#utility.yul\":8314:8319   */\n          dup3\n            /* \"#utility.yul\":8310:8323   */\n          add\n            /* \"#utility.yul\":8303:8323   */\n          swap1\n          pop\n            /* \"#utility.yul\":8096:8329   */\n          swap2\n          swap1\n          pop\n          jump\t// out\n\n        auxdata: 0xa26469706673582212201cd435bd72be2c5a4a424b888adea36d1648018da416b53b81343cb07ea54bd864736f6c634300080b0033\n    }\n}\n","bytecode":{"linkReferences":{},"object":"60806040523480156200001157600080fd5b5060405162001af738038062001af783398181016040528101906200003791906200016f565b806000806101000a81548173ffffffffffffffffffffffffffffffffffffffff021916908373ffffffffffffffffffffffffffffffffffffffff160217905550306040516200008690620000f7565b620000929190620001b2565b604051809103906000f080158015620000af573d6000803e3d6000fd5b50600260006101000a81548173ffffffffffffffffffffffffffffffffffffffff021916908373ffffffffffffffffffffffffffffffffffffffff16021790555050620001cf565b610cee8062000e0983390190565b600080fd5b600073ffffffffffffffffffffffffffffffffffffffff82169050919050565b600062000137826200010a565b9050919050565b62000149816200012a565b81146200015557600080fd5b50565b60008151905062000169816200013e565b92915050565b60006020828403121562000188576200018762000105565b5b6000620001988482850162000158565b91505092915050565b620001ac816200012a565b82525050565b6000602082019050620001c96000830184620001a1565b92915050565b610c2a80620001df6000396000f3fe608060405234801561001057600080fd5b50600436106100625760003560e01c806304b20725146100675780630aeaaf37146100835780634fb2e45d1461009f578063b8a76f54146100bb578063f0d85c89146100d7578063fbbf93a0146100f3575b600080fd5b610081600480360381019061007c91906106b6565b610113565b005b61009d6004803603810190610098919061084f565b6101dd565b005b6100b960048036038101906100b49190610898565b6102c8565b005b6100d560048036038101906100d0919061097a565b6103b8565b005b6100f160048036038101906100ec9190610898565b610427565b005b6100fb6104c0565b60405161010a93929190610a5a565b60405180910390f35b60008054906101000a900473ffffffffffffffffffffffffffffffffffffffff1673ffffffffffffffffffffffffffffffffffffffff163373ffffffffffffffffffffffffffffffffffffffff1614156101d95760008290508073ffffffffffffffffffffffffffffffffffffffff16636cd9f3be836040518263ffffffff1660e01b81526004016101a59190610a98565b600060405180830381600087803b1580156101bf57600080fd5b505af11580156101d3573d6000803e3d6000fd5b50505050505b5050565b60008054906101000a900473ffffffffffffffffffffffffffffffffffffffff1673ffffffffffffffffffffffffffffffffffffffff163373ffffffffffffffffffffffffffffffffffffffff1614156102c5576000600260009054906101000a900473ffffffffffffffffffffffffffffffffffffffff1690508073ffffffffffffffffffffffffffffffffffffffff16630aeaaf37836040518263ffffffff1660e01b81526004016102919190610b71565b600060405180830381600087803b1580156102ab57600080fd5b505af11580156102bf573d6000803e3d6000fd5b50505050505b50565b60008054906101000a900473ffffffffffffffffffffffffffffffffffffffff1673ffffffffffffffffffffffffffffffffffffffff163373ffffffffffffffffffffffffffffffffffffffff16148061036f5750600260009054906101000a900473ffffffffffffffffffffffffffffffffffffffff1673ffffffffffffffffffffffffffffffffffffffff163373ffffffffffffffffffffffffffffffffffffffff16145b156103b557806000806101000a81548173ffffffffffffffffffffffffffffffffffffffff021916908373ffffffffffffffffffffffffffffffffffffffff1602179055505b50565b60008054906101000a900473ffffffffffffffffffffffffffffffffffffffff1673ffffffffffffffffffffffffffffffffffffffff163373ffffffffffffffffffffffffffffffffffffffff1614156104245780600190805190602001906104229291906105a1565b505b50565b60008054906101000a900473ffffffffffffffffffffffffffffffffffffffff1673ffffffffffffffffffffffffffffffffffffffff163373ffffffffffffffffffffffffffffffffffffffff1614156104bd5780600260006101000a81548173ffffffffffffffffffffffffffffffffffffffff021916908373ffffffffffffffffffffffffffffffffffffffff1602179055505b50565b6000606060008060009054906101000a900473ffffffffffffffffffffffffffffffffffffffff169250600180546104f790610bc2565b80601f016020809104026020016040519081016040528092919081815260200182805461052390610bc2565b80156105705780601f1061054557610100808354040283529160200191610570565b820191906000526020600020905b81548152906001019060200180831161055357829003601f168201915b50505050509150600260009054906101000a900473ffffffffffffffffffffffffffffffffffffffff169050909192565b8280546105ad90610bc2565b90600052602060002090601f0160209004810192826105cf5760008555610616565b82601f106105e857805160ff1916838001178555610616565b82800160010185558215610616579182015b828111156106155782518255916020019190600101906105fa565b5b5090506106239190610627565b5090565b5b80821115610640576000816000905550600101610628565b5090565b6000604051905090565b600080fd5b600080fd5b600073ffffffffffffffffffffffffffffffffffffffff82169050919050565b600061068382610658565b9050919050565b61069381610678565b811461069e57600080fd5b50565b6000813590506106b08161068a565b92915050565b600080604083850312156106cd576106cc61064e565b5b60006106db858286016106a1565b92505060206106ec858286016106a1565b9150509250929050565b600080fd5b6000601f19601f8301169050919050565b7f4e487b7100000000000000000000000000000000000000000000000000000000600052604160045260246000fd5b610744826106fb565b810181811067ffffffffffffffff821117156107635761076261070c565b5b80604052505050565b6000610776610644565b9050610782828261073b565b919050565b600067ffffffffffffffff8211156107a2576107a161070c565b5b602082029050602081019050919050565b600080fd5b60006107cb6107c684610787565b61076c565b905080838252602082019050602084028301858111156107ee576107ed6107b3565b5b835b81811015610817578061080388826106a1565b8452602084019350506020810190506107f0565b5050509392505050565b600082601f830112610836576108356106f6565b5b81356108468482602086016107b8565b91505092915050565b6000602082840312156108655761086461064e565b5b600082013567ffffffffffffffff81111561088357610882610653565b5b61088f84828501610821565b91505092915050565b6000602082840312156108ae576108ad61064e565b5b60006108bc848285016106a1565b91505092915050565b600080fd5b600067ffffffffffffffff8211156108e5576108e461070c565b5b6108ee826106fb565b9050602081019050919050565b82818337600083830152505050565b600061091d610918846108ca565b61076c565b905082815260208101848484011115610939576109386108c5565b5b6109448482856108fb565b509392505050565b600082601f830112610961576109606106f6565b5b813561097184826020860161090a565b91505092915050565b6000602082840312156109905761098f61064e565b5b600082013567ffffffffffffffff8111156109ae576109ad610653565b5b6109ba8482850161094c565b91505092915050565b6109cc81610678565b82525050565b600081519050919050565b600082825260208201905092915050565b60005b83811015610a0c5780820151818401526020810190506109f1565b83811115610a1b576000848401525b50505050565b6000610a2c826109d2565b610a3681856109dd565b9350610a468185602086016109ee565b610a4f816106fb565b840191505092915050565b6000606082019050610a6f60008301866109c3565b8181036020830152610a818185610a21565b9050610a9060408301846109c3565b949350505050565b6000602082019050610aad60008301846109c3565b92915050565b600081519050919050565b600082825260208201905092915050565b6000819050602082019050919050565b610ae881610678565b82525050565b6000610afa8383610adf565b60208301905092915050565b6000602082019050919050565b6000610b1e82610ab3565b610b288185610abe565b9350610b3383610acf565b8060005b83811015610b64578151610b4b8882610aee565b9750610b5683610b06565b925050600181019050610b37565b5085935050505092915050565b60006020820190508181036000830152610b8b8184610b13565b905092915050565b7f4e487b7100000000000000000000000000000000000000000000000000000000600052602260045260246000fd5b60006002820490506001821680610bda57607f821691505b60208210811415610bee57610bed610b93565b5b5091905056fea26469706673582212208a24b394a031b15ef5bf6c86b5ad7f62f76dd2560790841519d550cdc166301c64736f6c634300080b0033608060405234801561001057600080fd5b50604051610cee380380610cee833981810160405281019061003291906100db565b806000806101000a81548173ffffffffffffffffffffffffffffffffffffffff021916908373ffffffffffffffffffffffffffffffffffffffff16021790555050610108565b600080fd5b600073ffffffffffffffffffffffffffffffffffffffff82169050919050565b60006100a88261007d565b9050919050565b6100b88161009d565b81146100c357600080fd5b50565b6000815190506100d5816100af565b92915050565b6000602082840312156100f1576100f0610078565b5b60006100ff848285016100c6565b91505092915050565b610bd7806101176000396000f3fe608060405234801561001057600080fd5b506004361061004c5760003560e01c80630aeaaf37146100515780634ca660a81461006d5780636cd9f3be1461009e578063db920b77146100ba575b600080fd5b61006b60048036038101906100669190610882565b6100d8565b005b610087600480360381019061008291906108cb565b610147565b604051610095929190610911565b60405180910390f35b6100b860048036038101906100b391906108cb565b6101a5565b005b6100c2610582565b6040516100cf91906109f8565b60405180910390f35b60008054906101000a900473ffffffffffffffffffffffffffffffffffffffff1673ffffffffffffffffffffffffffffffffffffffff163373ffffffffffffffffffffffffffffffffffffffff161415610144578060019080519060200190610142929190610610565b505b50565b600080600360008473ffffffffffffffffffffffffffffffffffffffff1673ffffffffffffffffffffffffffffffffffffffff168152602001908152602001600020549150600260018054905061019e9190610a78565b9050915091565b60005b60018054905081101561057e573373ffffffffffffffffffffffffffffffffffffffff16600182815481106101e0576101df610aa9565b5b9060005260206000200160009054906101000a900473ffffffffffffffffffffffffffffffffffffffff1673ffffffffffffffffffffffffffffffffffffffff16141561056b578173ffffffffffffffffffffffffffffffffffffffff16600260003373ffffffffffffffffffffffffffffffffffffffff1673ffffffffffffffffffffffffffffffffffffffff16815260200190815260200160002060009054906101000a900473ffffffffffffffffffffffffffffffffffffffff1673ffffffffffffffffffffffffffffffffffffffff16141580156103605750600060036000600260003373ffffffffffffffffffffffffffffffffffffffff1673ffffffffffffffffffffffffffffffffffffffff16815260200190815260200160002060009054906101000a900473ffffffffffffffffffffffffffffffffffffffff1673ffffffffffffffffffffffffffffffffffffffff1673ffffffffffffffffffffffffffffffffffffffff16815260200190815260200160002054145b1561043b5781600260003373ffffffffffffffffffffffffffffffffffffffff1673ffffffffffffffffffffffffffffffffffffffff16815260200190815260200160002060006101000a81548173ffffffffffffffffffffffffffffffffffffffff021916908373ffffffffffffffffffffffffffffffffffffffff1602179055506001600360008473ffffffffffffffffffffffffffffffffffffffff1673ffffffffffffffffffffffffffffffffffffffff16815260200190815260200160002060008282546104339190610ad8565b925050819055505b600260018054905061044d9190610a78565b600360008473ffffffffffffffffffffffffffffffffffffffff1673ffffffffffffffffffffffffffffffffffffffff168152602001908152602001600020541061056a5760008060009054906101000a900473ffffffffffffffffffffffffffffffffffffffff1690506000600360008573ffffffffffffffffffffffffffffffffffffffff1673ffffffffffffffffffffffffffffffffffffffff168152602001908152602001600020819055508073ffffffffffffffffffffffffffffffffffffffff16634fb2e45d846040518263ffffffff1660e01b81526004016105369190610b3d565b600060405180830381600087803b15801561055057600080fd5b505af1158015610564573d6000803e3d6000fd5b50505050505b5b808061057690610b58565b9150506101a8565b5050565b6060600180548060200260200160405190810160405280929190818152602001828054801561060657602002820191906000526020600020905b8160009054906101000a900473ffffffffffffffffffffffffffffffffffffffff1673ffffffffffffffffffffffffffffffffffffffff16815260200190600101908083116105bc575b5050505050905090565b828054828255906000526020600020908101928215610689579160200282015b828111156106885782518260006101000a81548173ffffffffffffffffffffffffffffffffffffffff021916908373ffffffffffffffffffffffffffffffffffffffff16021790555091602001919060010190610630565b5b509050610696919061069a565b5090565b5b808211156106b357600081600090555060010161069b565b5090565b6000604051905090565b600080fd5b600080fd5b600080fd5b6000601f19601f8301169050919050565b7f4e487b7100000000000000000000000000000000000000000000000000000000600052604160045260246000fd5b610719826106d0565b810181811067ffffffffffffffff82111715610738576107376106e1565b5b80604052505050565b600061074b6106b7565b90506107578282610710565b919050565b600067ffffffffffffffff821115610777576107766106e1565b5b602082029050602081019050919050565b600080fd5b600073ffffffffffffffffffffffffffffffffffffffff82169050919050565b60006107b88261078d565b9050919050565b6107c8816107ad565b81146107d357600080fd5b50565b6000813590506107e5816107bf565b92915050565b60006107fe6107f98461075c565b610741565b9050808382526020820190506020840283018581111561082157610820610788565b5b835b8181101561084a578061083688826107d6565b845260208401935050602081019050610823565b5050509392505050565b600082601f830112610869576108686106cb565b5b81356108798482602086016107eb565b91505092915050565b600060208284031215610898576108976106c1565b5b600082013567ffffffffffffffff8111156108b6576108b56106c6565b5b6108c284828501610854565b91505092915050565b6000602082840312156108e1576108e06106c1565b5b60006108ef848285016107d6565b91505092915050565b6000819050919050565b61090b816108f8565b82525050565b60006040820190506109266000830185610902565b6109336020830184610902565b9392505050565b600081519050919050565b600082825260208201905092915050565b6000819050602082019050919050565b61096f816107ad565b82525050565b60006109818383610966565b60208301905092915050565b6000602082019050919050565b60006109a58261093a565b6109af8185610945565b93506109ba83610956565b8060005b838110156109eb5781516109d28882610975565b97506109dd8361098d565b9250506001810190506109be565b5085935050505092915050565b60006020820190508181036000830152610a12818461099a565b905092915050565b7f4e487b7100000000000000000000000000000000000000000000000000000000600052601260045260246000fd5b7f4e487b7100000000000000000000000000000000000000000000000000000000600052601160045260246000fd5b6000610a83826108f8565b9150610a8e836108f8565b925082610a9e57610a9d610a1a565b5b828204905092915050565b7f4e487b7100000000000000000000000000000000000000000000000000000000600052603260045260246000fd5b6000610ae3826108f8565b9150610aee836108f8565b9250827fffffffffffffffffffffffffffffffffffffffffffffffffffffffffffffffff03821115610b2357610b22610a49565b5b828201905092915050565b610b37816107ad565b82525050565b6000602082019050610b526000830184610b2e565b92915050565b6000610b63826108f8565b91507fffffffffffffffffffffffffffffffffffffffffffffffffffffffffffffffff821415610b9657610b95610a49565b5b60018201905091905056fea26469706673582212201cd435bd72be2c5a4a424b888adea36d1648018da416b53b81343cb07ea54bd864736f6c634300080b0033","opcodes":"PUSH1 0x80 PUSH1 0x40 MSTORE CALLVALUE DUP1 ISZERO PUSH3 0x11 JUMPI PUSH1 0x0 DUP1 REVERT JUMPDEST POP PUSH1 0x40 MLOAD PUSH3 0x1AF7 CODESIZE SUB DUP1 PUSH3 0x1AF7 DUP4 CODECOPY DUP2 DUP2 ADD PUSH1 0x40 MSTORE DUP2 ADD SWAP1 PUSH3 0x37 SWAP2 SWAP1 PUSH3 0x16F JUMP JUMPDEST DUP1 PUSH1 0x0 DUP1 PUSH2 0x100 EXP DUP2 SLOAD DUP2 PUSH20 0xFFFFFFFFFFFFFFFFFFFFFFFFFFFFFFFFFFFFFFFF MUL NOT AND SWAP1 DUP4 PUSH20 0xFFFFFFFFFFFFFFFFFFFFFFFFFFFFFFFFFFFFFFFF AND MUL OR SWAP1 SSTORE POP ADDRESS PUSH1 0x40 MLOAD PUSH3 0x86 SWAP1 PUSH3 0xF7 JUMP JUMPDEST PUSH3 0x92 SWAP2 SWAP1 PUSH3 0x1B2 JUMP JUMPDEST PUSH1 0x40 MLOAD DUP1 SWAP2 SUB SWAP1 PUSH1 0x0 CREATE DUP1 ISZERO DUP1 ISZERO PUSH3 0xAF JUMPI RETURNDATASIZE PUSH1 0x0 DUP1 RETURNDATACOPY RETURNDATASIZE PUSH1 0x0 REVERT JUMPDEST POP PUSH1 0x2 PUSH1 0x0 PUSH2 0x100 EXP DUP2 SLOAD DUP2 PUSH20 0xFFFFFFFFFFFFFFFFFFFFFFFFFFFFFFFFFFFFFFFF MUL NOT AND SWAP1 DUP4 PUSH20 0xFFFFFFFFFFFFFFFFFFFFFFFFFFFFFFFFFFFFFFFF AND MUL OR SWAP1 SSTORE POP POP PUSH3 0x1CF JUMP JUMPDEST PUSH2 0xCEE DUP1 PUSH3 0xE09 DUP4 CODECOPY ADD SWAP1 JUMP JUMPDEST PUSH1 0x0 DUP1 REVERT JUMPDEST PUSH1 0x0 PUSH20 0xFFFFFFFFFFFFFFFFFFFFFFFFFFFFFFFFFFFFFFFF DUP3 AND SWAP1 POP SWAP2 SWAP1 POP JUMP JUMPDEST PUSH1 0x0 PUSH3 0x137 DUP3 PUSH3 0x10A JUMP JUMPDEST SWAP1 POP SWAP2 SWAP1 POP JUMP JUMPDEST PUSH3 0x149 DUP2 PUSH3 0x12A JUMP JUMPDEST DUP2 EQ PUSH3 0x155 JUMPI PUSH1 0x0 DUP1 REVERT JUMPDEST POP JUMP JUMPDEST PUSH1 0x0 DUP2 MLOAD SWAP1 POP PUSH3 0x169 DUP2 PUSH3 0x13E JUMP JUMPDEST SWAP3 SWAP2 POP POP JUMP JUMPDEST PUSH1 0x0 PUSH1 0x20 DUP3 DUP5 SUB SLT ISZERO PUSH3 0x188 JUMPI PUSH3 0x187 PUSH3 0x105 JUMP JUMPDEST JUMPDEST PUSH1 0x0 PUSH3 0x198 DUP5 DUP3 DUP6 ADD PUSH3 0x158 JUMP JUMPDEST SWAP2 POP POP SWAP3 SWAP2 POP POP JUMP JUMPDEST PUSH3 0x1AC DUP2 PUSH3 0x12A JUMP JUMPDEST DUP3 MSTORE POP POP JUMP JUMPDEST PUSH1 0x0 PUSH1 0x20 DUP3 ADD SWAP1 POP PUSH3 0x1C9 PUSH1 0x0 DUP4 ADD DUP5 PUSH3 0x1A1 JUMP JUMPDEST SWAP3 SWAP2 POP POP JUMP JUMPDEST PUSH2 0xC2A DUP1 PUSH3 0x1DF PUSH1 0x0 CODECOPY PUSH1 0x0 RETURN INVALID PUSH1 0x80 PUSH1 0x40 MSTORE CALLVALUE DUP1 ISZERO PUSH2 0x10 JUMPI PUSH1 0x0 DUP1 REVERT JUMPDEST POP PUSH1 0x4 CALLDATASIZE LT PUSH2 0x62 JUMPI PUSH1 0x0 CALLDATALOAD PUSH1 0xE0 SHR DUP1 PUSH4 0x4B20725 EQ PUSH2 0x67 JUMPI DUP1 PUSH4 0xAEAAF37 EQ PUSH2 0x83 JUMPI DUP1 PUSH4 0x4FB2E45D EQ PUSH2 0x9F JUMPI DUP1 PUSH4 0xB8A76F54 EQ PUSH2 0xBB JUMPI DUP1 PUSH4 0xF0D85C89 EQ PUSH2 0xD7 JUMPI DUP1 PUSH4 0xFBBF93A0 EQ PUSH2 0xF3 JUMPI JUMPDEST PUSH1 0x0 DUP1 REVERT JUMPDEST PUSH2 0x81 PUSH1 0x4 DUP1 CALLDATASIZE SUB DUP2 ADD SWAP1 PUSH2 0x7C SWAP2 SWAP1 PUSH2 0x6B6 JUMP JUMPDEST PUSH2 0x113 JUMP JUMPDEST STOP JUMPDEST PUSH2 0x9D PUSH1 0x4 DUP1 CALLDATASIZE SUB DUP2 ADD SWAP1 PUSH2 0x98 SWAP2 SWAP1 PUSH2 0x84F JUMP JUMPDEST PUSH2 0x1DD JUMP JUMPDEST STOP JUMPDEST PUSH2 0xB9 PUSH1 0x4 DUP1 CALLDATASIZE SUB DUP2 ADD SWAP1 PUSH2 0xB4 SWAP2 SWAP1 PUSH2 0x898 JUMP JUMPDEST PUSH2 0x2C8 JUMP JUMPDEST STOP JUMPDEST PUSH2 0xD5 PUSH1 0x4 DUP1 CALLDATASIZE SUB DUP2 ADD SWAP1 PUSH2 0xD0 SWAP2 SWAP1 PUSH2 0x97A JUMP JUMPDEST PUSH2 0x3B8 JUMP JUMPDEST STOP JUMPDEST PUSH2 0xF1 PUSH1 0x4 DUP1 CALLDATASIZE SUB DUP2 ADD SWAP1 PUSH2 0xEC SWAP2 SWAP1 PUSH2 0x898 JUMP JUMPDEST PUSH2 0x427 JUMP JUMPDEST STOP JUMPDEST PUSH2 0xFB PUSH2 0x4C0 JUMP JUMPDEST PUSH1 0x40 MLOAD PUSH2 0x10A SWAP4 SWAP3 SWAP2 SWAP1 PUSH2 0xA5A JUMP JUMPDEST PUSH1 0x40 MLOAD DUP1 SWAP2 SUB SWAP1 RETURN JUMPDEST PUSH1 0x0 DUP1 SLOAD SWAP1 PUSH2 0x100 EXP SWAP1 DIV PUSH20 0xFFFFFFFFFFFFFFFFFFFFFFFFFFFFFFFFFFFFFFFF AND PUSH20 0xFFFFFFFFFFFFFFFFFFFFFFFFFFFFFFFFFFFFFFFF AND CALLER PUSH20 0xFFFFFFFFFFFFFFFFFFFFFFFFFFFFFFFFFFFFFFFF AND EQ ISZERO PUSH2 0x1D9 JUMPI PUSH1 0x0 DUP3 SWAP1 POP DUP1 PUSH20 0xFFFFFFFFFFFFFFFFFFFFFFFFFFFFFFFFFFFFFFFF AND PUSH4 0x6CD9F3BE DUP4 PUSH1 0x40 MLOAD DUP3 PUSH4 0xFFFFFFFF AND PUSH1 0xE0 SHL DUP2 MSTORE PUSH1 0x4 ADD PUSH2 0x1A5 SWAP2 SWAP1 PUSH2 0xA98 JUMP JUMPDEST PUSH1 0x0 PUSH1 0x40 MLOAD DUP1 DUP4 SUB DUP2 PUSH1 0x0 DUP8 DUP1 EXTCODESIZE ISZERO DUP1 ISZERO PUSH2 0x1BF JUMPI PUSH1 0x0 DUP1 REVERT JUMPDEST POP GAS CALL ISZERO DUP1 ISZERO PUSH2 0x1D3 JUMPI RETURNDATASIZE PUSH1 0x0 DUP1 RETURNDATACOPY RETURNDATASIZE PUSH1 0x0 REVERT JUMPDEST POP POP POP POP POP JUMPDEST POP POP JUMP JUMPDEST PUSH1 0x0 DUP1 SLOAD SWAP1 PUSH2 0x100 EXP SWAP1 DIV PUSH20 0xFFFFFFFFFFFFFFFFFFFFFFFFFFFFFFFFFFFFFFFF AND PUSH20 0xFFFFFFFFFFFFFFFFFFFFFFFFFFFFFFFFFFFFFFFF AND CALLER PUSH20 0xFFFFFFFFFFFFFFFFFFFFFFFFFFFFFFFFFFFFFFFF AND EQ ISZERO PUSH2 0x2C5 JUMPI PUSH1 0x0 PUSH1 0x2 PUSH1 0x0 SWAP1 SLOAD SWAP1 PUSH2 0x100 EXP SWAP1 DIV PUSH20 0xFFFFFFFFFFFFFFFFFFFFFFFFFFFFFFFFFFFFFFFF AND SWAP1 POP DUP1 PUSH20 0xFFFFFFFFFFFFFFFFFFFFFFFFFFFFFFFFFFFFFFFF AND PUSH4 0xAEAAF37 DUP4 PUSH1 0x40 MLOAD DUP3 PUSH4 0xFFFFFFFF AND PUSH1 0xE0 SHL DUP2 MSTORE PUSH1 0x4 ADD PUSH2 0x291 SWAP2 SWAP1 PUSH2 0xB71 JUMP JUMPDEST PUSH1 0x0 PUSH1 0x40 MLOAD DUP1 DUP4 SUB DUP2 PUSH1 0x0 DUP8 DUP1 EXTCODESIZE ISZERO DUP1 ISZERO PUSH2 0x2AB JUMPI PUSH1 0x0 DUP1 REVERT JUMPDEST POP GAS CALL ISZERO DUP1 ISZERO PUSH2 0x2BF JUMPI RETURNDATASIZE PUSH1 0x0 DUP1 RETURNDATACOPY RETURNDATASIZE PUSH1 0x0 REVERT JUMPDEST POP POP POP POP POP JUMPDEST POP JUMP JUMPDEST PUSH1 0x0 DUP1 SLOAD SWAP1 PUSH2 0x100 EXP SWAP1 DIV PUSH20 0xFFFFFFFFFFFFFFFFFFFFFFFFFFFFFFFFFFFFFFFF AND PUSH20 0xFFFFFFFFFFFFFFFFFFFFFFFFFFFFFFFFFFFFFFFF AND CALLER PUSH20 0xFFFFFFFFFFFFFFFFFFFFFFFFFFFFFFFFFFFFFFFF AND EQ DUP1 PUSH2 0x36F JUMPI POP PUSH1 0x2 PUSH1 0x0 SWAP1 SLOAD SWAP1 PUSH2 0x100 EXP SWAP1 DIV PUSH20 0xFFFFFFFFFFFFFFFFFFFFFFFFFFFFFFFFFFFFFFFF AND PUSH20 0xFFFFFFFFFFFFFFFFFFFFFFFFFFFFFFFFFFFFFFFF AND CALLER PUSH20 0xFFFFFFFFFFFFFFFFFFFFFFFFFFFFFFFFFFFFFFFF AND EQ JUMPDEST ISZERO PUSH2 0x3B5 JUMPI DUP1 PUSH1 0x0 DUP1 PUSH2 0x100 EXP DUP2 SLOAD DUP2 PUSH20 0xFFFFFFFFFFFFFFFFFFFFFFFFFFFFFFFFFFFFFFFF MUL NOT AND SWAP1 DUP4 PUSH20 0xFFFFFFFFFFFFFFFFFFFFFFFFFFFFFFFFFFFFFFFF AND MUL OR SWAP1 SSTORE POP JUMPDEST POP JUMP JUMPDEST PUSH1 0x0 DUP1 SLOAD SWAP1 PUSH2 0x100 EXP SWAP1 DIV PUSH20 0xFFFFFFFFFFFFFFFFFFFFFFFFFFFFFFFFFFFFFFFF AND PUSH20 0xFFFFFFFFFFFFFFFFFFFFFFFFFFFFFFFFFFFFFFFF AND CALLER PUSH20 0xFFFFFFFFFFFFFFFFFFFFFFFFFFFFFFFFFFFFFFFF AND EQ ISZERO PUSH2 0x424 JUMPI DUP1 PUSH1 0x1 SWAP1 DUP1 MLOAD SWAP1 PUSH1 0x20 ADD SWAP1 PUSH2 0x422 SWAP3 SWAP2 SWAP1 PUSH2 0x5A1 JUMP JUMPDEST POP JUMPDEST POP JUMP JUMPDEST PUSH1 0x0 DUP1 SLOAD SWAP1 PUSH2 0x100 EXP SWAP1 DIV PUSH20 0xFFFFFFFFFFFFFFFFFFFFFFFFFFFFFFFFFFFFFFFF AND PUSH20 0xFFFFFFFFFFFFFFFFFFFFFFFFFFFFFFFFFFFFFFFF AND CALLER PUSH20 0xFFFFFFFFFFFFFFFFFFFFFFFFFFFFFFFFFFFFFFFF AND EQ ISZERO PUSH2 0x4BD JUMPI DUP1 PUSH1 0x2 PUSH1 0x0 PUSH2 0x100 EXP DUP2 SLOAD DUP2 PUSH20 0xFFFFFFFFFFFFFFFFFFFFFFFFFFFFFFFFFFFFFFFF MUL NOT AND SWAP1 DUP4 PUSH20 0xFFFFFFFFFFFFFFFFFFFFFFFFFFFFFFFFFFFFFFFF AND MUL OR SWAP1 SSTORE POP JUMPDEST POP JUMP JUMPDEST PUSH1 0x0 PUSH1 0x60 PUSH1 0x0 DUP1 PUSH1 0x0 SWAP1 SLOAD SWAP1 PUSH2 0x100 EXP SWAP1 DIV PUSH20 0xFFFFFFFFFFFFFFFFFFFFFFFFFFFFFFFFFFFFFFFF AND SWAP3 POP PUSH1 0x1 DUP1 SLOAD PUSH2 0x4F7 SWAP1 PUSH2 0xBC2 JUMP JUMPDEST DUP1 PUSH1 0x1F ADD PUSH1 0x20 DUP1 SWAP2 DIV MUL PUSH1 0x20 ADD PUSH1 0x40 MLOAD SWAP1 DUP2 ADD PUSH1 0x40 MSTORE DUP1 SWAP3 SWAP2 SWAP1 DUP2 DUP2 MSTORE PUSH1 0x20 ADD DUP3 DUP1 SLOAD PUSH2 0x523 SWAP1 PUSH2 0xBC2 JUMP JUMPDEST DUP1 ISZERO PUSH2 0x570 JUMPI DUP1 PUSH1 0x1F LT PUSH2 0x545 JUMPI PUSH2 0x100 DUP1 DUP4 SLOAD DIV MUL DUP4 MSTORE SWAP2 PUSH1 0x20 ADD SWAP2 PUSH2 0x570 JUMP JUMPDEST DUP3 ADD SWAP2 SWAP1 PUSH1 0x0 MSTORE PUSH1 0x20 PUSH1 0x0 KECCAK256 SWAP1 JUMPDEST DUP2 SLOAD DUP2 MSTORE SWAP1 PUSH1 0x1 ADD SWAP1 PUSH1 0x20 ADD DUP1 DUP4 GT PUSH2 0x553 JUMPI DUP3 SWAP1 SUB PUSH1 0x1F AND DUP3 ADD SWAP2 JUMPDEST POP POP POP POP POP SWAP2 POP PUSH1 0x2 PUSH1 0x0 SWAP1 SLOAD SWAP1 PUSH2 0x100 EXP SWAP1 DIV PUSH20 0xFFFFFFFFFFFFFFFFFFFFFFFFFFFFFFFFFFFFFFFF AND SWAP1 POP SWAP1 SWAP2 SWAP3 JUMP JUMPDEST DUP3 DUP1 SLOAD PUSH2 0x5AD SWAP1 PUSH2 0xBC2 JUMP JUMPDEST SWAP1 PUSH1 0x0 MSTORE PUSH1 0x20 PUSH1 0x0 KECCAK256 SWAP1 PUSH1 0x1F ADD PUSH1 0x20 SWAP1 DIV DUP2 ADD SWAP3 DUP3 PUSH2 0x5CF JUMPI PUSH1 0x0 DUP6 SSTORE PUSH2 0x616 JUMP JUMPDEST DUP3 PUSH1 0x1F LT PUSH2 0x5E8 JUMPI DUP1 MLOAD PUSH1 0xFF NOT AND DUP4 DUP1 ADD OR DUP6 SSTORE PUSH2 0x616 JUMP JUMPDEST DUP3 DUP1 ADD PUSH1 0x1 ADD DUP6 SSTORE DUP3 ISZERO PUSH2 0x616 JUMPI SWAP2 DUP3 ADD JUMPDEST DUP3 DUP2 GT ISZERO PUSH2 0x615 JUMPI DUP3 MLOAD DUP3 SSTORE SWAP2 PUSH1 0x20 ADD SWAP2 SWAP1 PUSH1 0x1 ADD SWAP1 PUSH2 0x5FA JUMP JUMPDEST JUMPDEST POP SWAP1 POP PUSH2 0x623 SWAP2 SWAP1 PUSH2 0x627 JUMP JUMPDEST POP SWAP1 JUMP JUMPDEST JUMPDEST DUP1 DUP3 GT ISZERO PUSH2 0x640 JUMPI PUSH1 0x0 DUP2 PUSH1 0x0 SWAP1 SSTORE POP PUSH1 0x1 ADD PUSH2 0x628 JUMP JUMPDEST POP SWAP1 JUMP JUMPDEST PUSH1 0x0 PUSH1 0x40 MLOAD SWAP1 POP SWAP1 JUMP JUMPDEST PUSH1 0x0 DUP1 REVERT JUMPDEST PUSH1 0x0 DUP1 REVERT JUMPDEST PUSH1 0x0 PUSH20 0xFFFFFFFFFFFFFFFFFFFFFFFFFFFFFFFFFFFFFFFF DUP3 AND SWAP1 POP SWAP2 SWAP1 POP JUMP JUMPDEST PUSH1 0x0 PUSH2 0x683 DUP3 PUSH2 0x658 JUMP JUMPDEST SWAP1 POP SWAP2 SWAP1 POP JUMP JUMPDEST PUSH2 0x693 DUP2 PUSH2 0x678 JUMP JUMPDEST DUP2 EQ PUSH2 0x69E JUMPI PUSH1 0x0 DUP1 REVERT JUMPDEST POP JUMP JUMPDEST PUSH1 0x0 DUP2 CALLDATALOAD SWAP1 POP PUSH2 0x6B0 DUP2 PUSH2 0x68A JUMP JUMPDEST SWAP3 SWAP2 POP POP JUMP JUMPDEST PUSH1 0x0 DUP1 PUSH1 0x40 DUP4 DUP6 SUB SLT ISZERO PUSH2 0x6CD JUMPI PUSH2 0x6CC PUSH2 0x64E JUMP JUMPDEST JUMPDEST PUSH1 0x0 PUSH2 0x6DB DUP6 DUP3 DUP7 ADD PUSH2 0x6A1 JUMP JUMPDEST SWAP3 POP POP PUSH1 0x20 PUSH2 0x6EC DUP6 DUP3 DUP7 ADD PUSH2 0x6A1 JUMP JUMPDEST SWAP2 POP POP SWAP3 POP SWAP3 SWAP1 POP JUMP JUMPDEST PUSH1 0x0 DUP1 REVERT JUMPDEST PUSH1 0x0 PUSH1 0x1F NOT PUSH1 0x1F DUP4 ADD AND SWAP1 POP SWAP2 SWAP1 POP JUMP JUMPDEST PUSH32 0x4E487B7100000000000000000000000000000000000000000000000000000000 PUSH1 0x0 MSTORE PUSH1 0x41 PUSH1 0x4 MSTORE PUSH1 0x24 PUSH1 0x0 REVERT JUMPDEST PUSH2 0x744 DUP3 PUSH2 0x6FB JUMP JUMPDEST DUP2 ADD DUP2 DUP2 LT PUSH8 0xFFFFFFFFFFFFFFFF DUP3 GT OR ISZERO PUSH2 0x763 JUMPI PUSH2 0x762 PUSH2 0x70C JUMP JUMPDEST JUMPDEST DUP1 PUSH1 0x40 MSTORE POP POP POP JUMP JUMPDEST PUSH1 0x0 PUSH2 0x776 PUSH2 0x644 JUMP JUMPDEST SWAP1 POP PUSH2 0x782 DUP3 DUP3 PUSH2 0x73B JUMP JUMPDEST SWAP2 SWAP1 POP JUMP JUMPDEST PUSH1 0x0 PUSH8 0xFFFFFFFFFFFFFFFF DUP3 GT ISZERO PUSH2 0x7A2 JUMPI PUSH2 0x7A1 PUSH2 0x70C JUMP JUMPDEST JUMPDEST PUSH1 0x20 DUP3 MUL SWAP1 POP PUSH1 0x20 DUP2 ADD SWAP1 POP SWAP2 SWAP1 POP JUMP JUMPDEST PUSH1 0x0 DUP1 REVERT JUMPDEST PUSH1 0x0 PUSH2 0x7CB PUSH2 0x7C6 DUP5 PUSH2 0x787 JUMP JUMPDEST PUSH2 0x76C JUMP JUMPDEST SWAP1 POP DUP1 DUP4 DUP3 MSTORE PUSH1 0x20 DUP3 ADD SWAP1 POP PUSH1 0x20 DUP5 MUL DUP4 ADD DUP6 DUP2 GT ISZERO PUSH2 0x7EE JUMPI PUSH2 0x7ED PUSH2 0x7B3 JUMP JUMPDEST JUMPDEST DUP4 JUMPDEST DUP2 DUP2 LT ISZERO PUSH2 0x817 JUMPI DUP1 PUSH2 0x803 DUP9 DUP3 PUSH2 0x6A1 JUMP JUMPDEST DUP5 MSTORE PUSH1 0x20 DUP5 ADD SWAP4 POP POP PUSH1 0x20 DUP2 ADD SWAP1 POP PUSH2 0x7F0 JUMP JUMPDEST POP POP POP SWAP4 SWAP3 POP POP POP JUMP JUMPDEST PUSH1 0x0 DUP3 PUSH1 0x1F DUP4 ADD SLT PUSH2 0x836 JUMPI PUSH2 0x835 PUSH2 0x6F6 JUMP JUMPDEST JUMPDEST DUP2 CALLDATALOAD PUSH2 0x846 DUP5 DUP3 PUSH1 0x20 DUP7 ADD PUSH2 0x7B8 JUMP JUMPDEST SWAP2 POP POP SWAP3 SWAP2 POP POP JUMP JUMPDEST PUSH1 0x0 PUSH1 0x20 DUP3 DUP5 SUB SLT ISZERO PUSH2 0x865 JUMPI PUSH2 0x864 PUSH2 0x64E JUMP JUMPDEST JUMPDEST PUSH1 0x0 DUP3 ADD CALLDATALOAD PUSH8 0xFFFFFFFFFFFFFFFF DUP2 GT ISZERO PUSH2 0x883 JUMPI PUSH2 0x882 PUSH2 0x653 JUMP JUMPDEST JUMPDEST PUSH2 0x88F DUP5 DUP3 DUP6 ADD PUSH2 0x821 JUMP JUMPDEST SWAP2 POP POP SWAP3 SWAP2 POP POP JUMP JUMPDEST PUSH1 0x0 PUSH1 0x20 DUP3 DUP5 SUB SLT ISZERO PUSH2 0x8AE JUMPI PUSH2 0x8AD PUSH2 0x64E JUMP JUMPDEST JUMPDEST PUSH1 0x0 PUSH2 0x8BC DUP5 DUP3 DUP6 ADD PUSH2 0x6A1 JUMP JUMPDEST SWAP2 POP POP SWAP3 SWAP2 POP POP JUMP JUMPDEST PUSH1 0x0 DUP1 REVERT JUMPDEST PUSH1 0x0 PUSH8 0xFFFFFFFFFFFFFFFF DUP3 GT ISZERO PUSH2 0x8E5 JUMPI PUSH2 0x8E4 PUSH2 0x70C JUMP JUMPDEST JUMPDEST PUSH2 0x8EE DUP3 PUSH2 0x6FB JUMP JUMPDEST SWAP1 POP PUSH1 0x20 DUP2 ADD SWAP1 POP SWAP2 SWAP1 POP JUMP JUMPDEST DUP3 DUP2 DUP4 CALLDATACOPY PUSH1 0x0 DUP4 DUP4 ADD MSTORE POP POP POP JUMP JUMPDEST PUSH1 0x0 PUSH2 0x91D PUSH2 0x918 DUP5 PUSH2 0x8CA JUMP JUMPDEST PUSH2 0x76C JUMP JUMPDEST SWAP1 POP DUP3 DUP2 MSTORE PUSH1 0x20 DUP2 ADD DUP5 DUP5 DUP5 ADD GT ISZERO PUSH2 0x939 JUMPI PUSH2 0x938 PUSH2 0x8C5 JUMP JUMPDEST JUMPDEST PUSH2 0x944 DUP5 DUP3 DUP6 PUSH2 0x8FB JUMP JUMPDEST POP SWAP4 SWAP3 POP POP POP JUMP JUMPDEST PUSH1 0x0 DUP3 PUSH1 0x1F DUP4 ADD SLT PUSH2 0x961 JUMPI PUSH2 0x960 PUSH2 0x6F6 JUMP JUMPDEST JUMPDEST DUP2 CALLDATALOAD PUSH2 0x971 DUP5 DUP3 PUSH1 0x20 DUP7 ADD PUSH2 0x90A JUMP JUMPDEST SWAP2 POP POP SWAP3 SWAP2 POP POP JUMP JUMPDEST PUSH1 0x0 PUSH1 0x20 DUP3 DUP5 SUB SLT ISZERO PUSH2 0x990 JUMPI PUSH2 0x98F PUSH2 0x64E JUMP JUMPDEST JUMPDEST PUSH1 0x0 DUP3 ADD CALLDATALOAD PUSH8 0xFFFFFFFFFFFFFFFF DUP2 GT ISZERO PUSH2 0x9AE JUMPI PUSH2 0x9AD PUSH2 0x653 JUMP JUMPDEST JUMPDEST PUSH2 0x9BA DUP5 DUP3 DUP6 ADD PUSH2 0x94C JUMP JUMPDEST SWAP2 POP POP SWAP3 SWAP2 POP POP JUMP JUMPDEST PUSH2 0x9CC DUP2 PUSH2 0x678 JUMP JUMPDEST DUP3 MSTORE POP POP JUMP JUMPDEST PUSH1 0x0 DUP2 MLOAD SWAP1 POP SWAP2 SWAP1 POP JUMP JUMPDEST PUSH1 0x0 DUP3 DUP3 MSTORE PUSH1 0x20 DUP3 ADD SWAP1 POP SWAP3 SWAP2 POP POP JUMP JUMPDEST PUSH1 0x0 JUMPDEST DUP4 DUP2 LT ISZERO PUSH2 0xA0C JUMPI DUP1 DUP3 ADD MLOAD DUP2 DUP5 ADD MSTORE PUSH1 0x20 DUP2 ADD SWAP1 POP PUSH2 0x9F1 JUMP JUMPDEST DUP4 DUP2 GT ISZERO PUSH2 0xA1B JUMPI PUSH1 0x0 DUP5 DUP5 ADD MSTORE JUMPDEST POP POP POP POP JUMP JUMPDEST PUSH1 0x0 PUSH2 0xA2C DUP3 PUSH2 0x9D2 JUMP JUMPDEST PUSH2 0xA36 DUP2 DUP6 PUSH2 0x9DD JUMP JUMPDEST SWAP4 POP PUSH2 0xA46 DUP2 DUP6 PUSH1 0x20 DUP7 ADD PUSH2 0x9EE JUMP JUMPDEST PUSH2 0xA4F DUP2 PUSH2 0x6FB JUMP JUMPDEST DUP5 ADD SWAP2 POP POP SWAP3 SWAP2 POP POP JUMP JUMPDEST PUSH1 0x0 PUSH1 0x60 DUP3 ADD SWAP1 POP PUSH2 0xA6F PUSH1 0x0 DUP4 ADD DUP7 PUSH2 0x9C3 JUMP JUMPDEST DUP2 DUP2 SUB PUSH1 0x20 DUP4 ADD MSTORE PUSH2 0xA81 DUP2 DUP6 PUSH2 0xA21 JUMP JUMPDEST SWAP1 POP PUSH2 0xA90 PUSH1 0x40 DUP4 ADD DUP5 PUSH2 0x9C3 JUMP JUMPDEST SWAP5 SWAP4 POP POP POP POP JUMP JUMPDEST PUSH1 0x0 PUSH1 0x20 DUP3 ADD SWAP1 POP PUSH2 0xAAD PUSH1 0x0 DUP4 ADD DUP5 PUSH2 0x9C3 JUMP JUMPDEST SWAP3 SWAP2 POP POP JUMP JUMPDEST PUSH1 0x0 DUP2 MLOAD SWAP1 POP SWAP2 SWAP1 POP JUMP JUMPDEST PUSH1 0x0 DUP3 DUP3 MSTORE PUSH1 0x20 DUP3 ADD SWAP1 POP SWAP3 SWAP2 POP POP JUMP JUMPDEST PUSH1 0x0 DUP2 SWAP1 POP PUSH1 0x20 DUP3 ADD SWAP1 POP SWAP2 SWAP1 POP JUMP JUMPDEST PUSH2 0xAE8 DUP2 PUSH2 0x678 JUMP JUMPDEST DUP3 MSTORE POP POP JUMP JUMPDEST PUSH1 0x0 PUSH2 0xAFA DUP4 DUP4 PUSH2 0xADF JUMP JUMPDEST PUSH1 0x20 DUP4 ADD SWAP1 POP SWAP3 SWAP2 POP POP JUMP JUMPDEST PUSH1 0x0 PUSH1 0x20 DUP3 ADD SWAP1 POP SWAP2 SWAP1 POP JUMP JUMPDEST PUSH1 0x0 PUSH2 0xB1E DUP3 PUSH2 0xAB3 JUMP JUMPDEST PUSH2 0xB28 DUP2 DUP6 PUSH2 0xABE JUMP JUMPDEST SWAP4 POP PUSH2 0xB33 DUP4 PUSH2 0xACF JUMP JUMPDEST DUP1 PUSH1 0x0 JUMPDEST DUP4 DUP2 LT ISZERO PUSH2 0xB64 JUMPI DUP2 MLOAD PUSH2 0xB4B DUP9 DUP3 PUSH2 0xAEE JUMP JUMPDEST SWAP8 POP PUSH2 0xB56 DUP4 PUSH2 0xB06 JUMP JUMPDEST SWAP3 POP POP PUSH1 0x1 DUP2 ADD SWAP1 POP PUSH2 0xB37 JUMP JUMPDEST POP DUP6 SWAP4 POP POP POP POP SWAP3 SWAP2 POP POP JUMP JUMPDEST PUSH1 0x0 PUSH1 0x20 DUP3 ADD SWAP1 POP DUP2 DUP2 SUB PUSH1 0x0 DUP4 ADD MSTORE PUSH2 0xB8B DUP2 DUP5 PUSH2 0xB13 JUMP JUMPDEST SWAP1 POP SWAP3 SWAP2 POP POP JUMP JUMPDEST PUSH32 0x4E487B7100000000000000000000000000000000000000000000000000000000 PUSH1 0x0 MSTORE PUSH1 0x22 PUSH1 0x4 MSTORE PUSH1 0x24 PUSH1 0x0 REVERT JUMPDEST PUSH1 0x0 PUSH1 0x2 DUP3 DIV SWAP1 POP PUSH1 0x1 DUP3 AND DUP1 PUSH2 0xBDA JUMPI PUSH1 0x7F DUP3 AND SWAP2 POP JUMPDEST PUSH1 0x20 DUP3 LT DUP2 EQ ISZERO PUSH2 0xBEE JUMPI PUSH2 0xBED PUSH2 0xB93 JUMP JUMPDEST JUMPDEST POP SWAP2 SWAP1 POP JUMP INVALID LOG2 PUSH5 0x6970667358 0x22 SLT KECCAK256 DUP11 0x24 0xB3 SWAP5 LOG0 BALANCE 0xB1 0x5E CREATE2 0xBF PUSH13 0x86B5AD7F62F76DD25607908415 NOT 0xD5 POP 0xCD 0xC1 PUSH7 0x301C64736F6C63 NUMBER STOP ADDMOD SIGNEXTEND STOP CALLER PUSH1 0x80 PUSH1 0x40 MSTORE CALLVALUE DUP1 ISZERO PUSH2 0x10 JUMPI PUSH1 0x0 DUP1 REVERT JUMPDEST POP PUSH1 0x40 MLOAD PUSH2 0xCEE CODESIZE SUB DUP1 PUSH2 0xCEE DUP4 CODECOPY DUP2 DUP2 ADD PUSH1 0x40 MSTORE DUP2 ADD SWAP1 PUSH2 0x32 SWAP2 SWAP1 PUSH2 0xDB JUMP JUMPDEST DUP1 PUSH1 0x0 DUP1 PUSH2 0x100 EXP DUP2 SLOAD DUP2 PUSH20 0xFFFFFFFFFFFFFFFFFFFFFFFFFFFFFFFFFFFFFFFF MUL NOT AND SWAP1 DUP4 PUSH20 0xFFFFFFFFFFFFFFFFFFFFFFFFFFFFFFFFFFFFFFFF AND MUL OR SWAP1 SSTORE POP POP PUSH2 0x108 JUMP JUMPDEST PUSH1 0x0 DUP1 REVERT JUMPDEST PUSH1 0x0 PUSH20 0xFFFFFFFFFFFFFFFFFFFFFFFFFFFFFFFFFFFFFFFF DUP3 AND SWAP1 POP SWAP2 SWAP1 POP JUMP JUMPDEST PUSH1 0x0 PUSH2 0xA8 DUP3 PUSH2 0x7D JUMP JUMPDEST SWAP1 POP SWAP2 SWAP1 POP JUMP JUMPDEST PUSH2 0xB8 DUP2 PUSH2 0x9D JUMP JUMPDEST DUP2 EQ PUSH2 0xC3 JUMPI PUSH1 0x0 DUP1 REVERT JUMPDEST POP JUMP JUMPDEST PUSH1 0x0 DUP2 MLOAD SWAP1 POP PUSH2 0xD5 DUP2 PUSH2 0xAF JUMP JUMPDEST SWAP3 SWAP2 POP POP JUMP JUMPDEST PUSH1 0x0 PUSH1 0x20 DUP3 DUP5 SUB SLT ISZERO PUSH2 0xF1 JUMPI PUSH2 0xF0 PUSH2 0x78 JUMP JUMPDEST JUMPDEST PUSH1 0x0 PUSH2 0xFF DUP5 DUP3 DUP6 ADD PUSH2 0xC6 JUMP JUMPDEST SWAP2 POP POP SWAP3 SWAP2 POP POP JUMP JUMPDEST PUSH2 0xBD7 DUP1 PUSH2 0x117 PUSH1 0x0 CODECOPY PUSH1 0x0 RETURN INVALID PUSH1 0x80 PUSH1 0x40 MSTORE CALLVALUE DUP1 ISZERO PUSH2 0x10 JUMPI PUSH1 0x0 DUP1 REVERT JUMPDEST POP PUSH1 0x4 CALLDATASIZE LT PUSH2 0x4C JUMPI PUSH1 0x0 CALLDATALOAD PUSH1 0xE0 SHR DUP1 PUSH4 0xAEAAF37 EQ PUSH2 0x51 JUMPI DUP1 PUSH4 0x4CA660A8 EQ PUSH2 0x6D JUMPI DUP1 PUSH4 0x6CD9F3BE EQ PUSH2 0x9E JUMPI DUP1 PUSH4 0xDB920B77 EQ PUSH2 0xBA JUMPI JUMPDEST PUSH1 0x0 DUP1 REVERT JUMPDEST PUSH2 0x6B PUSH1 0x4 DUP1 CALLDATASIZE SUB DUP2 ADD SWAP1 PUSH2 0x66 SWAP2 SWAP1 PUSH2 0x882 JUMP JUMPDEST PUSH2 0xD8 JUMP JUMPDEST STOP JUMPDEST PUSH2 0x87 PUSH1 0x4 DUP1 CALLDATASIZE SUB DUP2 ADD SWAP1 PUSH2 0x82 SWAP2 SWAP1 PUSH2 0x8CB JUMP JUMPDEST PUSH2 0x147 JUMP JUMPDEST PUSH1 0x40 MLOAD PUSH2 0x95 SWAP3 SWAP2 SWAP1 PUSH2 0x911 JUMP JUMPDEST PUSH1 0x40 MLOAD DUP1 SWAP2 SUB SWAP1 RETURN JUMPDEST PUSH2 0xB8 PUSH1 0x4 DUP1 CALLDATASIZE SUB DUP2 ADD SWAP1 PUSH2 0xB3 SWAP2 SWAP1 PUSH2 0x8CB JUMP JUMPDEST PUSH2 0x1A5 JUMP JUMPDEST STOP JUMPDEST PUSH2 0xC2 PUSH2 0x582 JUMP JUMPDEST PUSH1 0x40 MLOAD PUSH2 0xCF SWAP2 SWAP1 PUSH2 0x9F8 JUMP JUMPDEST PUSH1 0x40 MLOAD DUP1 SWAP2 SUB SWAP1 RETURN JUMPDEST PUSH1 0x0 DUP1 SLOAD SWAP1 PUSH2 0x100 EXP SWAP1 DIV PUSH20 0xFFFFFFFFFFFFFFFFFFFFFFFFFFFFFFFFFFFFFFFF AND PUSH20 0xFFFFFFFFFFFFFFFFFFFFFFFFFFFFFFFFFFFFFFFF AND CALLER PUSH20 0xFFFFFFFFFFFFFFFFFFFFFFFFFFFFFFFFFFFFFFFF AND EQ ISZERO PUSH2 0x144 JUMPI DUP1 PUSH1 0x1 SWAP1 DUP1 MLOAD SWAP1 PUSH1 0x20 ADD SWAP1 PUSH2 0x142 SWAP3 SWAP2 SWAP1 PUSH2 0x610 JUMP JUMPDEST POP JUMPDEST POP JUMP JUMPDEST PUSH1 0x0 DUP1 PUSH1 0x3 PUSH1 0x0 DUP5 PUSH20 0xFFFFFFFFFFFFFFFFFFFFFFFFFFFFFFFFFFFFFFFF AND PUSH20 0xFFFFFFFFFFFFFFFFFFFFFFFFFFFFFFFFFFFFFFFF AND DUP2 MSTORE PUSH1 0x20 ADD SWAP1 DUP2 MSTORE PUSH1 0x20 ADD PUSH1 0x0 KECCAK256 SLOAD SWAP2 POP PUSH1 0x2 PUSH1 0x1 DUP1 SLOAD SWAP1 POP PUSH2 0x19E SWAP2 SWAP1 PUSH2 0xA78 JUMP JUMPDEST SWAP1 POP SWAP2 POP SWAP2 JUMP JUMPDEST PUSH1 0x0 JUMPDEST PUSH1 0x1 DUP1 SLOAD SWAP1 POP DUP2 LT ISZERO PUSH2 0x57E JUMPI CALLER PUSH20 0xFFFFFFFFFFFFFFFFFFFFFFFFFFFFFFFFFFFFFFFF AND PUSH1 0x1 DUP3 DUP2 SLOAD DUP2 LT PUSH2 0x1E0 JUMPI PUSH2 0x1DF PUSH2 0xAA9 JUMP JUMPDEST JUMPDEST SWAP1 PUSH1 0x0 MSTORE PUSH1 0x20 PUSH1 0x0 KECCAK256 ADD PUSH1 0x0 SWAP1 SLOAD SWAP1 PUSH2 0x100 EXP SWAP1 DIV PUSH20 0xFFFFFFFFFFFFFFFFFFFFFFFFFFFFFFFFFFFFFFFF AND PUSH20 0xFFFFFFFFFFFFFFFFFFFFFFFFFFFFFFFFFFFFFFFF AND EQ ISZERO PUSH2 0x56B JUMPI DUP2 PUSH20 0xFFFFFFFFFFFFFFFFFFFFFFFFFFFFFFFFFFFFFFFF AND PUSH1 0x2 PUSH1 0x0 CALLER PUSH20 0xFFFFFFFFFFFFFFFFFFFFFFFFFFFFFFFFFFFFFFFF AND PUSH20 0xFFFFFFFFFFFFFFFFFFFFFFFFFFFFFFFFFFFFFFFF AND DUP2 MSTORE PUSH1 0x20 ADD SWAP1 DUP2 MSTORE PUSH1 0x20 ADD PUSH1 0x0 KECCAK256 PUSH1 0x0 SWAP1 SLOAD SWAP1 PUSH2 0x100 EXP SWAP1 DIV PUSH20 0xFFFFFFFFFFFFFFFFFFFFFFFFFFFFFFFFFFFFFFFF AND PUSH20 0xFFFFFFFFFFFFFFFFFFFFFFFFFFFFFFFFFFFFFFFF AND EQ ISZERO DUP1 ISZERO PUSH2 0x360 JUMPI POP PUSH1 0x0 PUSH1 0x3 PUSH1 0x0 PUSH1 0x2 PUSH1 0x0 CALLER PUSH20 0xFFFFFFFFFFFFFFFFFFFFFFFFFFFFFFFFFFFFFFFF AND PUSH20 0xFFFFFFFFFFFFFFFFFFFFFFFFFFFFFFFFFFFFFFFF AND DUP2 MSTORE PUSH1 0x20 ADD SWAP1 DUP2 MSTORE PUSH1 0x20 ADD PUSH1 0x0 KECCAK256 PUSH1 0x0 SWAP1 SLOAD SWAP1 PUSH2 0x100 EXP SWAP1 DIV PUSH20 0xFFFFFFFFFFFFFFFFFFFFFFFFFFFFFFFFFFFFFFFF AND PUSH20 0xFFFFFFFFFFFFFFFFFFFFFFFFFFFFFFFFFFFFFFFF AND PUSH20 0xFFFFFFFFFFFFFFFFFFFFFFFFFFFFFFFFFFFFFFFF AND DUP2 MSTORE PUSH1 0x20 ADD SWAP1 DUP2 MSTORE PUSH1 0x20 ADD PUSH1 0x0 KECCAK256 SLOAD EQ JUMPDEST ISZERO PUSH2 0x43B JUMPI DUP2 PUSH1 0x2 PUSH1 0x0 CALLER PUSH20 0xFFFFFFFFFFFFFFFFFFFFFFFFFFFFFFFFFFFFFFFF AND PUSH20 0xFFFFFFFFFFFFFFFFFFFFFFFFFFFFFFFFFFFFFFFF AND DUP2 MSTORE PUSH1 0x20 ADD SWAP1 DUP2 MSTORE PUSH1 0x20 ADD PUSH1 0x0 KECCAK256 PUSH1 0x0 PUSH2 0x100 EXP DUP2 SLOAD DUP2 PUSH20 0xFFFFFFFFFFFFFFFFFFFFFFFFFFFFFFFFFFFFFFFF MUL NOT AND SWAP1 DUP4 PUSH20 0xFFFFFFFFFFFFFFFFFFFFFFFFFFFFFFFFFFFFFFFF AND MUL OR SWAP1 SSTORE POP PUSH1 0x1 PUSH1 0x3 PUSH1 0x0 DUP5 PUSH20 0xFFFFFFFFFFFFFFFFFFFFFFFFFFFFFFFFFFFFFFFF AND PUSH20 0xFFFFFFFFFFFFFFFFFFFFFFFFFFFFFFFFFFFFFFFF AND DUP2 MSTORE PUSH1 0x20 ADD SWAP1 DUP2 MSTORE PUSH1 0x20 ADD PUSH1 0x0 KECCAK256 PUSH1 0x0 DUP3 DUP3 SLOAD PUSH2 0x433 SWAP2 SWAP1 PUSH2 0xAD8 JUMP JUMPDEST SWAP3 POP POP DUP2 SWAP1 SSTORE POP JUMPDEST PUSH1 0x2 PUSH1 0x1 DUP1 SLOAD SWAP1 POP PUSH2 0x44D SWAP2 SWAP1 PUSH2 0xA78 JUMP JUMPDEST PUSH1 0x3 PUSH1 0x0 DUP5 PUSH20 0xFFFFFFFFFFFFFFFFFFFFFFFFFFFFFFFFFFFFFFFF AND PUSH20 0xFFFFFFFFFFFFFFFFFFFFFFFFFFFFFFFFFFFFFFFF AND DUP2 MSTORE PUSH1 0x20 ADD SWAP1 DUP2 MSTORE PUSH1 0x20 ADD PUSH1 0x0 KECCAK256 SLOAD LT PUSH2 0x56A JUMPI PUSH1 0x0 DUP1 PUSH1 0x0 SWAP1 SLOAD SWAP1 PUSH2 0x100 EXP SWAP1 DIV PUSH20 0xFFFFFFFFFFFFFFFFFFFFFFFFFFFFFFFFFFFFFFFF AND SWAP1 POP PUSH1 0x0 PUSH1 0x3 PUSH1 0x0 DUP6 PUSH20 0xFFFFFFFFFFFFFFFFFFFFFFFFFFFFFFFFFFFFFFFF AND PUSH20 0xFFFFFFFFFFFFFFFFFFFFFFFFFFFFFFFFFFFFFFFF AND DUP2 MSTORE PUSH1 0x20 ADD SWAP1 DUP2 MSTORE PUSH1 0x20 ADD PUSH1 0x0 KECCAK256 DUP2 SWAP1 SSTORE POP DUP1 PUSH20 0xFFFFFFFFFFFFFFFFFFFFFFFFFFFFFFFFFFFFFFFF AND PUSH4 0x4FB2E45D DUP5 PUSH1 0x40 MLOAD DUP3 PUSH4 0xFFFFFFFF AND PUSH1 0xE0 SHL DUP2 MSTORE PUSH1 0x4 ADD PUSH2 0x536 SWAP2 SWAP1 PUSH2 0xB3D JUMP JUMPDEST PUSH1 0x0 PUSH1 0x40 MLOAD DUP1 DUP4 SUB DUP2 PUSH1 0x0 DUP8 DUP1 EXTCODESIZE ISZERO DUP1 ISZERO PUSH2 0x550 JUMPI PUSH1 0x0 DUP1 REVERT JUMPDEST POP GAS CALL ISZERO DUP1 ISZERO PUSH2 0x564 JUMPI RETURNDATASIZE PUSH1 0x0 DUP1 RETURNDATACOPY RETURNDATASIZE PUSH1 0x0 REVERT JUMPDEST POP POP POP POP POP JUMPDEST JUMPDEST DUP1 DUP1 PUSH2 0x576 SWAP1 PUSH2 0xB58 JUMP JUMPDEST SWAP2 POP POP PUSH2 0x1A8 JUMP JUMPDEST POP POP JUMP JUMPDEST PUSH1 0x60 PUSH1 0x1 DUP1 SLOAD DUP1 PUSH1 0x20 MUL PUSH1 0x20 ADD PUSH1 0x40 MLOAD SWAP1 DUP2 ADD PUSH1 0x40 MSTORE DUP1 SWAP3 SWAP2 SWAP1 DUP2 DUP2 MSTORE PUSH1 0x20 ADD DUP3 DUP1 SLOAD DUP1 ISZERO PUSH2 0x606 JUMPI PUSH1 0x20 MUL DUP3 ADD SWAP2 SWAP1 PUSH1 0x0 MSTORE PUSH1 0x20 PUSH1 0x0 KECCAK256 SWAP1 JUMPDEST DUP2 PUSH1 0x0 SWAP1 SLOAD SWAP1 PUSH2 0x100 EXP SWAP1 DIV PUSH20 0xFFFFFFFFFFFFFFFFFFFFFFFFFFFFFFFFFFFFFFFF AND PUSH20 0xFFFFFFFFFFFFFFFFFFFFFFFFFFFFFFFFFFFFFFFF AND DUP2 MSTORE PUSH1 0x20 ADD SWAP1 PUSH1 0x1 ADD SWAP1 DUP1 DUP4 GT PUSH2 0x5BC JUMPI JUMPDEST POP POP POP POP POP SWAP1 POP SWAP1 JUMP JUMPDEST DUP3 DUP1 SLOAD DUP3 DUP3 SSTORE SWAP1 PUSH1 0x0 MSTORE PUSH1 0x20 PUSH1 0x0 KECCAK256 SWAP1 DUP2 ADD SWAP3 DUP3 ISZERO PUSH2 0x689 JUMPI SWAP2 PUSH1 0x20 MUL DUP3 ADD JUMPDEST DUP3 DUP2 GT ISZERO PUSH2 0x688 JUMPI DUP3 MLOAD DUP3 PUSH1 0x0 PUSH2 0x100 EXP DUP2 SLOAD DUP2 PUSH20 0xFFFFFFFFFFFFFFFFFFFFFFFFFFFFFFFFFFFFFFFF MUL NOT AND SWAP1 DUP4 PUSH20 0xFFFFFFFFFFFFFFFFFFFFFFFFFFFFFFFFFFFFFFFF AND MUL OR SWAP1 SSTORE POP SWAP2 PUSH1 0x20 ADD SWAP2 SWAP1 PUSH1 0x1 ADD SWAP1 PUSH2 0x630 JUMP JUMPDEST JUMPDEST POP SWAP1 POP PUSH2 0x696 SWAP2 SWAP1 PUSH2 0x69A JUMP JUMPDEST POP SWAP1 JUMP JUMPDEST JUMPDEST DUP1 DUP3 GT ISZERO PUSH2 0x6B3 JUMPI PUSH1 0x0 DUP2 PUSH1 0x0 SWAP1 SSTORE POP PUSH1 0x1 ADD PUSH2 0x69B JUMP JUMPDEST POP SWAP1 JUMP JUMPDEST PUSH1 0x0 PUSH1 0x40 MLOAD SWAP1 POP SWAP1 JUMP JUMPDEST PUSH1 0x0 DUP1 REVERT JUMPDEST PUSH1 0x0 DUP1 REVERT JUMPDEST PUSH1 0x0 DUP1 REVERT JUMPDEST PUSH1 0x0 PUSH1 0x1F NOT PUSH1 0x1F DUP4 ADD AND SWAP1 POP SWAP2 SWAP1 POP JUMP JUMPDEST PUSH32 0x4E487B7100000000000000000000000000000000000000000000000000000000 PUSH1 0x0 MSTORE PUSH1 0x41 PUSH1 0x4 MSTORE PUSH1 0x24 PUSH1 0x0 REVERT JUMPDEST PUSH2 0x719 DUP3 PUSH2 0x6D0 JUMP JUMPDEST DUP2 ADD DUP2 DUP2 LT PUSH8 0xFFFFFFFFFFFFFFFF DUP3 GT OR ISZERO PUSH2 0x738 JUMPI PUSH2 0x737 PUSH2 0x6E1 JUMP JUMPDEST JUMPDEST DUP1 PUSH1 0x40 MSTORE POP POP POP JUMP JUMPDEST PUSH1 0x0 PUSH2 0x74B PUSH2 0x6B7 JUMP JUMPDEST SWAP1 POP PUSH2 0x757 DUP3 DUP3 PUSH2 0x710 JUMP JUMPDEST SWAP2 SWAP1 POP JUMP JUMPDEST PUSH1 0x0 PUSH8 0xFFFFFFFFFFFFFFFF DUP3 GT ISZERO PUSH2 0x777 JUMPI PUSH2 0x776 PUSH2 0x6E1 JUMP JUMPDEST JUMPDEST PUSH1 0x20 DUP3 MUL SWAP1 POP PUSH1 0x20 DUP2 ADD SWAP1 POP SWAP2 SWAP1 POP JUMP JUMPDEST PUSH1 0x0 DUP1 REVERT JUMPDEST PUSH1 0x0 PUSH20 0xFFFFFFFFFFFFFFFFFFFFFFFFFFFFFFFFFFFFFFFF DUP3 AND SWAP1 POP SWAP2 SWAP1 POP JUMP JUMPDEST PUSH1 0x0 PUSH2 0x7B8 DUP3 PUSH2 0x78D JUMP JUMPDEST SWAP1 POP SWAP2 SWAP1 POP JUMP JUMPDEST PUSH2 0x7C8 DUP2 PUSH2 0x7AD JUMP JUMPDEST DUP2 EQ PUSH2 0x7D3 JUMPI PUSH1 0x0 DUP1 REVERT JUMPDEST POP JUMP JUMPDEST PUSH1 0x0 DUP2 CALLDATALOAD SWAP1 POP PUSH2 0x7E5 DUP2 PUSH2 0x7BF JUMP JUMPDEST SWAP3 SWAP2 POP POP JUMP JUMPDEST PUSH1 0x0 PUSH2 0x7FE PUSH2 0x7F9 DUP5 PUSH2 0x75C JUMP JUMPDEST PUSH2 0x741 JUMP JUMPDEST SWAP1 POP DUP1 DUP4 DUP3 MSTORE PUSH1 0x20 DUP3 ADD SWAP1 POP PUSH1 0x20 DUP5 MUL DUP4 ADD DUP6 DUP2 GT ISZERO PUSH2 0x821 JUMPI PUSH2 0x820 PUSH2 0x788 JUMP JUMPDEST JUMPDEST DUP4 JUMPDEST DUP2 DUP2 LT ISZERO PUSH2 0x84A JUMPI DUP1 PUSH2 0x836 DUP9 DUP3 PUSH2 0x7D6 JUMP JUMPDEST DUP5 MSTORE PUSH1 0x20 DUP5 ADD SWAP4 POP POP PUSH1 0x20 DUP2 ADD SWAP1 POP PUSH2 0x823 JUMP JUMPDEST POP POP POP SWAP4 SWAP3 POP POP POP JUMP JUMPDEST PUSH1 0x0 DUP3 PUSH1 0x1F DUP4 ADD SLT PUSH2 0x869 JUMPI PUSH2 0x868 PUSH2 0x6CB JUMP JUMPDEST JUMPDEST DUP2 CALLDATALOAD PUSH2 0x879 DUP5 DUP3 PUSH1 0x20 DUP7 ADD PUSH2 0x7EB JUMP JUMPDEST SWAP2 POP POP SWAP3 SWAP2 POP POP JUMP JUMPDEST PUSH1 0x0 PUSH1 0x20 DUP3 DUP5 SUB SLT ISZERO PUSH2 0x898 JUMPI PUSH2 0x897 PUSH2 0x6C1 JUMP JUMPDEST JUMPDEST PUSH1 0x0 DUP3 ADD CALLDATALOAD PUSH8 0xFFFFFFFFFFFFFFFF DUP2 GT ISZERO PUSH2 0x8B6 JUMPI PUSH2 0x8B5 PUSH2 0x6C6 JUMP JUMPDEST JUMPDEST PUSH2 0x8C2 DUP5 DUP3 DUP6 ADD PUSH2 0x854 JUMP JUMPDEST SWAP2 POP POP SWAP3 SWAP2 POP POP JUMP JUMPDEST PUSH1 0x0 PUSH1 0x20 DUP3 DUP5 SUB SLT ISZERO PUSH2 0x8E1 JUMPI PUSH2 0x8E0 PUSH2 0x6C1 JUMP JUMPDEST JUMPDEST PUSH1 0x0 PUSH2 0x8EF DUP5 DUP3 DUP6 ADD PUSH2 0x7D6 JUMP JUMPDEST SWAP2 POP POP SWAP3 SWAP2 POP POP JUMP JUMPDEST PUSH1 0x0 DUP2 SWAP1 POP SWAP2 SWAP1 POP JUMP JUMPDEST PUSH2 0x90B DUP2 PUSH2 0x8F8 JUMP JUMPDEST DUP3 MSTORE POP POP JUMP JUMPDEST PUSH1 0x0 PUSH1 0x40 DUP3 ADD SWAP1 POP PUSH2 0x926 PUSH1 0x0 DUP4 ADD DUP6 PUSH2 0x902 JUMP JUMPDEST PUSH2 0x933 PUSH1 0x20 DUP4 ADD DUP5 PUSH2 0x902 JUMP JUMPDEST SWAP4 SWAP3 POP POP POP JUMP JUMPDEST PUSH1 0x0 DUP2 MLOAD SWAP1 POP SWAP2 SWAP1 POP JUMP JUMPDEST PUSH1 0x0 DUP3 DUP3 MSTORE PUSH1 0x20 DUP3 ADD SWAP1 POP SWAP3 SWAP2 POP POP JUMP JUMPDEST PUSH1 0x0 DUP2 SWAP1 POP PUSH1 0x20 DUP3 ADD SWAP1 POP SWAP2 SWAP1 POP JUMP JUMPDEST PUSH2 0x96F DUP2 PUSH2 0x7AD JUMP JUMPDEST DUP3 MSTORE POP POP JUMP JUMPDEST PUSH1 0x0 PUSH2 0x981 DUP4 DUP4 PUSH2 0x966 JUMP JUMPDEST PUSH1 0x20 DUP4 ADD SWAP1 POP SWAP3 SWAP2 POP POP JUMP JUMPDEST PUSH1 0x0 PUSH1 0x20 DUP3 ADD SWAP1 POP SWAP2 SWAP1 POP JUMP JUMPDEST PUSH1 0x0 PUSH2 0x9A5 DUP3 PUSH2 0x93A JUMP JUMPDEST PUSH2 0x9AF DUP2 DUP6 PUSH2 0x945 JUMP JUMPDEST SWAP4 POP PUSH2 0x9BA DUP4 PUSH2 0x956 JUMP JUMPDEST DUP1 PUSH1 0x0 JUMPDEST DUP4 DUP2 LT ISZERO PUSH2 0x9EB JUMPI DUP2 MLOAD PUSH2 0x9D2 DUP9 DUP3 PUSH2 0x975 JUMP JUMPDEST SWAP8 POP PUSH2 0x9DD DUP4 PUSH2 0x98D JUMP JUMPDEST SWAP3 POP POP PUSH1 0x1 DUP2 ADD SWAP1 POP PUSH2 0x9BE JUMP JUMPDEST POP DUP6 SWAP4 POP POP POP POP SWAP3 SWAP2 POP POP JUMP JUMPDEST PUSH1 0x0 PUSH1 0x20 DUP3 ADD SWAP1 POP DUP2 DUP2 SUB PUSH1 0x0 DUP4 ADD MSTORE PUSH2 0xA12 DUP2 DUP5 PUSH2 0x99A JUMP JUMPDEST SWAP1 POP SWAP3 SWAP2 POP POP JUMP JUMPDEST PUSH32 0x4E487B7100000000000000000000000000000000000000000000000000000000 PUSH1 0x0 MSTORE PUSH1 0x12 PUSH1 0x4 MSTORE PUSH1 0x24 PUSH1 0x0 REVERT JUMPDEST PUSH32 0x4E487B7100000000000000000000000000000000000000000000000000000000 PUSH1 0x0 MSTORE PUSH1 0x11 PUSH1 0x4 MSTORE PUSH1 0x24 PUSH1 0x0 REVERT JUMPDEST PUSH1 0x0 PUSH2 0xA83 DUP3 PUSH2 0x8F8 JUMP JUMPDEST SWAP2 POP PUSH2 0xA8E DUP4 PUSH2 0x8F8 JUMP JUMPDEST SWAP3 POP DUP3 PUSH2 0xA9E JUMPI PUSH2 0xA9D PUSH2 0xA1A JUMP JUMPDEST JUMPDEST DUP3 DUP3 DIV SWAP1 POP SWAP3 SWAP2 POP POP JUMP JUMPDEST PUSH32 0x4E487B7100000000000000000000000000000000000000000000000000000000 PUSH1 0x0 MSTORE PUSH1 0x32 PUSH1 0x4 MSTORE PUSH1 0x24 PUSH1 0x0 REVERT JUMPDEST PUSH1 0x0 PUSH2 0xAE3 DUP3 PUSH2 0x8F8 JUMP JUMPDEST SWAP2 POP PUSH2 0xAEE DUP4 PUSH2 0x8F8 JUMP JUMPDEST SWAP3 POP DUP3 PUSH32 0xFFFFFFFFFFFFFFFFFFFFFFFFFFFFFFFFFFFFFFFFFFFFFFFFFFFFFFFFFFFFFFFF SUB DUP3 GT ISZERO PUSH2 0xB23 JUMPI PUSH2 0xB22 PUSH2 0xA49 JUMP JUMPDEST JUMPDEST DUP3 DUP3 ADD SWAP1 POP SWAP3 SWAP2 POP POP JUMP JUMPDEST PUSH2 0xB37 DUP2 PUSH2 0x7AD JUMP JUMPDEST DUP3 MSTORE POP POP JUMP JUMPDEST PUSH1 0x0 PUSH1 0x20 DUP3 ADD SWAP1 POP PUSH2 0xB52 PUSH1 0x0 DUP4 ADD DUP5 PUSH2 0xB2E JUMP JUMPDEST SWAP3 SWAP2 POP POP JUMP JUMPDEST PUSH1 0x0 PUSH2 0xB63 DUP3 PUSH2 0x8F8 JUMP JUMPDEST SWAP2 POP PUSH32 0xFFFFFFFFFFFFFFFFFFFFFFFFFFFFFFFFFFFFFFFFFFFFFFFFFFFFFFFFFFFFFFFF DUP3 EQ ISZERO PUSH2 0xB96 JUMPI PUSH2 0xB95 PUSH2 0xA49 JUMP JUMPDEST JUMPDEST PUSH1 0x1 DUP3 ADD SWAP1 POP SWAP2 SWAP1 POP JUMP INVALID LOG2 PUSH5 0x6970667358 0x22 SLT KECCAK256 SHR 0xD4 CALLDATALOAD 0xBD PUSH19 0xBE2C5A4A424B888ADEA36D1648018DA416B53B DUP2 CALLVALUE EXTCODECOPY 0xB0 PUSH31 0xA54BD864736F6C634300080B00330000000000000000000000000000000000 "},"gasEstimates":{"creation":{"codeDepositCost":"622800","executionCost":"infinite","totalCost":"infinite"},"external":{"addRecovery(address,address)":"infinite","getDetails()":"infinite","setContacts(address[])":"infinite","setIPFSHash(string)":"infinite","setRecovery(address)":"26958","transferOwner(address)":"29089"}},"methodIdentifiers":{"addRecovery(address,address)":"04b20725","getDetails()":"fbbf93a0","setContacts(address[])":"0aeaaf37","setIPFSHash(string)":"b8a76f54","setRecovery(address)":"f0d85c89","transferOwner(address)":"4fb2e45d"}},"storageLayout":{"storage":[{"astId":174,"contract":"Identity.sol:Identity","label":"owner","offset":0,"slot":"0","type":"t_address"},{"astId":176,"contract":"Identity.sol:Identity","label":"ipfs_hash","offset":0,"slot":"1","type":"t_string_storage"},{"astId":178,"contract":"Identity.sol:Identity","label":"recovery","offset":0,"slot":"2","type":"t_address"}],"types":{"t_address":{"encoding":"inplace","label":"address","numberOfBytes":"20"},"t_string_storage":{"encoding":"bytes","label":"string","numberOfBytes":"32"}}},"userdoc":{"kind":"user","methods":{},"version":1}}